{
  "contractName": "EHelper",
  "abi": [
    {
      "constant": true,
      "inputs": [
        {
          "name": "",
          "type": "address"
        }
      ],
      "name": "ownerPlayer",
      "outputs": [
        {
          "name": "",
          "type": "uint256"
        }
      ],
      "payable": false,
      "stateMutability": "view",
      "type": "function"
    },
    {
      "constant": false,
      "inputs": [
        {
          "name": "_seedId",
          "type": "uint256"
        }
      ],
      "name": "seedPlanting",
      "outputs": [],
      "payable": false,
      "stateMutability": "nonpayable",
      "type": "function"
    },
    {
      "constant": true,
      "inputs": [
        {
          "name": "_seedId",
          "type": "uint256"
        }
      ],
      "name": "getType",
      "outputs": [
        {
          "name": "",
          "type": "uint256"
        }
      ],
      "payable": false,
      "stateMutability": "view",
      "type": "function"
    },
    {
      "constant": true,
      "inputs": [
        {
          "name": "_seedId",
          "type": "uint256"
        }
      ],
      "name": "getBonus",
      "outputs": [
        {
          "name": "",
          "type": "uint256"
        }
      ],
      "payable": false,
      "stateMutability": "view",
      "type": "function"
    },
    {
      "constant": true,
      "inputs": [
        {
          "name": "",
          "type": "uint256"
        }
      ],
      "name": "seedOwner",
      "outputs": [
        {
          "name": "",
          "type": "address"
        }
      ],
      "payable": false,
      "stateMutability": "view",
      "type": "function"
    },
    {
      "constant": false,
      "inputs": [],
      "name": "renounceOwnership",
      "outputs": [],
      "payable": false,
      "stateMutability": "nonpayable",
      "type": "function"
    },
    {
      "constant": true,
      "inputs": [
        {
          "name": "",
          "type": "uint256"
        }
      ],
      "name": "daysToHarvest",
      "outputs": [
        {
          "name": "",
          "type": "uint8"
        }
      ],
      "payable": false,
      "stateMutability": "view",
      "type": "function"
    },
    {
      "constant": true,
      "inputs": [],
      "name": "owner",
      "outputs": [
        {
          "name": "",
          "type": "address"
        }
      ],
      "payable": false,
      "stateMutability": "view",
      "type": "function"
    },
    {
      "constant": true,
      "inputs": [],
      "name": "getTotalSeeds",
      "outputs": [
        {
          "name": "",
          "type": "uint256"
        }
      ],
      "payable": false,
      "stateMutability": "view",
      "type": "function"
    },
    {
      "constant": false,
      "inputs": [
        {
          "name": "_name",
          "type": "string"
        }
      ],
      "name": "createLand",
      "outputs": [],
      "payable": false,
      "stateMutability": "nonpayable",
      "type": "function"
    },
    {
      "constant": false,
      "inputs": [
        {
          "name": "_id",
          "type": "uint256"
        }
      ],
      "name": "createRandomSeed",
      "outputs": [],
      "payable": false,
      "stateMutability": "nonpayable",
      "type": "function"
    },
    {
      "constant": false,
      "inputs": [
        {
          "name": "_seedId",
          "type": "uint256"
        }
      ],
      "name": "seedWatering",
      "outputs": [],
      "payable": false,
      "stateMutability": "nonpayable",
      "type": "function"
    },
    {
      "constant": true,
      "inputs": [
        {
          "name": "",
          "type": "uint256"
        }
      ],
      "name": "seeds",
      "outputs": [
        {
          "name": "name",
          "type": "string"
        },
        {
          "name": "traits",
          "type": "uint256"
        },
        {
          "name": "remainingDays",
          "type": "uint8"
        },
        {
          "name": "isWatered",
          "type": "bool"
        }
      ],
      "payable": false,
      "stateMutability": "view",
      "type": "function"
    },
    {
      "constant": false,
      "inputs": [
        {
          "name": "_newOwner",
          "type": "address"
        }
      ],
      "name": "transferOwnership",
      "outputs": [],
      "payable": false,
      "stateMutability": "nonpayable",
      "type": "function"
    },
    {
      "constant": true,
      "inputs": [
        {
          "name": "",
          "type": "uint256"
        }
      ],
      "name": "players",
      "outputs": [
        {
          "name": "name",
          "type": "string"
        },
        {
          "name": "currentDay",
          "type": "uint256"
        },
        {
          "name": "lastBedtime",
          "type": "uint256"
        }
      ],
      "payable": false,
      "stateMutability": "view",
      "type": "function"
    },
    {
      "anonymous": false,
      "inputs": [
        {
          "indexed": false,
          "name": "id",
          "type": "uint256"
        },
        {
          "indexed": false,
          "name": "name",
          "type": "string"
        },
        {
          "indexed": false,
          "name": "traits",
          "type": "uint256"
        }
      ],
      "name": "SeedCreated",
      "type": "event"
    },
    {
      "anonymous": false,
      "inputs": [
        {
          "indexed": true,
          "name": "previousOwner",
          "type": "address"
        }
      ],
      "name": "OwnershipRenounced",
      "type": "event"
    },
    {
      "anonymous": false,
      "inputs": [
        {
          "indexed": true,
          "name": "previousOwner",
          "type": "address"
        },
        {
          "indexed": true,
          "name": "newOwner",
          "type": "address"
        }
      ],
      "name": "OwnershipTransferred",
      "type": "event"
    },
    {
      "constant": true,
      "inputs": [
        {
          "name": "_owner",
          "type": "address"
        }
      ],
      "name": "getSeedsByOwner",
      "outputs": [
        {
          "name": "",
          "type": "uint256[]"
        }
      ],
      "payable": false,
      "stateMutability": "view",
      "type": "function"
    }
  ],
  "bytecode": "0x608060405260066004556006600555600554600a0a6006556000600b55336000806101000a81548173ffffffffffffffffffffffffffffffffffffffff021916908373ffffffffffffffffffffffffffffffffffffffff16021790555060026003600080815260200190815260200160002060006101000a81548160ff021916908360ff1602179055506002600360006001815260200190815260200160002060006101000a81548160ff021916908360ff1602179055506002600360006002815260200190815260200160002060006101000a81548160ff021916908360ff1602179055506002600360006003815260200190815260200160002060006101000a81548160ff021916908360ff1602179055506002600360006004815260200190815260200160002060006101000a81548160ff021916908360ff1602179055506002600360006005815260200190815260200160002060006101000a81548160ff021916908360ff160217905550611b4e8061017e6000396000f3006080604052600436106100e6576000357c0100000000000000000000000000000000000000000000000000000000900463ffffffff1680630d194370146100eb57806310ff56ec146101425780633c1105421461016f5780634036ab78146102075780634aa66b28146102485780635ebad70114610289578063715018a6146102f65780637917ab051461030d5780638da5cb5b146103545780639d30d063146103ab578063b5eddba3146103d6578063bdd629651461043f578063c57dcc831461046c578063f0503e8014610499578063f2fde38b1461055e578063f71d96cb146105a1575b600080fd5b3480156100f757600080fd5b5061012c600480360381019080803573ffffffffffffffffffffffffffffffffffffffff169060200190929190505050610655565b6040518082815260200191505060405180910390f35b34801561014e57600080fd5b5061016d6004803603810190808035906020019092919050505061066d565b005b34801561017b57600080fd5b506101b0600480360381019080803573ffffffffffffffffffffffffffffffffffffffff16906020019092919050505061088d565b6040518080602001828103825283818151815260200191508051906020019060200280838360005b838110156101f35780820151818401526020810190506101d8565b505050509050019250505060405180910390f35b34801561021357600080fd5b50610232600480360381019080803590602001909291905050506109bf565b6040518082815260200191505060405180910390f35b34801561025457600080fd5b5061027360048036038101908080359060200190929190505050610a1d565b6040518082815260200191505060405180910390f35b34801561029557600080fd5b506102b460048036038101908080359060200190929190505050610a7e565b604051808273ffffffffffffffffffffffffffffffffffffffff1673ffffffffffffffffffffffffffffffffffffffff16815260200191505060405180910390f35b34801561030257600080fd5b5061030b610ab1565b005b34801561031957600080fd5b5061033860048036038101908080359060200190929190505050610c42565b604051808260ff1660ff16815260200191505060405180910390f35b34801561036057600080fd5b50610369610c62565b604051808273ffffffffffffffffffffffffffffffffffffffff1673ffffffffffffffffffffffffffffffffffffffff16815260200191505060405180910390f35b3480156103b757600080fd5b506103c0610c87565b6040518082815260200191505060405180910390f35b3480156103e257600080fd5b5061043d600480360381019080803590602001908201803590602001908080601f0160208091040260200160405190810160405280939291908181526020018383808284378201915050505050509192919290505050610c94565b005b34801561044b57600080fd5b5061046a60048036038101908080359060200190929190505050610dbe565b005b34801561047857600080fd5b5061049760048036038101908080359060200190929190505050610e70565b005b3480156104a557600080fd5b506104c460048036038101908080359060200190929190505050610fea565b60405180806020018581526020018460ff1660ff16815260200183151515158152602001828103825286818151815260200191508051906020019080838360005b83811015610520578082015181840152602081019050610505565b50505050905090810190601f16801561054d5780820380516001836020036101000a031916815260200191505b509550505050505060405180910390f35b34801561056a57600080fd5b5061059f600480360381019080803573ffffffffffffffffffffffffffffffffffffffff1690602001909291905050506110db565b005b3480156105ad57600080fd5b506105cc600480360381019080803590602001909291905050506111d1565b6040518080602001848152602001838152602001828103825285818151815260200191508051906020019080838360005b838110156106185780820151818401526020810190506105fd565b50505050905090810190601f1680156106455780820380516001836020036101000a031916815260200191505b5094505050505060405180910390f35b60026020528060005260406000206000915090505481565b600080823373ffffffffffffffffffffffffffffffffffffffff166008600083815260200190815260200160002060009054906101000a900473ffffffffffffffffffffffffffffffffffffffff1673ffffffffffffffffffffffffffffffffffffffff1614151561076d576040517f08c379a00000000000000000000000000000000000000000000000000000000081526004018080602001828103825260258152602001807f546865207365656420646f65736e27742062656c6f6e6720746f20746865207081526020017f6c6179657200000000000000000000000000000000000000000000000000000081525060400191505060405180910390fd5b60078481548110151561077c57fe5b9060005260206000209060030201925060008360020160009054906101000a900460ff1660ff16141561088757600180600260003373ffffffffffffffffffffffffffffffffffffffff1673ffffffffffffffffffffffffffffffffffffffff16815260200190815260200160002054038154811015156107f957fe5b9060005260206000209060040201915061081284610a1d565b6003600061081f876109bf565b815260200190815260200160002060009054906101000a900460ff16018360020160006101000a81548160ff021916908360ff160217905550816001018490806001815401808255809150509060018203906000526020600020016000909192909190915055505b50505050565b606080600080600960008673ffffffffffffffffffffffffffffffffffffffff1673ffffffffffffffffffffffffffffffffffffffff168152602001908152602001600020546040519080825280602002602001820160405280156109015781602001602082028038833980820191505090505b50925060009150600090505b6007805490508110156109b4578473ffffffffffffffffffffffffffffffffffffffff166008600083815260200190815260200160002060009054906101000a900473ffffffffffffffffffffffffffffffffffffffff1673ffffffffffffffffffffffffffffffffffffffff1614156109a75780838381518110151561099057fe5b906020019060200201818152505081806001019250505b808060010191505061090d565b829350505050919050565b60008060006007848154811015156109d357fe5b906000526020600020906003020191506103e882600101548115156109f457fe5b049050606481811515610a0357fe5b06905060045481811515610a1357fe5b0692505050919050565b6000806000600784815481101515610a3157fe5b90600052602060002090600302019150620186a08260010154811515610a5357fe5b049050600a81811515610a6257fe5b0690506001600382811515610a7357fe5b060392505050919050565b60086020528060005260406000206000915054906101000a900473ffffffffffffffffffffffffffffffffffffffff1681565b6000809054906101000a900473ffffffffffffffffffffffffffffffffffffffff1673ffffffffffffffffffffffffffffffffffffffff163373ffffffffffffffffffffffffffffffffffffffff16141515610b9b576040517f08c379a00000000000000000000000000000000000000000000000000000000081526004018080602001828103825260278152602001807f4f6e6c7920746865206f776e65722063616e20706572666f726d20746869732081526020017f616374696f6e2e0000000000000000000000000000000000000000000000000081525060400191505060405180910390fd5b6000809054906101000a900473ffffffffffffffffffffffffffffffffffffffff1673ffffffffffffffffffffffffffffffffffffffff167ff8df31144d9c2f0f6b59d69b8b98abd5459d07f2742c4df920b25aae33c6482060405160405180910390a260008060006101000a81548173ffffffffffffffffffffffffffffffffffffffff021916908373ffffffffffffffffffffffffffffffffffffffff160217905550565b60036020528060005260406000206000915054906101000a900460ff1681565b6000809054906101000a900473ffffffffffffffffffffffffffffffffffffffff1681565b6000600780549050905090565b600060016080604051908101604052808481526020016000604051908082528060200260200182016040528015610cda5781602001602082028038833980820191505090505b5081526020016001815260200143815250908060018154018082558091505090600182039060005260206000209060040201600090919290919091506000820151816000019080519060200190610d32929190611a30565b506020820151816001019080519060200190610d4f929190611ab0565b5060408201518160020155606082015181600301555050905080600260003373ffffffffffffffffffffffffffffffffffffffff1673ffffffffffffffffffffffffffffffffffffffff16815260200190815260200160002081905550610dba600780549050610dbe565b5050565b6000610dc9826112a2565b90506000600780549050141515610e2c57610e27610e216040805190810160405280600581526020017f5365656420000000000000000000000000000000000000000000000000000000815250600780549050611343565b826115e3565b610e6c565b610e6b6040805190810160405280600681526020017f5365656420300000000000000000000000000000000000000000000000000000815250826115e3565b5b5050565b6000813373ffffffffffffffffffffffffffffffffffffffff166008600083815260200190815260200160002060009054906101000a900473ffffffffffffffffffffffffffffffffffffffff1673ffffffffffffffffffffffffffffffffffffffff16141515610f6f576040517f08c379a00000000000000000000000000000000000000000000000000000000081526004018080602001828103825260258152602001807f546865207365656420646f65736e27742062656c6f6e6720746f20746865207081526020017f6c6179657200000000000000000000000000000000000000000000000000000081525060400191505060405180910390fd5b600783815481101515610f7e57fe5b906000526020600020906003020191508160020160019054906101000a900460ff16158015610fc2575060008260020160009054906101000a900460ff1660ff1614155b15610fe55760018260020160016101000a81548160ff0219169083151502179055505b505050565b600781815481101515610ff957fe5b9060005260206000209060030201600091509050806000018054600181600116156101000203166002900480601f0160208091040260200160405190810160405280929190818152602001828054600181600116156101000203166002900480156110a55780601f1061107a576101008083540402835291602001916110a5565b820191906000526020600020905b81548152906001019060200180831161108857829003601f168201915b5050505050908060010154908060020160009054906101000a900460ff16908060020160019054906101000a900460ff16905084565b6000809054906101000a900473ffffffffffffffffffffffffffffffffffffffff1673ffffffffffffffffffffffffffffffffffffffff163373ffffffffffffffffffffffffffffffffffffffff161415156111c5576040517f08c379a00000000000000000000000000000000000000000000000000000000081526004018080602001828103825260278152602001807f4f6e6c7920746865206f776e65722063616e20706572666f726d20746869732081526020017f616374696f6e2e0000000000000000000000000000000000000000000000000081525060400191505060405180910390fd5b6111ce81611843565b50565b6001818154811015156111e057fe5b9060005260206000209060040201600091509050806000018054600181600116156101000203166002900480601f01602080910402602001604051908101604052809291908181526020018280546001816001161561010002031660029004801561128c5780601f106112615761010080835404028352916020019161128c565b820191906000526020600020905b81548152906001019060200180831161126f57829003601f168201915b5050505050908060020154908060030154905083565b60008082604051602001808281526020019150506040516020818303038152906040526040518082805190602001908083835b6020831015156112fa57805182526020820191506020810190506020830392506112d5565b6001836020036101000a03801982511681845116808217855250505050505090500191505060405180910390206001900490506006548181151561133a57fe5b06915050919050565b60606000806060600080606080600089975060649650866040519080825280601f01601f19166020018201604052801561138c5781602001602082028038833980820191505090505b509550600094505b60008814151561142b57600a888115156113aa57fe5b069350600a888115156113b957fe5b049750836030017f01000000000000000000000000000000000000000000000000000000000000000286868060010197508151811015156113f657fe5b9060200101907effffffffffffffffffffffffffffffffffffffffffffffffffffffffffffff1916908160001a905350611394565b8a9250848351016040519080825280601f01601f1916602001820160405280156114645781602001602082028038833980820191505090505b509150600090505b825181101561151957828181518110151561148357fe5b9060200101517f010000000000000000000000000000000000000000000000000000000000000090047f01000000000000000000000000000000000000000000000000000000000000000282828151811015156114dc57fe5b9060200101907effffffffffffffffffffffffffffffffffffffffffffffffffffffffffffff1916908160001a905350808060010191505061146c565b600090505b848110156115d2578581600187030381518110151561153957fe5b9060200101517f010000000000000000000000000000000000000000000000000000000000000090047f010000000000000000000000000000000000000000000000000000000000000002828451830181518110151561159557fe5b9060200101907effffffffffffffffffffffffffffffffffffffffffffffffffffffffffffff1916908160001a905350808060010191505061151e565b819850505050505050505092915050565b600060016007608060405190810160405280868152602001858152602001600060ff16815260200160001515815250908060018154018082558091505090600182039060005260206000209060030201600090919290919091506000820151816000019080519060200190611659929190611a30565b506020820151816001015560408201518160020160006101000a81548160ff021916908360ff16021790555060608201518160020160016101000a81548160ff0219169083151502179055505050039050336008600083815260200190815260200160002060006101000a81548173ffffffffffffffffffffffffffffffffffffffff021916908373ffffffffffffffffffffffffffffffffffffffff16021790555061174f6001600960003373ffffffffffffffffffffffffffffffffffffffff1673ffffffffffffffffffffffffffffffffffffffff168152602001908152602001600020546119a690919063ffffffff16565b600960003373ffffffffffffffffffffffffffffffffffffffff1673ffffffffffffffffffffffffffffffffffffffff168152602001908152602001600020819055507fce48bf19e08859bf5b7fbde70faeb415663b4ea48c7c5cc270eeea608901f5238184846040518084815260200180602001838152602001828103825284818151815260200191508051906020019080838360005b838110156118025780820151818401526020810190506117e7565b50505050905090810190601f16801561182f5780820380516001836020036101000a031916815260200191505b5094505050505060405180910390a1505050565b600073ffffffffffffffffffffffffffffffffffffffff168173ffffffffffffffffffffffffffffffffffffffff16141515156118e8576040517f08c379a00000000000000000000000000000000000000000000000000000000081526004018080602001828103825260198152602001807f54686520616464726573732063616e2774206265203078302e0000000000000081525060200191505060405180910390fd5b8073ffffffffffffffffffffffffffffffffffffffff166000809054906101000a900473ffffffffffffffffffffffffffffffffffffffff1673ffffffffffffffffffffffffffffffffffffffff167f8be0079c531659141344cd1fd0a4f28419497f9722a3daafe3b4186f6b6457e060405160405180910390a3806000806101000a81548173ffffffffffffffffffffffffffffffffffffffff021916908373ffffffffffffffffffffffffffffffffffffffff16021790555050565b6000808284019050838110151515611a26576040517f08c379a00000000000000000000000000000000000000000000000000000000081526004018080602001828103825260088152602001807f4f766572666c6f7700000000000000000000000000000000000000000000000081525060200191505060405180910390fd5b8091505092915050565b828054600181600116156101000203166002900490600052602060002090601f016020900481019282601f10611a7157805160ff1916838001178555611a9f565b82800160010185558215611a9f579182015b82811115611a9e578251825591602001919060010190611a83565b5b509050611aac9190611afd565b5090565b828054828255906000526020600020908101928215611aec579160200282015b82811115611aeb578251825591602001919060010190611ad0565b5b509050611af99190611afd565b5090565b611b1f91905b80821115611b1b576000816000905550600101611b03565b5090565b905600a165627a7a723058201958e03d386a1dbf56a3c5fd65876bec7b9a084a722b4670ca7a1315da4acc080029",
  "source": "// solium-disable linebreak-style\r\npragma solidity ^0.4.24;\r\n\r\nimport \"./EWater.sol\";\r\n\r\n\r\ncontract EHelper is EWater{\r\n\r\n    function getSeedsByOwner(address _owner) external view returns(uint[]) {\r\n        uint[] memory result = new uint[](ownedSeedsCount[_owner]);\r\n        uint counter = 0;\r\n        for (uint i = 0; i < seeds.length; i++) {\r\n            if (seedOwner[i] == _owner) {\r\n                result[counter] = i;\r\n                counter++;\r\n            }\r\n        }\r\n        return result;\r\n    }\r\n\r\n    // This is a non secure function to obtain a random number, delete if not used\r\n    uint randNonce = 0;\r\n    function randMod(uint _modulus) internal returns(uint) {\r\n        randNonce++;\r\n        return uint(keccak256(abi.encodePacked(block.number, msg.sender, randNonce))) % _modulus;\r\n    }\r\n}",
  "sourcePath": "D:\\Solidity\\EtherealLands\\contracts\\EHelper.sol",
  "compiler": {
    "name": "solc",
    "version": "0.4.24+commit.e67f0147.Emscripten.clang"
  },
  "schemaVersion": "2.0.1",
  "updatedAt": "2018-08-24T08:50:26.796Z"
}