{
  "contractName": "EHelper",
  "abi": [
    {
      "constant": false,
      "inputs": [
        {
          "name": "_seedId",
          "type": "uint256"
        }
      ],
      "name": "seedPlanting",
      "outputs": [],
      "payable": false,
      "stateMutability": "nonpayable",
      "type": "function"
    },
    {
      "constant": true,
      "inputs": [
        {
          "name": "",
          "type": "address"
        }
      ],
      "name": "ownerToPlayer",
      "outputs": [
        {
          "name": "",
          "type": "uint256"
        }
      ],
      "payable": false,
      "stateMutability": "view",
      "type": "function"
    },
    {
      "constant": true,
      "inputs": [
        {
          "name": "_seedId",
          "type": "uint256"
        }
      ],
      "name": "getType",
      "outputs": [
        {
          "name": "",
          "type": "uint256"
        }
      ],
      "payable": false,
      "stateMutability": "view",
      "type": "function"
    },
    {
      "constant": true,
      "inputs": [
        {
          "name": "_seedId",
          "type": "uint256"
        }
      ],
      "name": "getBonus",
      "outputs": [
        {
          "name": "",
          "type": "uint256"
        }
      ],
      "payable": false,
      "stateMutability": "view",
      "type": "function"
    },
    {
      "constant": true,
      "inputs": [
        {
          "name": "",
          "type": "uint256"
        }
      ],
      "name": "seedOwner",
      "outputs": [
        {
          "name": "",
          "type": "address"
        }
      ],
      "payable": false,
      "stateMutability": "view",
      "type": "function"
    },
    {
      "constant": false,
      "inputs": [],
      "name": "renounceOwnership",
      "outputs": [],
      "payable": false,
      "stateMutability": "nonpayable",
      "type": "function"
    },
    {
      "constant": true,
      "inputs": [
        {
          "name": "",
          "type": "uint256"
        }
      ],
      "name": "daysToHarvest",
      "outputs": [
        {
          "name": "",
          "type": "uint8"
        }
      ],
      "payable": false,
      "stateMutability": "view",
      "type": "function"
    },
    {
      "constant": true,
      "inputs": [],
      "name": "owner",
      "outputs": [
        {
          "name": "",
          "type": "address"
        }
      ],
      "payable": false,
      "stateMutability": "view",
      "type": "function"
    },
    {
      "constant": true,
      "inputs": [],
      "name": "getTotalSeeds",
      "outputs": [
        {
          "name": "",
          "type": "uint256"
        }
      ],
      "payable": false,
      "stateMutability": "view",
      "type": "function"
    },
    {
      "constant": false,
      "inputs": [
        {
          "name": "_name",
          "type": "string"
        }
      ],
      "name": "createLand",
      "outputs": [],
      "payable": false,
      "stateMutability": "nonpayable",
      "type": "function"
    },
    {
      "constant": false,
      "inputs": [
        {
          "name": "_id",
          "type": "uint256"
        }
      ],
      "name": "createRandomSeed",
      "outputs": [],
      "payable": false,
      "stateMutability": "nonpayable",
      "type": "function"
    },
    {
      "constant": false,
      "inputs": [
        {
          "name": "_seedId",
          "type": "uint256"
        }
      ],
      "name": "seedWatering",
      "outputs": [],
      "payable": false,
      "stateMutability": "nonpayable",
      "type": "function"
    },
    {
      "constant": true,
      "inputs": [
        {
          "name": "",
          "type": "uint256"
        }
      ],
      "name": "seeds",
      "outputs": [
        {
          "name": "name",
          "type": "string"
        },
        {
          "name": "traits",
          "type": "uint256"
        },
        {
          "name": "remainingDays",
          "type": "uint8"
        },
        {
          "name": "isWatered",
          "type": "bool"
        }
      ],
      "payable": false,
      "stateMutability": "view",
      "type": "function"
    },
    {
      "constant": false,
      "inputs": [
        {
          "name": "_newOwner",
          "type": "address"
        }
      ],
      "name": "transferOwnership",
      "outputs": [],
      "payable": false,
      "stateMutability": "nonpayable",
      "type": "function"
    },
    {
      "anonymous": false,
      "inputs": [
        {
          "indexed": false,
          "name": "id",
          "type": "uint256"
        },
        {
          "indexed": false,
          "name": "name",
          "type": "string"
        },
        {
          "indexed": false,
          "name": "traits",
          "type": "uint256"
        }
      ],
      "name": "SeedCreated",
      "type": "event"
    },
    {
      "anonymous": false,
      "inputs": [
        {
          "indexed": true,
          "name": "previousOwner",
          "type": "address"
        }
      ],
      "name": "OwnershipRenounced",
      "type": "event"
    },
    {
      "anonymous": false,
      "inputs": [
        {
          "indexed": true,
          "name": "previousOwner",
          "type": "address"
        },
        {
          "indexed": true,
          "name": "newOwner",
          "type": "address"
        }
      ],
      "name": "OwnershipTransferred",
      "type": "event"
    },
    {
      "constant": true,
      "inputs": [
        {
          "name": "_owner",
          "type": "address"
        }
      ],
      "name": "getSeedsByOwner",
      "outputs": [
        {
          "name": "",
          "type": "uint256[]"
        }
      ],
      "payable": false,
      "stateMutability": "view",
      "type": "function"
    }
  ],
  "bytecode": "0x608060405260066004556006600555600554600a0a6006556000600b55336000806101000a81548173ffffffffffffffffffffffffffffffffffffffff021916908373ffffffffffffffffffffffffffffffffffffffff16021790555060056003600080815260200190815260200160002060006101000a81548160ff021916908360ff1602179055506008600360006001815260200190815260200160002060006101000a81548160ff021916908360ff1602179055506008600360006002815260200190815260200160002060006101000a81548160ff021916908360ff160217905550600a600360006003815260200190815260200160002060006101000a81548160ff021916908360ff1602179055506008600360006004815260200190815260200160002060006101000a81548160ff021916908360ff160217905550600a600360006005815260200190815260200160002060006101000a81548160ff021916908360ff1602179055506119ae8061017e6000396000f3006080604052600436106100db576000357c0100000000000000000000000000000000000000000000000000000000900463ffffffff16806310ff56ec146100e05780633c1105421461010d5780633ca7aac3146101a55780634036ab78146101fc5780634aa66b281461023d5780635ebad7011461027e578063715018a6146102eb5780637917ab05146103025780638da5cb5b146103495780639d30d063146103a0578063b5eddba3146103cb578063bdd6296514610434578063c57dcc8314610461578063f0503e801461048e578063f2fde38b14610553575b600080fd5b3480156100ec57600080fd5b5061010b60048036038101908080359060200190929190505050610596565b005b34801561011957600080fd5b5061014e600480360381019080803573ffffffffffffffffffffffffffffffffffffffff1690602001909291905050506107b4565b6040518080602001828103825283818151815260200191508051906020019060200280838360005b83811015610191578082015181840152602081019050610176565b505050509050019250505060405180910390f35b3480156101b157600080fd5b506101e6600480360381019080803573ffffffffffffffffffffffffffffffffffffffff1690602001909291905050506108e6565b6040518082815260200191505060405180910390f35b34801561020857600080fd5b50610227600480360381019080803590602001909291905050506108fe565b6040518082815260200191505060405180910390f35b34801561024957600080fd5b506102686004803603810190808035906020019092919050505061095c565b6040518082815260200191505060405180910390f35b34801561028a57600080fd5b506102a9600480360381019080803590602001909291905050506109bd565b604051808273ffffffffffffffffffffffffffffffffffffffff1673ffffffffffffffffffffffffffffffffffffffff16815260200191505060405180910390f35b3480156102f757600080fd5b506103006109f0565b005b34801561030e57600080fd5b5061032d60048036038101908080359060200190929190505050610b81565b604051808260ff1660ff16815260200191505060405180910390f35b34801561035557600080fd5b5061035e610ba1565b604051808273ffffffffffffffffffffffffffffffffffffffff1673ffffffffffffffffffffffffffffffffffffffff16815260200191505060405180910390f35b3480156103ac57600080fd5b506103b5610bc6565b6040518082815260200191505060405180910390f35b3480156103d757600080fd5b50610432600480360381019080803590602001908201803590602001908080601f0160208091040260200160405190810160405280939291908181526020018383808284378201915050505050509192919290505050610bd3565b005b34801561044057600080fd5b5061045f60048036038101908080359060200190929190505050610cef565b005b34801561046d57600080fd5b5061048c60048036038101908080359060200190929190505050610da1565b005b34801561049a57600080fd5b506104b960048036038101908080359060200190929190505050610f1b565b60405180806020018581526020018460ff1660ff16815260200183151515158152602001828103825286818151815260200191508051906020019080838360005b838110156105155780820151818401526020810190506104fa565b50505050905090810190601f1680156105425780820380516001836020036101000a031916815260200191505b509550505050505060405180910390f35b34801561055f57600080fd5b50610594600480360381019080803573ffffffffffffffffffffffffffffffffffffffff16906020019092919050505061100c565b005b600080823373ffffffffffffffffffffffffffffffffffffffff166008600083815260200190815260200160002060009054906101000a900473ffffffffffffffffffffffffffffffffffffffff1673ffffffffffffffffffffffffffffffffffffffff16141515610696576040517f08c379a00000000000000000000000000000000000000000000000000000000081526004018080602001828103825260258152602001807f546865207365656420646f65736e27742062656c6f6e6720746f20746865207081526020017f6c6179657200000000000000000000000000000000000000000000000000000081525060400191505060405180910390fd5b6007848154811015156106a557fe5b9060005260206000209060030201925060008360020160009054906101000a900460ff1660ff1614156107ae576001600260003373ffffffffffffffffffffffffffffffffffffffff1673ffffffffffffffffffffffffffffffffffffffff1681526020019081526020016000205481548110151561072057fe5b906000526020600020906004020191506107398461095c565b60036000610746876108fe565b815260200190815260200160002060009054906101000a900460ff16018360020160006101000a81548160ff021916908360ff160217905550816001018490806001815401808255809150509060018203906000526020600020016000909192909190915055505b50505050565b606080600080600960008673ffffffffffffffffffffffffffffffffffffffff1673ffffffffffffffffffffffffffffffffffffffff168152602001908152602001600020546040519080825280602002602001820160405280156108285781602001602082028038833980820191505090505b50925060009150600090505b6007805490508110156108db578473ffffffffffffffffffffffffffffffffffffffff166008600083815260200190815260200160002060009054906101000a900473ffffffffffffffffffffffffffffffffffffffff1673ffffffffffffffffffffffffffffffffffffffff1614156108ce578083838151811015156108b757fe5b906020019060200201818152505081806001019250505b8080600101915050610834565b829350505050919050565b60026020528060005260406000206000915090505481565b600080600060078481548110151561091257fe5b906000526020600020906003020191506103e8826001015481151561093357fe5b04905060648181151561094257fe5b0690506004548181151561095257fe5b0692505050919050565b600080600060078481548110151561097057fe5b90600052602060002090600302019150620186a0826001015481151561099257fe5b049050600a818115156109a157fe5b06905060016003828115156109b257fe5b060392505050919050565b60086020528060005260406000206000915054906101000a900473ffffffffffffffffffffffffffffffffffffffff1681565b6000809054906101000a900473ffffffffffffffffffffffffffffffffffffffff1673ffffffffffffffffffffffffffffffffffffffff163373ffffffffffffffffffffffffffffffffffffffff16141515610ada576040517f08c379a00000000000000000000000000000000000000000000000000000000081526004018080602001828103825260278152602001807f4f6e6c7920746865206f776e65722063616e20706572666f726d20746869732081526020017f616374696f6e2e0000000000000000000000000000000000000000000000000081525060400191505060405180910390fd5b6000809054906101000a900473ffffffffffffffffffffffffffffffffffffffff1673ffffffffffffffffffffffffffffffffffffffff167ff8df31144d9c2f0f6b59d69b8b98abd5459d07f2742c4df920b25aae33c6482060405160405180910390a260008060006101000a81548173ffffffffffffffffffffffffffffffffffffffff021916908373ffffffffffffffffffffffffffffffffffffffff160217905550565b60036020528060005260406000206000915054906101000a900460ff1681565b6000809054906101000a900473ffffffffffffffffffffffffffffffffffffffff1681565b6000600780549050905090565b600060016080604051908101604052808481526020016000604051908082528060200260200182016040528015610c195781602001602082028038833980820191505090505b5081526020016001815260200143815250908060018154018082558091505090600182039060005260206000209060040201600090919290919091506000820151816000019080519060200190610c71929190611890565b506020820151816001019080519060200190610c8e929190611910565b5060408201518160020155606082015181600301555050905080600260003373ffffffffffffffffffffffffffffffffffffffff1673ffffffffffffffffffffffffffffffffffffffff168152602001908152602001600020819055505050565b6000610cfa82611102565b90506000600780549050141515610d5d57610d58610d526040805190810160405280600581526020017f53656564200000000000000000000000000000000000000000000000000000008152506007805490506111a3565b82611443565b610d9d565b610d9c6040805190810160405280600681526020017f536565642030000000000000000000000000000000000000000000000000000081525082611443565b5b5050565b6000813373ffffffffffffffffffffffffffffffffffffffff166008600083815260200190815260200160002060009054906101000a900473ffffffffffffffffffffffffffffffffffffffff1673ffffffffffffffffffffffffffffffffffffffff16141515610ea0576040517f08c379a00000000000000000000000000000000000000000000000000000000081526004018080602001828103825260258152602001807f546865207365656420646f65736e27742062656c6f6e6720746f20746865207081526020017f6c6179657200000000000000000000000000000000000000000000000000000081525060400191505060405180910390fd5b600783815481101515610eaf57fe5b906000526020600020906003020191508160020160019054906101000a900460ff16158015610ef3575060008260020160009054906101000a900460ff1660ff1614155b15610f165760018260020160016101000a81548160ff0219169083151502179055505b505050565b600781815481101515610f2a57fe5b9060005260206000209060030201600091509050806000018054600181600116156101000203166002900480601f016020809104026020016040519081016040528092919081815260200182805460018160011615610100020316600290048015610fd65780601f10610fab57610100808354040283529160200191610fd6565b820191906000526020600020905b815481529060010190602001808311610fb957829003601f168201915b5050505050908060010154908060020160009054906101000a900460ff16908060020160019054906101000a900460ff16905084565b6000809054906101000a900473ffffffffffffffffffffffffffffffffffffffff1673ffffffffffffffffffffffffffffffffffffffff163373ffffffffffffffffffffffffffffffffffffffff161415156110f6576040517f08c379a00000000000000000000000000000000000000000000000000000000081526004018080602001828103825260278152602001807f4f6e6c7920746865206f776e65722063616e20706572666f726d20746869732081526020017f616374696f6e2e0000000000000000000000000000000000000000000000000081525060400191505060405180910390fd5b6110ff816116a3565b50565b60008082604051602001808281526020019150506040516020818303038152906040526040518082805190602001908083835b60208310151561115a5780518252602082019150602081019050602083039250611135565b6001836020036101000a03801982511681845116808217855250505050505090500191505060405180910390206001900490506006548181151561119a57fe5b06915050919050565b60606000806060600080606080600089975060649650866040519080825280601f01601f1916602001820160405280156111ec5781602001602082028038833980820191505090505b509550600094505b60008814151561128b57600a8881151561120a57fe5b069350600a8881151561121957fe5b049750836030017f010000000000000000000000000000000000000000000000000000000000000002868680600101975081518110151561125657fe5b9060200101907effffffffffffffffffffffffffffffffffffffffffffffffffffffffffffff1916908160001a9053506111f4565b8a9250848351016040519080825280601f01601f1916602001820160405280156112c45781602001602082028038833980820191505090505b509150600090505b82518110156113795782818151811015156112e357fe5b9060200101517f010000000000000000000000000000000000000000000000000000000000000090047f010000000000000000000000000000000000000000000000000000000000000002828281518110151561133c57fe5b9060200101907effffffffffffffffffffffffffffffffffffffffffffffffffffffffffffff1916908160001a90535080806001019150506112cc565b600090505b84811015611432578581600187030381518110151561139957fe5b9060200101517f010000000000000000000000000000000000000000000000000000000000000090047f01000000000000000000000000000000000000000000000000000000000000000282845183018151811015156113f557fe5b9060200101907effffffffffffffffffffffffffffffffffffffffffffffffffffffffffffff1916908160001a905350808060010191505061137e565b819850505050505050505092915050565b600060016007608060405190810160405280868152602001858152602001600060ff168152602001600015158152509080600181540180825580915050906001820390600052602060002090600302016000909192909190915060008201518160000190805190602001906114b9929190611890565b506020820151816001015560408201518160020160006101000a81548160ff021916908360ff16021790555060608201518160020160016101000a81548160ff0219169083151502179055505050039050336008600083815260200190815260200160002060006101000a81548173ffffffffffffffffffffffffffffffffffffffff021916908373ffffffffffffffffffffffffffffffffffffffff1602179055506115af6001600960003373ffffffffffffffffffffffffffffffffffffffff1673ffffffffffffffffffffffffffffffffffffffff1681526020019081526020016000205461180690919063ffffffff16565b600960003373ffffffffffffffffffffffffffffffffffffffff1673ffffffffffffffffffffffffffffffffffffffff168152602001908152602001600020819055507fce48bf19e08859bf5b7fbde70faeb415663b4ea48c7c5cc270eeea608901f5238184846040518084815260200180602001838152602001828103825284818151815260200191508051906020019080838360005b83811015611662578082015181840152602081019050611647565b50505050905090810190601f16801561168f5780820380516001836020036101000a031916815260200191505b5094505050505060405180910390a1505050565b600073ffffffffffffffffffffffffffffffffffffffff168173ffffffffffffffffffffffffffffffffffffffff1614151515611748576040517f08c379a00000000000000000000000000000000000000000000000000000000081526004018080602001828103825260198152602001807f54686520616464726573732063616e2774206265203078302e0000000000000081525060200191505060405180910390fd5b8073ffffffffffffffffffffffffffffffffffffffff166000809054906101000a900473ffffffffffffffffffffffffffffffffffffffff1673ffffffffffffffffffffffffffffffffffffffff167f8be0079c531659141344cd1fd0a4f28419497f9722a3daafe3b4186f6b6457e060405160405180910390a3806000806101000a81548173ffffffffffffffffffffffffffffffffffffffff021916908373ffffffffffffffffffffffffffffffffffffffff16021790555050565b6000808284019050838110151515611886576040517f08c379a00000000000000000000000000000000000000000000000000000000081526004018080602001828103825260088152602001807f4f766572666c6f7700000000000000000000000000000000000000000000000081525060200191505060405180910390fd5b8091505092915050565b828054600181600116156101000203166002900490600052602060002090601f016020900481019282601f106118d157805160ff19168380011785556118ff565b828001600101855582156118ff579182015b828111156118fe5782518255916020019190600101906118e3565b5b50905061190c919061195d565b5090565b82805482825590600052602060002090810192821561194c579160200282015b8281111561194b578251825591602001919060010190611930565b5b509050611959919061195d565b5090565b61197f91905b8082111561197b576000816000905550600101611963565b5090565b905600a165627a7a7230582062fcaefac868b515cf8c5c8c7477a71351c08b263fe79ee5b4a4d2c1da4392ea0029",
  "source": "// solium-disable linebreak-style\r\npragma solidity ^0.4.24;\r\n\r\nimport \"./EWater.sol\";\r\n\r\n\r\ncontract EHelper is EWater{\r\n\r\n    function getSeedsByOwner(address _owner) external view returns(uint[]) {\r\n        uint[] memory result = new uint[](ownedSeedsCount[_owner]);\r\n        uint counter = 0;\r\n        for (uint i = 0; i < seeds.length; i++) {\r\n            if (seedOwner[i] == _owner) {\r\n                result[counter] = i;\r\n                counter++;\r\n            }\r\n        }\r\n        return result;\r\n    }\r\n\r\n    // This is a non secure function to obtain a random number, delete if not used\r\n    uint randNonce = 0;\r\n    function randMod(uint _modulus) internal returns(uint) {\r\n        randNonce++;\r\n        return uint(keccak256(abi.encodePacked(block.number, msg.sender, randNonce))) % _modulus;\r\n    }\r\n}",
  "sourcePath": "C:\\Users\\elixs\\Documents\\GitHub\\EtherealLands\\contracts\\EHelper.sol",
  "compiler": {
    "name": "solc",
    "version": "0.4.24+commit.e67f0147.Emscripten.clang"
  },
  "schemaVersion": "2.0.1",
  "updatedAt": "2018-08-23T18:03:18.392Z"
}