{
  "contractName": "ELand",
  "abi": [
    {
      "constant": true,
      "inputs": [
        {
          "name": "",
          "type": "uint256"
        }
      ],
      "name": "seeds",
      "outputs": [
        {
          "name": "name",
          "type": "string"
        },
        {
          "name": "traits",
          "type": "uint256"
        }
      ],
      "payable": false,
      "stateMutability": "view",
      "type": "function"
    },
    {
      "anonymous": false,
      "inputs": [
        {
          "indexed": false,
          "name": "id",
          "type": "uint256"
        },
        {
          "indexed": false,
          "name": "name",
          "type": "string"
        },
        {
          "indexed": false,
          "name": "traits",
          "type": "uint256"
        }
      ],
      "name": "SeedCreated",
      "type": "event"
    },
    {
      "constant": false,
      "inputs": [
        {
          "name": "_name",
          "type": "string"
        }
      ],
      "name": "createRandomSeed",
      "outputs": [],
      "payable": false,
      "stateMutability": "nonpayable",
      "type": "function"
    }
  ],
  "bytecode": "0x60806040526010600055600054600a0a60015534801561001e57600080fd5b506104c38061002e6000396000f30060806040526004361061004c576000357c0100000000000000000000000000000000000000000000000000000000900463ffffffff168063101b92d814610051578063f0503e80146100ba575b600080fd5b34801561005d57600080fd5b506100b8600480360381019080803590602001908201803590602001908080601f0160208091040260200160405190810160405280939291908181526020018383808284378201915050505050509192919290505050610167565b005b3480156100c657600080fd5b506100e560048036038101908080359060200190929190505050610182565b6040518080602001838152602001828103825284818151815260200191508051906020019080838360005b8381101561012b578082015181840152602081019050610110565b50505050905090810190601f1680156101585780820380516001836020036101000a031916815260200191505b50935050505060405180910390f35b60006101728261024d565b905061017e82826102cf565b5050565b60028181548110151561019157fe5b9060005260206000209060020201600091509050806000018054600181600116156101000203166002900480601f01602080910402602001604051908101604052809291908181526020018280546001816001161561010002031660029004801561023d5780601f106102125761010080835404028352916020019161023d565b820191906000526020600020905b81548152906001019060200180831161022057829003601f168201915b5050505050908060010154905082565b600080826040518082805190602001908083835b6020831015156102865780518252602082019150602081019050602083039250610261565b6001836020036101000a0380198251168184511680821785525050505050509050019150506040518091039020600190049050600154818115156102c657fe5b06915050919050565b6000600160026040805190810160405280868152602001858152509080600181540180825580915050906001820390600052602060002090600202016000909192909190915060008201518160000190805190602001906103319291906103f2565b506020820151816001015550500390507fce48bf19e08859bf5b7fbde70faeb415663b4ea48c7c5cc270eeea608901f5238184846040518084815260200180602001838152602001828103825284818151815260200191508051906020019080838360005b838110156103b1578082015181840152602081019050610396565b50505050905090810190601f1680156103de5780820380516001836020036101000a031916815260200191505b5094505050505060405180910390a1505050565b828054600181600116156101000203166002900490600052602060002090601f016020900481019282601f1061043357805160ff1916838001178555610461565b82800160010185558215610461579182015b82811115610460578251825591602001919060010190610445565b5b50905061046e9190610472565b5090565b61049491905b80821115610490576000816000905550600101610478565b5090565b905600a165627a7a72305820d7fcb0e6b692cad5391ac850ced85a75b160936e12c39476de3276ec78f03bf60029",
  "source": "pragma solidity ^0.4.23;\r\n\r\n/** @title Ethereal Land. */\r\ncontract ELand {\r\n    event SeedCreated(\r\n        uint id,\r\n        string name,\r\n        uint traits\r\n    );\r\n\r\n\r\n    uint traitsDigits = 16;\r\n    uint traitsModulus = 10 ** traitsDigits;\r\n\r\n    struct Seed {\r\n        string name;\r\n        uint traits; //tipo , color, cantidad de dias necesarios para que creza, depende del tipo\r\n    }\r\n\r\n    Seed[] public seeds;\r\n\r\n    function _createSeed(string _name, uint _traits) private {\r\n        uint id = seeds.push(Seed(_name, _traits)) - 1;\r\n        emit SeedCreated(id, _name, _traits);\r\n    }\r\n\r\n    function _generateRandomTraits(string _str) private view returns (uint) {\r\n        uint rand = uint(keccak256(bytes(_str)));\r\n        return rand % traitsModulus;\r\n    }\r\n\r\n    function createRandomSeed(string _name) public {\r\n        uint randTraits = _generateRandomTraits(_name);\r\n        _createSeed(_name, randTraits);\r\n    }\r\n\r\n\r\n    //enum Seasons {SPRING, SUMMER, FALL, WINTER}\r\n\r\n    //struct Player {\r\n        //Seasons season; // = Seasons.SPRING;\r\n        //uint8 current_day\r\n\r\n\r\n    //}\r\n\r\n\r\n}",
  "sourcePath": "C:\\Users\\elixs\\Documents\\GitHub\\EtherealLands\\contracts\\ELand.sol",
  "compiler": {
    "name": "solc",
    "version": "0.4.24+commit.e67f0147.Emscripten.clang"
  },
  "schemaVersion": "2.0.1",
  "updatedAt": "2018-08-17T22:38:22.705Z"
}