{
  "contractName": "EOwnership",
  "abi": [
    {
      "constant": true,
      "inputs": [
        {
          "name": "",
          "type": "address"
        }
      ],
      "name": "ownerPlayer",
      "outputs": [
        {
          "name": "",
          "type": "uint256"
        }
      ],
      "payable": false,
      "stateMutability": "view",
      "type": "function"
    },
    {
      "constant": false,
      "inputs": [
        {
          "name": "_seedId",
          "type": "uint256"
        }
      ],
      "name": "seedPlanting",
      "outputs": [],
      "payable": false,
      "stateMutability": "nonpayable",
      "type": "function"
    },
    {
      "constant": true,
      "inputs": [
        {
          "name": "_owner",
          "type": "address"
        }
      ],
      "name": "getSeedsByOwner",
      "outputs": [
        {
          "name": "",
          "type": "uint256[]"
        }
      ],
      "payable": false,
      "stateMutability": "view",
      "type": "function"
    },
    {
      "constant": false,
      "inputs": [],
      "name": "withdraw",
      "outputs": [],
      "payable": false,
      "stateMutability": "nonpayable",
      "type": "function"
    },
    {
      "constant": false,
      "inputs": [],
      "name": "goToBedEarlier",
      "outputs": [],
      "payable": true,
      "stateMutability": "payable",
      "type": "function"
    },
    {
      "constant": true,
      "inputs": [
        {
          "name": "_seedId",
          "type": "uint256"
        }
      ],
      "name": "getType",
      "outputs": [
        {
          "name": "",
          "type": "uint256"
        }
      ],
      "payable": false,
      "stateMutability": "view",
      "type": "function"
    },
    {
      "constant": true,
      "inputs": [
        {
          "name": "_seedId",
          "type": "uint256"
        }
      ],
      "name": "getBonus",
      "outputs": [
        {
          "name": "",
          "type": "uint256"
        }
      ],
      "payable": false,
      "stateMutability": "view",
      "type": "function"
    },
    {
      "constant": false,
      "inputs": [
        {
          "name": "_fee",
          "type": "uint256"
        }
      ],
      "name": "setSleepFee",
      "outputs": [],
      "payable": false,
      "stateMutability": "nonpayable",
      "type": "function"
    },
    {
      "constant": true,
      "inputs": [
        {
          "name": "",
          "type": "uint256"
        }
      ],
      "name": "seedOwner",
      "outputs": [
        {
          "name": "",
          "type": "address"
        }
      ],
      "payable": false,
      "stateMutability": "view",
      "type": "function"
    },
    {
      "constant": false,
      "inputs": [],
      "name": "goToBed",
      "outputs": [],
      "payable": false,
      "stateMutability": "nonpayable",
      "type": "function"
    },
    {
      "constant": false,
      "inputs": [],
      "name": "renounceOwnership",
      "outputs": [],
      "payable": false,
      "stateMutability": "nonpayable",
      "type": "function"
    },
    {
      "constant": true,
      "inputs": [
        {
          "name": "",
          "type": "uint256"
        }
      ],
      "name": "daysToHarvest",
      "outputs": [
        {
          "name": "",
          "type": "uint8"
        }
      ],
      "payable": false,
      "stateMutability": "view",
      "type": "function"
    },
    {
      "constant": true,
      "inputs": [],
      "name": "owner",
      "outputs": [
        {
          "name": "",
          "type": "address"
        }
      ],
      "payable": false,
      "stateMutability": "view",
      "type": "function"
    },
    {
      "constant": true,
      "inputs": [],
      "name": "getTotalSeeds",
      "outputs": [
        {
          "name": "",
          "type": "uint256"
        }
      ],
      "payable": false,
      "stateMutability": "view",
      "type": "function"
    },
    {
      "constant": false,
      "inputs": [
        {
          "name": "_name",
          "type": "string"
        }
      ],
      "name": "createLand",
      "outputs": [],
      "payable": false,
      "stateMutability": "nonpayable",
      "type": "function"
    },
    {
      "constant": false,
      "inputs": [
        {
          "name": "_id",
          "type": "uint256"
        }
      ],
      "name": "createRandomSeed",
      "outputs": [],
      "payable": false,
      "stateMutability": "nonpayable",
      "type": "function"
    },
    {
      "constant": false,
      "inputs": [
        {
          "name": "_seedId",
          "type": "uint256"
        }
      ],
      "name": "seedWatering",
      "outputs": [],
      "payable": false,
      "stateMutability": "nonpayable",
      "type": "function"
    },
    {
      "constant": true,
      "inputs": [
        {
          "name": "",
          "type": "uint256"
        }
      ],
      "name": "seeds",
      "outputs": [
        {
          "name": "name",
          "type": "string"
        },
        {
          "name": "traits",
          "type": "uint256"
        },
        {
          "name": "remainingDays",
          "type": "uint8"
        },
        {
          "name": "isWatered",
          "type": "bool"
        }
      ],
      "payable": false,
      "stateMutability": "view",
      "type": "function"
    },
    {
      "constant": false,
      "inputs": [
        {
          "name": "_newOwner",
          "type": "address"
        }
      ],
      "name": "transferOwnership",
      "outputs": [],
      "payable": false,
      "stateMutability": "nonpayable",
      "type": "function"
    },
    {
      "constant": true,
      "inputs": [
        {
          "name": "",
          "type": "uint256"
        }
      ],
      "name": "players",
      "outputs": [
        {
          "name": "name",
          "type": "string"
        },
        {
          "name": "currentDay",
          "type": "uint256"
        },
        {
          "name": "lastBedtime",
          "type": "uint256"
        }
      ],
      "payable": false,
      "stateMutability": "view",
      "type": "function"
    },
    {
      "anonymous": false,
      "inputs": [
        {
          "indexed": true,
          "name": "_from",
          "type": "address"
        },
        {
          "indexed": true,
          "name": "_to",
          "type": "address"
        },
        {
          "indexed": true,
          "name": "_tokenId",
          "type": "uint256"
        }
      ],
      "name": "Transfer",
      "type": "event"
    },
    {
      "anonymous": false,
      "inputs": [
        {
          "indexed": true,
          "name": "_owner",
          "type": "address"
        },
        {
          "indexed": true,
          "name": "_approved",
          "type": "address"
        },
        {
          "indexed": true,
          "name": "_tokenId",
          "type": "uint256"
        }
      ],
      "name": "Approval",
      "type": "event"
    },
    {
      "anonymous": false,
      "inputs": [
        {
          "indexed": true,
          "name": "_owner",
          "type": "address"
        },
        {
          "indexed": true,
          "name": "_operator",
          "type": "address"
        },
        {
          "indexed": false,
          "name": "_approved",
          "type": "bool"
        }
      ],
      "name": "ApprovalForAll",
      "type": "event"
    },
    {
      "anonymous": false,
      "inputs": [
        {
          "indexed": false,
          "name": "id",
          "type": "uint256"
        },
        {
          "indexed": false,
          "name": "name",
          "type": "string"
        },
        {
          "indexed": false,
          "name": "traits",
          "type": "uint256"
        }
      ],
      "name": "SeedCreated",
      "type": "event"
    },
    {
      "anonymous": false,
      "inputs": [
        {
          "indexed": true,
          "name": "previousOwner",
          "type": "address"
        }
      ],
      "name": "OwnershipRenounced",
      "type": "event"
    },
    {
      "anonymous": false,
      "inputs": [
        {
          "indexed": true,
          "name": "previousOwner",
          "type": "address"
        },
        {
          "indexed": true,
          "name": "newOwner",
          "type": "address"
        }
      ],
      "name": "OwnershipTransferred",
      "type": "event"
    },
    {
      "constant": true,
      "inputs": [
        {
          "name": "_owner",
          "type": "address"
        }
      ],
      "name": "balanceOf",
      "outputs": [
        {
          "name": "",
          "type": "uint256"
        }
      ],
      "payable": false,
      "stateMutability": "view",
      "type": "function"
    },
    {
      "constant": true,
      "inputs": [
        {
          "name": "_tokenId",
          "type": "uint256"
        }
      ],
      "name": "ownerOf",
      "outputs": [
        {
          "name": "",
          "type": "address"
        }
      ],
      "payable": false,
      "stateMutability": "view",
      "type": "function"
    },
    {
      "constant": false,
      "inputs": [
        {
          "name": "_to",
          "type": "address"
        },
        {
          "name": "_tokenId",
          "type": "uint256"
        }
      ],
      "name": "approve",
      "outputs": [],
      "payable": false,
      "stateMutability": "nonpayable",
      "type": "function"
    },
    {
      "constant": true,
      "inputs": [
        {
          "name": "_tokenId",
          "type": "uint256"
        }
      ],
      "name": "getApproved",
      "outputs": [
        {
          "name": "",
          "type": "address"
        }
      ],
      "payable": false,
      "stateMutability": "view",
      "type": "function"
    },
    {
      "constant": false,
      "inputs": [
        {
          "name": "_to",
          "type": "address"
        },
        {
          "name": "_approved",
          "type": "bool"
        }
      ],
      "name": "setApprovalForAll",
      "outputs": [],
      "payable": false,
      "stateMutability": "nonpayable",
      "type": "function"
    },
    {
      "constant": true,
      "inputs": [
        {
          "name": "_owner",
          "type": "address"
        },
        {
          "name": "_operator",
          "type": "address"
        }
      ],
      "name": "isApprovedForAll",
      "outputs": [
        {
          "name": "",
          "type": "bool"
        }
      ],
      "payable": false,
      "stateMutability": "view",
      "type": "function"
    },
    {
      "constant": false,
      "inputs": [
        {
          "name": "_from",
          "type": "address"
        },
        {
          "name": "_to",
          "type": "address"
        },
        {
          "name": "_tokenId",
          "type": "uint256"
        }
      ],
      "name": "transferFrom",
      "outputs": [],
      "payable": false,
      "stateMutability": "nonpayable",
      "type": "function"
    }
  ],
  "bytecode": "0x608060405260066004556006600555600554600a0a6006556000600b5566038d7ea4c68000600c5562034bc0600d55336000806101000a81548173ffffffffffffffffffffffffffffffffffffffff021916908373ffffffffffffffffffffffffffffffffffffffff16021790555060026003600080815260200190815260200160002060006101000a81548160ff021916908360ff1602179055506002600360006001815260200190815260200160002060006101000a81548160ff021916908360ff1602179055506002600360006002815260200190815260200160002060006101000a81548160ff021916908360ff1602179055506002600360006003815260200190815260200160002060006101000a81548160ff021916908360ff1602179055506002600360006004815260200190815260200160002060006101000a81548160ff021916908360ff1602179055506002600360006005815260200190815260200160002060006101000a81548160ff021916908360ff1602179055506133a5806101906000396000f30060806040526004361061015f576000357c0100000000000000000000000000000000000000000000000000000000900463ffffffff168063081812fc14610164578063095ea7b3146101d15780630d1943701461021e57806310ff56ec1461027557806323b872dd146102a25780633c1105421461030f5780633ccfd60b146103a75780633ff3658a146103be5780634036ab78146103c85780634aa66b28146104095780634fa82fb21461044a5780635ebad701146104775780636352211e146104e4578063677aef1e1461055157806370a0823114610568578063715018a6146105bf5780637917ab05146105d65780638da5cb5b1461061d5780639d30d06314610674578063a22cb4651461069f578063b5eddba3146106ee578063bdd6296514610757578063c57dcc8314610784578063e985e9c5146107b1578063f0503e801461082c578063f2fde38b146108f1578063f71d96cb14610934575b600080fd5b34801561017057600080fd5b5061018f600480360381019080803590602001909291905050506109e8565b604051808273ffffffffffffffffffffffffffffffffffffffff1673ffffffffffffffffffffffffffffffffffffffff16815260200191505060405180910390f35b3480156101dd57600080fd5b5061021c600480360381019080803573ffffffffffffffffffffffffffffffffffffffff16906020019092919080359060200190929190505050610a25565b005b34801561022a57600080fd5b5061025f600480360381019080803573ffffffffffffffffffffffffffffffffffffffff169060200190929190505050610c62565b6040518082815260200191505060405180910390f35b34801561028157600080fd5b506102a060048036038101908080359060200190929190505050610c7a565b005b3480156102ae57600080fd5b5061030d600480360381019080803573ffffffffffffffffffffffffffffffffffffffff169060200190929190803573ffffffffffffffffffffffffffffffffffffffff16906020019092919080359060200190929190505050610e9a565b005b34801561031b57600080fd5b50610350600480360381019080803573ffffffffffffffffffffffffffffffffffffffff169060200190929190505050611087565b6040518080602001828103825283818151815260200191508051906020019060200280838360005b83811015610393578082015181840152602081019050610378565b505050509050019250505060405180910390f35b3480156103b357600080fd5b506103bc6111b9565b005b6103c6611324565b005b3480156103d457600080fd5b506103f3600480360381019080803590602001909291905050506113a9565b6040518082815260200191505060405180910390f35b34801561041557600080fd5b5061043460048036038101908080359060200190929190505050611407565b6040518082815260200191505060405180910390f35b34801561045657600080fd5b5061047560048036038101908080359060200190929190505050611468565b005b34801561048357600080fd5b506104a26004803603810190808035906020019092919050505061155c565b604051808273ffffffffffffffffffffffffffffffffffffffff1673ffffffffffffffffffffffffffffffffffffffff16815260200191505060405180910390f35b3480156104f057600080fd5b5061050f6004803603810190808035906020019092919050505061158f565b604051808273ffffffffffffffffffffffffffffffffffffffff1673ffffffffffffffffffffffffffffffffffffffff16815260200191505060405180910390f35b34801561055d57600080fd5b50610566611676565b005b34801561057457600080fd5b506105a9600480360381019080803573ffffffffffffffffffffffffffffffffffffffff169060200190929190505050611682565b6040518082815260200191505060405180910390f35b3480156105cb57600080fd5b506105d461176f565b005b3480156105e257600080fd5b5061060160048036038101908080359060200190929190505050611900565b604051808260ff1660ff16815260200191505060405180910390f35b34801561062957600080fd5b50610632611920565b604051808273ffffffffffffffffffffffffffffffffffffffff1673ffffffffffffffffffffffffffffffffffffffff16815260200191505060405180910390f35b34801561068057600080fd5b50610689611945565b6040518082815260200191505060405180910390f35b3480156106ab57600080fd5b506106ec600480360381019080803573ffffffffffffffffffffffffffffffffffffffff169060200190929190803515159060200190929190505050611952565b005b3480156106fa57600080fd5b50610755600480360381019080803590602001908201803590602001908080601f0160208091040260200160405190810160405280939291908181526020018383808284378201915050505050509192919290505050611b1d565b005b34801561076357600080fd5b5061078260048036038101908080359060200190929190505050611c47565b005b34801561079057600080fd5b506107af60048036038101908080359060200190929190505050611cf9565b005b3480156107bd57600080fd5b50610812600480360381019080803573ffffffffffffffffffffffffffffffffffffffff169060200190929190803573ffffffffffffffffffffffffffffffffffffffff169060200190929190505050611e73565b604051808215151515815260200191505060405180910390f35b34801561083857600080fd5b5061085760048036038101908080359060200190929190505050611f07565b60405180806020018581526020018460ff1660ff16815260200183151515158152602001828103825286818151815260200191508051906020019080838360005b838110156108b3578082015181840152602081019050610898565b50505050905090810190601f1680156108e05780820380516001836020036101000a031916815260200191505b509550505050505060405180910390f35b3480156108fd57600080fd5b50610932600480360381019080803573ffffffffffffffffffffffffffffffffffffffff169060200190929190505050611ff8565b005b34801561094057600080fd5b5061095f600480360381019080803590602001909291905050506120ee565b6040518080602001848152602001838152602001828103825285818151815260200191508051906020019080838360005b838110156109ab578082015181840152602081019050610990565b50505050905090810190601f1680156109d85780820380516001836020036101000a031916815260200191505b5094505050505060405180910390f35b6000600e600083815260200190815260200160002060009054906101000a900473ffffffffffffffffffffffffffffffffffffffff169050919050565b6000610a308261158f565b90508073ffffffffffffffffffffffffffffffffffffffff168373ffffffffffffffffffffffffffffffffffffffff1614151515610ad6576040517f08c379a000000000000000000000000000000000000000000000000000000000815260040180806020018281038252601e8152602001807f43616e277420617070726f7665207468652073616d652061646472657373000081525060200191505060405180910390fd5b8073ffffffffffffffffffffffffffffffffffffffff163373ffffffffffffffffffffffffffffffffffffffff161480610b165750610b158133611e73565b5b1515610bb0576040517f08c379a000000000000000000000000000000000000000000000000000000000815260040180806020018281038252602f8152602001807f5468652073656e646572206973206e65697468657220746865206f776e65722081526020017f6e6f7220616e206f70657261746f72000000000000000000000000000000000081525060400191505060405180910390fd5b82600e600084815260200190815260200160002060006101000a81548173ffffffffffffffffffffffffffffffffffffffff021916908373ffffffffffffffffffffffffffffffffffffffff160217905550818373ffffffffffffffffffffffffffffffffffffffff168273ffffffffffffffffffffffffffffffffffffffff167f8c5be1e5ebec7d5bd14f71427d1e84f3dd0314c0f7b2291e5b200ac8c7c3b92560405160405180910390a4505050565b60026020528060005260406000206000915090505481565b600080823373ffffffffffffffffffffffffffffffffffffffff166008600083815260200190815260200160002060009054906101000a900473ffffffffffffffffffffffffffffffffffffffff1673ffffffffffffffffffffffffffffffffffffffff16141515610d7a576040517f08c379a00000000000000000000000000000000000000000000000000000000081526004018080602001828103825260258152602001807f546865207365656420646f65736e27742062656c6f6e6720746f20746865207081526020017f6c6179657200000000000000000000000000000000000000000000000000000081525060400191505060405180910390fd5b600784815481101515610d8957fe5b9060005260206000209060030201925060008360020160009054906101000a900460ff1660ff161415610e9457600180600260003373ffffffffffffffffffffffffffffffffffffffff1673ffffffffffffffffffffffffffffffffffffffff1681526020019081526020016000205403815481101515610e0657fe5b90600052602060002090600402019150610e1f84611407565b60036000610e2c876113a9565b815260200190815260200160002060009054906101000a900460ff16018360020160006101000a81548160ff021916908360ff160217905550816001018490806001815401808255809150509060018203906000526020600020016000909192909190915055505b50505050565b610ea433826121bf565b1515610f3e576040517f08c379a000000000000000000000000000000000000000000000000000000000815260040180806020018281038252602f8152602001807f5468652073656e646572206973206e65697468657220746865206f776e65722081526020017f6e6f7220697320617070726f766564000000000000000000000000000000000081525060400191505060405180910390fd5b600073ffffffffffffffffffffffffffffffffffffffff168273ffffffffffffffffffffffffffffffffffffffff1614151515611009576040517f08c379a00000000000000000000000000000000000000000000000000000000081526004018080602001828103825260248152602001807f5468652064657374696e6174696f6e20616464726573732063616e277420626581526020017f203078300000000000000000000000000000000000000000000000000000000081525060400191505060405180910390fd5b6110138382612254565b61101d83826123e6565b61102782826125a4565b808273ffffffffffffffffffffffffffffffffffffffff168473ffffffffffffffffffffffffffffffffffffffff167fddf252ad1be2c89b69c2b068fc378daa952ba7f163c4a11628f55a4df523b3ef60405160405180910390a4505050565b606080600080600960008673ffffffffffffffffffffffffffffffffffffffff1673ffffffffffffffffffffffffffffffffffffffff168152602001908152602001600020546040519080825280602002602001820160405280156110fb5781602001602082028038833980820191505090505b50925060009150600090505b6007805490508110156111ae578473ffffffffffffffffffffffffffffffffffffffff166008600083815260200190815260200160002060009054906101000a900473ffffffffffffffffffffffffffffffffffffffff1673ffffffffffffffffffffffffffffffffffffffff1614156111a15780838381518110151561118a57fe5b906020019060200201818152505081806001019250505b8080600101915050611107565b829350505050919050565b6000809054906101000a900473ffffffffffffffffffffffffffffffffffffffff1673ffffffffffffffffffffffffffffffffffffffff163373ffffffffffffffffffffffffffffffffffffffff161415156112a3576040517f08c379a00000000000000000000000000000000000000000000000000000000081526004018080602001828103825260278152602001807f4f6e6c7920746865206f776e65722063616e20706572666f726d20746869732081526020017f616374696f6e2e0000000000000000000000000000000000000000000000000081525060400191505060405180910390fd5b6000809054906101000a900473ffffffffffffffffffffffffffffffffffffffff1673ffffffffffffffffffffffffffffffffffffffff166108fc3073ffffffffffffffffffffffffffffffffffffffff16319081150290604051600060405180830381858888f19350505050158015611321573d6000803e3d6000fd5b50565b600c543414151561139d576040517f08c379a000000000000000000000000000000000000000000000000000000000815260040180806020018281038252601b8152602001807f5468652065746865722073656e742069736e277420656e6f756768000000000081525060200191505060405180910390fd5b6113a76001612767565b565b60008060006007848154811015156113bd57fe5b906000526020600020906003020191506103e882600101548115156113de57fe5b0490506064818115156113ed57fe5b069050600454818115156113fd57fe5b0692505050919050565b600080600060078481548110151561141b57fe5b90600052602060002090600302019150620186a0826001015481151561143d57fe5b049050600a8181151561144c57fe5b069050600160038281151561145d57fe5b060392505050919050565b6000809054906101000a900473ffffffffffffffffffffffffffffffffffffffff1673ffffffffffffffffffffffffffffffffffffffff163373ffffffffffffffffffffffffffffffffffffffff16141515611552576040517f08c379a00000000000000000000000000000000000000000000000000000000081526004018080602001828103825260278152602001807f4f6e6c7920746865206f776e65722063616e20706572666f726d20746869732081526020017f616374696f6e2e0000000000000000000000000000000000000000000000000081525060400191505060405180910390fd5b80600c8190555050565b60086020528060005260406000206000915054906101000a900473ffffffffffffffffffffffffffffffffffffffff1681565b6000806008600084815260200190815260200160002060009054906101000a900473ffffffffffffffffffffffffffffffffffffffff169050600073ffffffffffffffffffffffffffffffffffffffff168173ffffffffffffffffffffffffffffffffffffffff161415151561166d576040517f08c379a000000000000000000000000000000000000000000000000000000000815260040180806020018281038252601e8152602001807f546865206f776e657220616464726573732063616e277420626520307830000081525060200191505060405180910390fd5b80915050919050565b6116806000612767565b565b60008073ffffffffffffffffffffffffffffffffffffffff168273ffffffffffffffffffffffffffffffffffffffff1614151515611728576040517f08c379a000000000000000000000000000000000000000000000000000000000815260040180806020018281038252601e8152602001807f546865206f776e657220616464726573732063616e277420626520307830000081525060200191505060405180910390fd5b600960008373ffffffffffffffffffffffffffffffffffffffff1673ffffffffffffffffffffffffffffffffffffffff168152602001908152602001600020549050919050565b6000809054906101000a900473ffffffffffffffffffffffffffffffffffffffff1673ffffffffffffffffffffffffffffffffffffffff163373ffffffffffffffffffffffffffffffffffffffff16141515611859576040517f08c379a00000000000000000000000000000000000000000000000000000000081526004018080602001828103825260278152602001807f4f6e6c7920746865206f776e65722063616e20706572666f726d20746869732081526020017f616374696f6e2e0000000000000000000000000000000000000000000000000081525060400191505060405180910390fd5b6000809054906101000a900473ffffffffffffffffffffffffffffffffffffffff1673ffffffffffffffffffffffffffffffffffffffff167ff8df31144d9c2f0f6b59d69b8b98abd5459d07f2742c4df920b25aae33c6482060405160405180910390a260008060006101000a81548173ffffffffffffffffffffffffffffffffffffffff021916908373ffffffffffffffffffffffffffffffffffffffff160217905550565b60036020528060005260406000206000915054906101000a900460ff1681565b6000809054906101000a900473ffffffffffffffffffffffffffffffffffffffff1681565b6000600780549050905090565b3373ffffffffffffffffffffffffffffffffffffffff168273ffffffffffffffffffffffffffffffffffffffff1614151515611a1c576040517f08c379a00000000000000000000000000000000000000000000000000000000081526004018080602001828103825260248152602001807f416e20616464726573732063616e277420626520686973206f776e206f70657281526020017f61746f720000000000000000000000000000000000000000000000000000000081525060400191505060405180910390fd5b80600f60003373ffffffffffffffffffffffffffffffffffffffff1673ffffffffffffffffffffffffffffffffffffffff16815260200190815260200160002060008473ffffffffffffffffffffffffffffffffffffffff1673ffffffffffffffffffffffffffffffffffffffff16815260200190815260200160002060006101000a81548160ff0219169083151502179055508173ffffffffffffffffffffffffffffffffffffffff163373ffffffffffffffffffffffffffffffffffffffff167f17307eab39ab6107e8899845ad3d59bd9653f200f220920489ca2b5937696c3183604051808215151515815260200191505060405180910390a35050565b600060016080604051908101604052808481526020016000604051908082528060200260200182016040528015611b635781602001602082028038833980820191505090505b5081526020016001815260200143815250908060018154018082558091505090600182039060005260206000209060040201600090919290919091506000820151816000019080519060200190611bbb929190613287565b506020820151816001019080519060200190611bd8929190613307565b5060408201518160020155606082015181600301555050905080600260003373ffffffffffffffffffffffffffffffffffffffff1673ffffffffffffffffffffffffffffffffffffffff16815260200190815260200160002081905550611c43600780549050611c47565b5050565b6000611c5282612a4e565b90506000600780549050141515611cb557611cb0611caa6040805190810160405280600581526020017f5365656420000000000000000000000000000000000000000000000000000000815250600780549050612aef565b82612d8f565b611cf5565b611cf46040805190810160405280600681526020017f536565642030000000000000000000000000000000000000000000000000000081525082612d8f565b5b5050565b6000813373ffffffffffffffffffffffffffffffffffffffff166008600083815260200190815260200160002060009054906101000a900473ffffffffffffffffffffffffffffffffffffffff1673ffffffffffffffffffffffffffffffffffffffff16141515611df8576040517f08c379a00000000000000000000000000000000000000000000000000000000081526004018080602001828103825260258152602001807f546865207365656420646f65736e27742062656c6f6e6720746f20746865207081526020017f6c6179657200000000000000000000000000000000000000000000000000000081525060400191505060405180910390fd5b600783815481101515611e0757fe5b906000526020600020906003020191508160020160019054906101000a900460ff16158015611e4b575060008260020160009054906101000a900460ff1660ff1614155b15611e6e5760018260020160016101000a81548160ff0219169083151502179055505b505050565b6000600f60008473ffffffffffffffffffffffffffffffffffffffff1673ffffffffffffffffffffffffffffffffffffffff16815260200190815260200160002060008373ffffffffffffffffffffffffffffffffffffffff1673ffffffffffffffffffffffffffffffffffffffff16815260200190815260200160002060009054906101000a900460ff16905092915050565b600781815481101515611f1657fe5b9060005260206000209060030201600091509050806000018054600181600116156101000203166002900480601f016020809104026020016040519081016040528092919081815260200182805460018160011615610100020316600290048015611fc25780601f10611f9757610100808354040283529160200191611fc2565b820191906000526020600020905b815481529060010190602001808311611fa557829003601f168201915b5050505050908060010154908060020160009054906101000a900460ff16908060020160019054906101000a900460ff16905084565b6000809054906101000a900473ffffffffffffffffffffffffffffffffffffffff1673ffffffffffffffffffffffffffffffffffffffff163373ffffffffffffffffffffffffffffffffffffffff161415156120e2576040517f08c379a00000000000000000000000000000000000000000000000000000000081526004018080602001828103825260278152602001807f4f6e6c7920746865206f776e65722063616e20706572666f726d20746869732081526020017f616374696f6e2e0000000000000000000000000000000000000000000000000081525060400191505060405180910390fd5b6120eb81612fef565b50565b6001818154811015156120fd57fe5b9060005260206000209060040201600091509050806000018054600181600116156101000203166002900480601f0160208091040260200160405190810160405280929190818152602001828054600181600116156101000203166002900480156121a95780601f1061217e576101008083540402835291602001916121a9565b820191906000526020600020905b81548152906001019060200180831161218c57829003601f168201915b5050505050908060020154908060030154905083565b6000806121cb8361158f565b90508073ffffffffffffffffffffffffffffffffffffffff168473ffffffffffffffffffffffffffffffffffffffff16148061223a57508373ffffffffffffffffffffffffffffffffffffffff16612222846109e8565b73ffffffffffffffffffffffffffffffffffffffff16145b8061224b575061224a8185611e73565b5b91505092915050565b8173ffffffffffffffffffffffffffffffffffffffff166122748261158f565b73ffffffffffffffffffffffffffffffffffffffff16141515612325576040517f08c379a00000000000000000000000000000000000000000000000000000000081526004018080602001828103825260248152602001807f54686520676976656e206f776e657220646f65736e2774206f776e207468652081526020017f736565640000000000000000000000000000000000000000000000000000000081525060400191505060405180910390fd5b600073ffffffffffffffffffffffffffffffffffffffff16600e600083815260200190815260200160002060009054906101000a900473ffffffffffffffffffffffffffffffffffffffff1673ffffffffffffffffffffffffffffffffffffffff161415156123e2576000600e600083815260200190815260200160002060006101000a81548173ffffffffffffffffffffffffffffffffffffffff021916908373ffffffffffffffffffffffffffffffffffffffff1602179055505b5050565b8173ffffffffffffffffffffffffffffffffffffffff166124068261158f565b73ffffffffffffffffffffffffffffffffffffffff161415156124b7576040517f08c379a000000000000000000000000000000000000000000000000000000000815260040180806020018281038252602b8152602001807f546865207365656420646f65736e27742062656c6f6e6720746f20746865206781526020017f697665206164647265737300000000000000000000000000000000000000000081525060400191505060405180910390fd5b61250a6001600960008573ffffffffffffffffffffffffffffffffffffffff1673ffffffffffffffffffffffffffffffffffffffff1681526020019081526020016000205461315290919063ffffffff16565b600960008473ffffffffffffffffffffffffffffffffffffffff1673ffffffffffffffffffffffffffffffffffffffff1681526020019081526020016000208190555060006008600083815260200190815260200160002060006101000a81548173ffffffffffffffffffffffffffffffffffffffff021916908373ffffffffffffffffffffffffffffffffffffffff1602179055505050565b600073ffffffffffffffffffffffffffffffffffffffff166008600083815260200190815260200160002060009054906101000a900473ffffffffffffffffffffffffffffffffffffffff1673ffffffffffffffffffffffffffffffffffffffff1614151561267b576040517f08c379a000000000000000000000000000000000000000000000000000000000815260040180806020018281038252601d8152602001807f54686520736565642068617320612070726576696f7573206f776e657200000081525060200191505060405180910390fd5b816008600083815260200190815260200160002060006101000a81548173ffffffffffffffffffffffffffffffffffffffff021916908373ffffffffffffffffffffffffffffffffffffffff1602179055506127206001600960008573ffffffffffffffffffffffffffffffffffffffff1673ffffffffffffffffffffffffffffffffffffffff168152602001908152602001600020546131dc90919063ffffffff16565b600960008473ffffffffffffffffffffffffffffffffffffffff1673ffffffffffffffffffffffffffffffffffffffff168152602001908152602001600020819055505050565b600080600080600260003373ffffffffffffffffffffffffffffffffffffffff1673ffffffffffffffffffffffffffffffffffffffff168152602001908152602001600020549350600084141515612a475760018085038154811015156127ca57fe5b90600052602060002090600402019250841515612885576127ea83613266565b1515612884576040517f08c379a00000000000000000000000000000000000000000000000000000000081526004018080602001828103825260248152602001807f4861736e2774207061737320656e6f7567682074696d6520746f20676f20746f81526020017f206265640000000000000000000000000000000000000000000000000000000081525060400191505060405180910390fd5b5b61288e8361327b565b600091505b8260010180549050821015612a2657600783600101838154811015156128b557fe5b90600052602060002001548154811015156128cc57fe5b906000526020600020906003020190508060020160019054906101000a900460ff1615612a1b5760008160020160016101000a81548160ff02191690831515021790555080600201600081819054906101000a900460ff166001900391906101000a81548160ff021916908360ff16021790555060008160020160009054906101000a900460ff1660ff161415612a1a5782600101600184600101805490500381548110151561297857fe5b9060005260206000200154836001018381548110151561299457fe5b90600052602060002001819055508260010160018460010180549050038154811015156129bd57fe5b9060005260206000200160009055612a19600960003373ffffffffffffffffffffffffffffffffffffffff1673ffffffffffffffffffffffffffffffffffffffff16815260200190815260200160002054826001015401611c47565b5b5b816001019150612893565b612a3e600184600201546131dc90919063ffffffff16565b83600201819055505b5050505050565b60008082604051602001808281526020019150506040516020818303038152906040526040518082805190602001908083835b602083101515612aa65780518252602082019150602081019050602083039250612a81565b6001836020036101000a038019825116818451168082178552505050505050905001915050604051809103902060019004905060065481811515612ae657fe5b06915050919050565b60606000806060600080606080600089975060649650866040519080825280601f01601f191660200182016040528015612b385781602001602082028038833980820191505090505b509550600094505b600088141515612bd757600a88811515612b5657fe5b069350600a88811515612b6557fe5b049750836030017f0100000000000000000000000000000000000000000000000000000000000000028686806001019750815181101515612ba257fe5b9060200101907effffffffffffffffffffffffffffffffffffffffffffffffffffffffffffff1916908160001a905350612b40565b8a9250848351016040519080825280601f01601f191660200182016040528015612c105781602001602082028038833980820191505090505b509150600090505b8251811015612cc5578281815181101515612c2f57fe5b9060200101517f010000000000000000000000000000000000000000000000000000000000000090047f0100000000000000000000000000000000000000000000000000000000000000028282815181101515612c8857fe5b9060200101907effffffffffffffffffffffffffffffffffffffffffffffffffffffffffffff1916908160001a9053508080600101915050612c18565b600090505b84811015612d7e5785816001870303815181101515612ce557fe5b9060200101517f010000000000000000000000000000000000000000000000000000000000000090047f0100000000000000000000000000000000000000000000000000000000000000028284518301815181101515612d4157fe5b9060200101907effffffffffffffffffffffffffffffffffffffffffffffffffffffffffffff1916908160001a9053508080600101915050612cca565b819850505050505050505092915050565b600060016007608060405190810160405280868152602001858152602001600060ff16815260200160001515815250908060018154018082558091505090600182039060005260206000209060030201600090919290919091506000820151816000019080519060200190612e05929190613287565b506020820151816001015560408201518160020160006101000a81548160ff021916908360ff16021790555060608201518160020160016101000a81548160ff0219169083151502179055505050039050336008600083815260200190815260200160002060006101000a81548173ffffffffffffffffffffffffffffffffffffffff021916908373ffffffffffffffffffffffffffffffffffffffff160217905550612efb6001600960003373ffffffffffffffffffffffffffffffffffffffff1673ffffffffffffffffffffffffffffffffffffffff168152602001908152602001600020546131dc90919063ffffffff16565b600960003373ffffffffffffffffffffffffffffffffffffffff1673ffffffffffffffffffffffffffffffffffffffff168152602001908152602001600020819055507fce48bf19e08859bf5b7fbde70faeb415663b4ea48c7c5cc270eeea608901f5238184846040518084815260200180602001838152602001828103825284818151815260200191508051906020019080838360005b83811015612fae578082015181840152602081019050612f93565b50505050905090810190601f168015612fdb5780820380516001836020036101000a031916815260200191505b5094505050505060405180910390a1505050565b600073ffffffffffffffffffffffffffffffffffffffff168173ffffffffffffffffffffffffffffffffffffffff1614151515613094576040517f08c379a00000000000000000000000000000000000000000000000000000000081526004018080602001828103825260198152602001807f54686520616464726573732063616e2774206265203078302e0000000000000081525060200191505060405180910390fd5b8073ffffffffffffffffffffffffffffffffffffffff166000809054906101000a900473ffffffffffffffffffffffffffffffffffffffff1673ffffffffffffffffffffffffffffffffffffffff167f8be0079c531659141344cd1fd0a4f28419497f9722a3daafe3b4186f6b6457e060405160405180910390a3806000806101000a81548173ffffffffffffffffffffffffffffffffffffffff021916908373ffffffffffffffffffffffffffffffffffffffff16021790555050565b6000808383111515156131cd576040517f08c379a00000000000000000000000000000000000000000000000000000000081526004018080602001828103825260098152602001807f556e646572666c6f77000000000000000000000000000000000000000000000081525060200191505060405180910390fd5b82840390508091505092915050565b600080828401905083811015151561325c576040517f08c379a00000000000000000000000000000000000000000000000000000000081526004018080602001828103825260088152602001807f4f766572666c6f7700000000000000000000000000000000000000000000000081525060200191505060405180910390fd5b8091505092915050565b6000600d548260030154430310159050919050565b43816003018190555050565b828054600181600116156101000203166002900490600052602060002090601f016020900481019282601f106132c857805160ff19168380011785556132f6565b828001600101855582156132f6579182015b828111156132f55782518255916020019190600101906132da565b5b5090506133039190613354565b5090565b828054828255906000526020600020908101928215613343579160200282015b82811115613342578251825591602001919060010190613327565b5b5090506133509190613354565b5090565b61337691905b8082111561337257600081600090555060010161335a565b5090565b905600a165627a7a72305820e20b096f413e67fd897b1a955fde166425153380e4892a724b436e5e20144d650029",
  "source": "// solium-disable linebreak-style\r\npragma solidity ^0.4.24;\r\n\r\nimport \"./ESleep.sol\";\r\n// import \"./ERC721.sol\";\r\nimport \"./ERC721Basic.sol\";\r\n\r\n\r\ncontract EOwnership is ESleep, ERC721Basic {\r\n\r\n    mapping (uint => address) seedApprovals;\r\n    mapping (address => mapping (address => bool)) internal seedOperatorApprovals;\r\n    \r\n    /**\r\n    * @dev Gets the balance of the specified address\r\n    * @param _owner address to query the balance of\r\n    * @return uint256 representing the amount owned by the passed address\r\n    */\r\n    function balanceOf(address _owner) public view returns (uint256) {\r\n        require(_owner != address(0), \"The owner address can't be 0x0\");\r\n        return ownedSeedsCount[_owner];\r\n    }\r\n\r\n    /**\r\n    * @dev Gets the owner of the specified token ID\r\n    * @param _tokenId uint256 ID of the token to query the owner of\r\n    * @return owner address currently marked as the owner of the given token ID\r\n    */\r\n    function ownerOf(uint256 _tokenId) public view returns (address) {\r\n        address owner = seedOwner[_tokenId];\r\n        require(owner != address(0), \"The owner address can't be 0x0\");\r\n        return owner;\r\n    }\r\n\r\n    /**\r\n    * @dev Approves another address to transfer the given token ID\r\n    * The zero address indicates there is no approved address.\r\n    * There can only be one approved address per token at a given time.\r\n    * Can only be called by the token owner or an approved operator.\r\n    * @param _to address to be approved for the given token ID\r\n    * @param _tokenId uint256 ID of the token to be approved\r\n    */\r\n    function approve(address _to, uint256 _tokenId) public {\r\n        address owner = ownerOf(_tokenId);\r\n        require(_to != owner, \"Can't approve the same address\");\r\n        require(msg.sender == owner || isApprovedForAll(owner, msg.sender), \"The sender is neither the owner nor an operator\");\r\n\r\n        seedApprovals[_tokenId] = _to;\r\n        emit Approval(owner, _to, _tokenId);\r\n    }\r\n\r\n    /**\r\n    * @dev Gets the approved address for a token ID, or zero if no address set\r\n    * @param _tokenId uint256 ID of the token to query the approval of\r\n    * @return address currently approved for the given token ID\r\n    */\r\n    function getApproved(uint256 _tokenId) public view returns (address) {\r\n        return seedApprovals[_tokenId];\r\n    }\r\n\r\n    /**\r\n    * @dev Sets or unsets the approval of a given operator\r\n    * An operator is allowed to transfer all tokens of the sender on their behalf\r\n    * @param _to operator address to set the approval\r\n    * @param _approved representing the status of the approval to be set\r\n    */\r\n    function setApprovalForAll(address _to, bool _approved) public {\r\n        require(_to != msg.sender, \"An address can't be his own operator\");\r\n        seedOperatorApprovals[msg.sender][_to] = _approved;\r\n        emit ApprovalForAll(msg.sender, _to, _approved);\r\n    }\r\n\r\n    /**\r\n    * @dev Tells whether an operator is approved by a given owner\r\n    * @param _owner owner address which you want to query the approval of\r\n    * @param _operator operator address which you want to query the approval of\r\n    * @return bool whether the given operator is approved by the given owner\r\n    */\r\n    function isApprovedForAll(\r\n        address _owner,\r\n        address _operator\r\n    )\r\n        public\r\n        view\r\n        returns (bool)\r\n    {\r\n        return seedOperatorApprovals[_owner][_operator];\r\n    }\r\n\r\n    /**\r\n    * @dev Transfers the ownership of a given token ID to another address\r\n    * Usage of this method is discouraged, use `safeTransferFrom` whenever possible\r\n    * Requires the msg sender to be the owner, approved, or operator\r\n    * @param _from current owner of the token\r\n    * @param _to address to receive the ownership of the given token ID\r\n    * @param _tokenId uint256 ID of the token to be transferred\r\n    */\r\n    function transferFrom(\r\n        address _from,\r\n        address _to,\r\n        uint256 _tokenId\r\n        )\r\n        public\r\n        {\r\n        require(isApprovedOrOwner(msg.sender, _tokenId), \"The sender is neither the owner nor is approved\");\r\n        require(_to != address(0), \"The destination address can't be 0x0\");\r\n\r\n        clearApproval(_from, _tokenId);\r\n        removeTokenFrom(_from, _tokenId);\r\n        addTokenTo(_to, _tokenId);\r\n\r\n        emit Transfer(_from, _to, _tokenId);\r\n    }\r\n\r\n    /**\r\n    * @dev Returns whether the given spender can transfer a given token ID\r\n    * @param _spender address of the spender to query\r\n    * @param _tokenId uint256 ID of the token to be transferred\r\n    * @return bool whether the msg.sender is approved for the given token ID,\r\n    *  is an operator of the owner, or is the owner of the token\r\n    */\r\n    function isApprovedOrOwner(\r\n        address _spender,\r\n        uint256 _tokenId\r\n    )\r\n        internal\r\n        view\r\n        returns (bool)\r\n    {\r\n        address owner = ownerOf(_tokenId);\r\n        // Disable solium check because of\r\n        // https://github.com/duaraghav8/Solium/issues/175\r\n        // solium-disable-next-line operator-whitespace\r\n        return (\r\n            _spender == owner ||\r\n            getApproved(_tokenId) == _spender ||\r\n            isApprovedForAll(owner, _spender)\r\n        );\r\n    }\r\n\r\n    /**\r\n    * @dev Internal function to clear current approval of a given token ID\r\n    * Reverts if the given address is not indeed the owner of the token\r\n    * @param _owner owner of the token\r\n    * @param _tokenId uint256 ID of the token to be transferred\r\n    */\r\n    function clearApproval(address _owner, uint256 _tokenId) internal {\r\n        require(ownerOf(_tokenId) == _owner, \"The given owner doesn't own the seed\");\r\n        if (seedApprovals[_tokenId] != address(0)) {\r\n            seedApprovals[_tokenId] = address(0);\r\n        }\r\n    }\r\n\r\n    /**\r\n    * @dev Internal function to add a token ID to the list of a given address\r\n    * @param _to address representing the new owner of the given token ID\r\n    * @param _tokenId uint256 ID of the token to be added to the tokens list of the given address\r\n    */\r\n    function addTokenTo(address _to, uint256 _tokenId) internal {\r\n        require(seedOwner[_tokenId] == address(0), \"The seed has a previous owner\");\r\n        seedOwner[_tokenId] = _to;\r\n        ownedSeedsCount[_to] = ownedSeedsCount[_to].add(1);\r\n    }\r\n\r\n    /**\r\n    * @dev Internal function to remove a token ID from the list of a given address\r\n    * @param _from address representing the previous owner of the given token ID\r\n    * @param _tokenId uint256 ID of the token to be removed from the tokens list of the given address\r\n    */\r\n    function removeTokenFrom(address _from, uint256 _tokenId) internal {\r\n        require(ownerOf(_tokenId) == _from, \"The seed doesn't belong to the give address\");\r\n        ownedSeedsCount[_from] = ownedSeedsCount[_from].sub(1);\r\n        seedOwner[_tokenId] = address(0);\r\n    }\r\n}",
  "sourcePath": "D:\\Solidity\\EtherealLands\\contracts\\EOwnership.sol",
  "compiler": {
    "name": "solc",
    "version": "0.4.24+commit.e67f0147.Emscripten.clang"
  },
  "schemaVersion": "2.0.1",
  "updatedAt": "2018-08-24T08:50:26.810Z"
}