{
  "contractName": "EOwnership",
  "abi": [
    {
      "constant": false,
      "inputs": [
        {
          "name": "_seedId",
          "type": "uint256"
        }
      ],
      "name": "seedPlanting",
      "outputs": [],
      "payable": false,
      "stateMutability": "nonpayable",
      "type": "function"
    },
    {
      "constant": true,
      "inputs": [
        {
          "name": "_owner",
          "type": "address"
        }
      ],
      "name": "getSeedsByOwner",
      "outputs": [
        {
          "name": "",
          "type": "uint256[]"
        }
      ],
      "payable": false,
      "stateMutability": "view",
      "type": "function"
    },
    {
      "constant": true,
      "inputs": [
        {
          "name": "",
          "type": "address"
        }
      ],
      "name": "ownerToPlayer",
      "outputs": [
        {
          "name": "",
          "type": "uint256"
        }
      ],
      "payable": false,
      "stateMutability": "view",
      "type": "function"
    },
    {
      "constant": false,
      "inputs": [],
      "name": "withdraw",
      "outputs": [],
      "payable": false,
      "stateMutability": "nonpayable",
      "type": "function"
    },
    {
      "constant": false,
      "inputs": [],
      "name": "goToBedEarlier",
      "outputs": [],
      "payable": true,
      "stateMutability": "payable",
      "type": "function"
    },
    {
      "constant": true,
      "inputs": [
        {
          "name": "_seedId",
          "type": "uint256"
        }
      ],
      "name": "getType",
      "outputs": [
        {
          "name": "",
          "type": "uint256"
        }
      ],
      "payable": false,
      "stateMutability": "view",
      "type": "function"
    },
    {
      "constant": true,
      "inputs": [
        {
          "name": "_seedId",
          "type": "uint256"
        }
      ],
      "name": "getBonus",
      "outputs": [
        {
          "name": "",
          "type": "uint256"
        }
      ],
      "payable": false,
      "stateMutability": "view",
      "type": "function"
    },
    {
      "constant": false,
      "inputs": [
        {
          "name": "_fee",
          "type": "uint256"
        }
      ],
      "name": "setSleepFee",
      "outputs": [],
      "payable": false,
      "stateMutability": "nonpayable",
      "type": "function"
    },
    {
      "constant": true,
      "inputs": [
        {
          "name": "",
          "type": "uint256"
        }
      ],
      "name": "seedOwner",
      "outputs": [
        {
          "name": "",
          "type": "address"
        }
      ],
      "payable": false,
      "stateMutability": "view",
      "type": "function"
    },
    {
      "constant": false,
      "inputs": [],
      "name": "goToBed",
      "outputs": [],
      "payable": false,
      "stateMutability": "nonpayable",
      "type": "function"
    },
    {
      "constant": false,
      "inputs": [],
      "name": "renounceOwnership",
      "outputs": [],
      "payable": false,
      "stateMutability": "nonpayable",
      "type": "function"
    },
    {
      "constant": true,
      "inputs": [
        {
          "name": "",
          "type": "uint256"
        }
      ],
      "name": "daysToHarvest",
      "outputs": [
        {
          "name": "",
          "type": "uint8"
        }
      ],
      "payable": false,
      "stateMutability": "view",
      "type": "function"
    },
    {
      "constant": true,
      "inputs": [],
      "name": "owner",
      "outputs": [
        {
          "name": "",
          "type": "address"
        }
      ],
      "payable": false,
      "stateMutability": "view",
      "type": "function"
    },
    {
      "constant": true,
      "inputs": [],
      "name": "getTotalSeeds",
      "outputs": [
        {
          "name": "",
          "type": "uint256"
        }
      ],
      "payable": false,
      "stateMutability": "view",
      "type": "function"
    },
    {
      "constant": false,
      "inputs": [
        {
          "name": "_name",
          "type": "string"
        }
      ],
      "name": "createLand",
      "outputs": [],
      "payable": false,
      "stateMutability": "nonpayable",
      "type": "function"
    },
    {
      "constant": false,
      "inputs": [
        {
          "name": "_id",
          "type": "uint256"
        }
      ],
      "name": "createRandomSeed",
      "outputs": [],
      "payable": false,
      "stateMutability": "nonpayable",
      "type": "function"
    },
    {
      "constant": false,
      "inputs": [
        {
          "name": "_seedId",
          "type": "uint256"
        }
      ],
      "name": "seedWatering",
      "outputs": [],
      "payable": false,
      "stateMutability": "nonpayable",
      "type": "function"
    },
    {
      "constant": true,
      "inputs": [
        {
          "name": "",
          "type": "uint256"
        }
      ],
      "name": "seeds",
      "outputs": [
        {
          "name": "name",
          "type": "string"
        },
        {
          "name": "traits",
          "type": "uint256"
        },
        {
          "name": "remainingDays",
          "type": "uint8"
        },
        {
          "name": "isWatered",
          "type": "bool"
        }
      ],
      "payable": false,
      "stateMutability": "view",
      "type": "function"
    },
    {
      "constant": false,
      "inputs": [
        {
          "name": "_newOwner",
          "type": "address"
        }
      ],
      "name": "transferOwnership",
      "outputs": [],
      "payable": false,
      "stateMutability": "nonpayable",
      "type": "function"
    },
    {
      "anonymous": false,
      "inputs": [
        {
          "indexed": true,
          "name": "_from",
          "type": "address"
        },
        {
          "indexed": true,
          "name": "_to",
          "type": "address"
        },
        {
          "indexed": true,
          "name": "_tokenId",
          "type": "uint256"
        }
      ],
      "name": "Transfer",
      "type": "event"
    },
    {
      "anonymous": false,
      "inputs": [
        {
          "indexed": true,
          "name": "_owner",
          "type": "address"
        },
        {
          "indexed": true,
          "name": "_approved",
          "type": "address"
        },
        {
          "indexed": true,
          "name": "_tokenId",
          "type": "uint256"
        }
      ],
      "name": "Approval",
      "type": "event"
    },
    {
      "anonymous": false,
      "inputs": [
        {
          "indexed": true,
          "name": "_owner",
          "type": "address"
        },
        {
          "indexed": true,
          "name": "_operator",
          "type": "address"
        },
        {
          "indexed": false,
          "name": "_approved",
          "type": "bool"
        }
      ],
      "name": "ApprovalForAll",
      "type": "event"
    },
    {
      "anonymous": false,
      "inputs": [
        {
          "indexed": false,
          "name": "id",
          "type": "uint256"
        },
        {
          "indexed": false,
          "name": "name",
          "type": "string"
        },
        {
          "indexed": false,
          "name": "traits",
          "type": "uint256"
        }
      ],
      "name": "SeedCreated",
      "type": "event"
    },
    {
      "anonymous": false,
      "inputs": [
        {
          "indexed": true,
          "name": "previousOwner",
          "type": "address"
        }
      ],
      "name": "OwnershipRenounced",
      "type": "event"
    },
    {
      "anonymous": false,
      "inputs": [
        {
          "indexed": true,
          "name": "previousOwner",
          "type": "address"
        },
        {
          "indexed": true,
          "name": "newOwner",
          "type": "address"
        }
      ],
      "name": "OwnershipTransferred",
      "type": "event"
    },
    {
      "constant": true,
      "inputs": [
        {
          "name": "_owner",
          "type": "address"
        }
      ],
      "name": "balanceOf",
      "outputs": [
        {
          "name": "",
          "type": "uint256"
        }
      ],
      "payable": false,
      "stateMutability": "view",
      "type": "function"
    },
    {
      "constant": true,
      "inputs": [
        {
          "name": "_tokenId",
          "type": "uint256"
        }
      ],
      "name": "ownerOf",
      "outputs": [
        {
          "name": "",
          "type": "address"
        }
      ],
      "payable": false,
      "stateMutability": "view",
      "type": "function"
    },
    {
      "constant": false,
      "inputs": [
        {
          "name": "_to",
          "type": "address"
        },
        {
          "name": "_tokenId",
          "type": "uint256"
        }
      ],
      "name": "approve",
      "outputs": [],
      "payable": false,
      "stateMutability": "nonpayable",
      "type": "function"
    },
    {
      "constant": true,
      "inputs": [
        {
          "name": "_tokenId",
          "type": "uint256"
        }
      ],
      "name": "getApproved",
      "outputs": [
        {
          "name": "",
          "type": "address"
        }
      ],
      "payable": false,
      "stateMutability": "view",
      "type": "function"
    },
    {
      "constant": false,
      "inputs": [
        {
          "name": "_to",
          "type": "address"
        },
        {
          "name": "_approved",
          "type": "bool"
        }
      ],
      "name": "setApprovalForAll",
      "outputs": [],
      "payable": false,
      "stateMutability": "nonpayable",
      "type": "function"
    },
    {
      "constant": true,
      "inputs": [
        {
          "name": "_owner",
          "type": "address"
        },
        {
          "name": "_operator",
          "type": "address"
        }
      ],
      "name": "isApprovedForAll",
      "outputs": [
        {
          "name": "",
          "type": "bool"
        }
      ],
      "payable": false,
      "stateMutability": "view",
      "type": "function"
    },
    {
      "constant": false,
      "inputs": [
        {
          "name": "_from",
          "type": "address"
        },
        {
          "name": "_to",
          "type": "address"
        },
        {
          "name": "_tokenId",
          "type": "uint256"
        }
      ],
      "name": "transferFrom",
      "outputs": [],
      "payable": false,
      "stateMutability": "nonpayable",
      "type": "function"
    }
  ],
  "bytecode": "0x608060405260066004556006600555600554600a0a6006556000600b5566038d7ea4c68000600c5562034bc0600d55336000806101000a81548173ffffffffffffffffffffffffffffffffffffffff021916908373ffffffffffffffffffffffffffffffffffffffff16021790555060056003600080815260200190815260200160002060006101000a81548160ff021916908360ff1602179055506008600360006001815260200190815260200160002060006101000a81548160ff021916908360ff1602179055506008600360006002815260200190815260200160002060006101000a81548160ff021916908360ff160217905550600a600360006003815260200190815260200160002060006101000a81548160ff021916908360ff1602179055506008600360006004815260200190815260200160002060006101000a81548160ff021916908360ff160217905550600a600360006005815260200190815260200160002060006101000a81548160ff021916908360ff160217905550613203806101906000396000f300608060405260043610610154576000357c0100000000000000000000000000000000000000000000000000000000900463ffffffff168063081812fc14610159578063095ea7b3146101c657806310ff56ec1461021357806323b872dd146102405780633c110542146102ad5780633ca7aac3146103455780633ccfd60b1461039c5780633ff3658a146103b35780634036ab78146103bd5780634aa66b28146103fe5780634fa82fb21461043f5780635ebad7011461046c5780636352211e146104d9578063677aef1e1461054657806370a082311461055d578063715018a6146105b45780637917ab05146105cb5780638da5cb5b146106125780639d30d06314610669578063a22cb46514610694578063b5eddba3146106e3578063bdd629651461074c578063c57dcc8314610779578063e985e9c5146107a6578063f0503e8014610821578063f2fde38b146108e6575b600080fd5b34801561016557600080fd5b5061018460048036038101908080359060200190929190505050610929565b604051808273ffffffffffffffffffffffffffffffffffffffff1673ffffffffffffffffffffffffffffffffffffffff16815260200191505060405180910390f35b3480156101d257600080fd5b50610211600480360381019080803573ffffffffffffffffffffffffffffffffffffffff16906020019092919080359060200190929190505050610966565b005b34801561021f57600080fd5b5061023e60048036038101908080359060200190929190505050610ba3565b005b34801561024c57600080fd5b506102ab600480360381019080803573ffffffffffffffffffffffffffffffffffffffff169060200190929190803573ffffffffffffffffffffffffffffffffffffffff16906020019092919080359060200190929190505050610dc1565b005b3480156102b957600080fd5b506102ee600480360381019080803573ffffffffffffffffffffffffffffffffffffffff169060200190929190505050610fae565b6040518080602001828103825283818151815260200191508051906020019060200280838360005b83811015610331578082015181840152602081019050610316565b505050509050019250505060405180910390f35b34801561035157600080fd5b50610386600480360381019080803573ffffffffffffffffffffffffffffffffffffffff1690602001909291905050506110e0565b6040518082815260200191505060405180910390f35b3480156103a857600080fd5b506103b16110f8565b005b6103bb611263565b005b3480156103c957600080fd5b506103e8600480360381019080803590602001909291905050506112e8565b6040518082815260200191505060405180910390f35b34801561040a57600080fd5b5061042960048036038101908080359060200190929190505050611346565b6040518082815260200191505060405180910390f35b34801561044b57600080fd5b5061046a600480360381019080803590602001909291905050506113a7565b005b34801561047857600080fd5b506104976004803603810190808035906020019092919050505061149b565b604051808273ffffffffffffffffffffffffffffffffffffffff1673ffffffffffffffffffffffffffffffffffffffff16815260200191505060405180910390f35b3480156104e557600080fd5b50610504600480360381019080803590602001909291905050506114ce565b604051808273ffffffffffffffffffffffffffffffffffffffff1673ffffffffffffffffffffffffffffffffffffffff16815260200191505060405180910390f35b34801561055257600080fd5b5061055b6115b5565b005b34801561056957600080fd5b5061059e600480360381019080803573ffffffffffffffffffffffffffffffffffffffff1690602001909291905050506115c1565b6040518082815260200191505060405180910390f35b3480156105c057600080fd5b506105c96116ae565b005b3480156105d757600080fd5b506105f66004803603810190808035906020019092919050505061183f565b604051808260ff1660ff16815260200191505060405180910390f35b34801561061e57600080fd5b5061062761185f565b604051808273ffffffffffffffffffffffffffffffffffffffff1673ffffffffffffffffffffffffffffffffffffffff16815260200191505060405180910390f35b34801561067557600080fd5b5061067e611884565b6040518082815260200191505060405180910390f35b3480156106a057600080fd5b506106e1600480360381019080803573ffffffffffffffffffffffffffffffffffffffff169060200190929190803515159060200190929190505050611891565b005b3480156106ef57600080fd5b5061074a600480360381019080803590602001908201803590602001908080601f0160208091040260200160405190810160405280939291908181526020018383808284378201915050505050509192919290505050611a5c565b005b34801561075857600080fd5b5061077760048036038101908080359060200190929190505050611b78565b005b34801561078557600080fd5b506107a460048036038101908080359060200190929190505050611c2a565b005b3480156107b257600080fd5b50610807600480360381019080803573ffffffffffffffffffffffffffffffffffffffff169060200190929190803573ffffffffffffffffffffffffffffffffffffffff169060200190929190505050611da4565b604051808215151515815260200191505060405180910390f35b34801561082d57600080fd5b5061084c60048036038101908080359060200190929190505050611e38565b60405180806020018581526020018460ff1660ff16815260200183151515158152602001828103825286818151815260200191508051906020019080838360005b838110156108a857808201518184015260208101905061088d565b50505050905090810190601f1680156108d55780820380516001836020036101000a031916815260200191505b509550505050505060405180910390f35b3480156108f257600080fd5b50610927600480360381019080803573ffffffffffffffffffffffffffffffffffffffff169060200190929190505050611f29565b005b6000600e600083815260200190815260200160002060009054906101000a900473ffffffffffffffffffffffffffffffffffffffff169050919050565b6000610971826114ce565b90508073ffffffffffffffffffffffffffffffffffffffff168373ffffffffffffffffffffffffffffffffffffffff1614151515610a17576040517f08c379a000000000000000000000000000000000000000000000000000000000815260040180806020018281038252601e8152602001807f43616e277420617070726f7665207468652073616d652061646472657373000081525060200191505060405180910390fd5b8073ffffffffffffffffffffffffffffffffffffffff163373ffffffffffffffffffffffffffffffffffffffff161480610a575750610a568133611da4565b5b1515610af1576040517f08c379a000000000000000000000000000000000000000000000000000000000815260040180806020018281038252602f8152602001807f5468652073656e646572206973206e65697468657220746865206f776e65722081526020017f6e6f7220616e206f70657261746f72000000000000000000000000000000000081525060400191505060405180910390fd5b82600e600084815260200190815260200160002060006101000a81548173ffffffffffffffffffffffffffffffffffffffff021916908373ffffffffffffffffffffffffffffffffffffffff160217905550818373ffffffffffffffffffffffffffffffffffffffff168273ffffffffffffffffffffffffffffffffffffffff167f8c5be1e5ebec7d5bd14f71427d1e84f3dd0314c0f7b2291e5b200ac8c7c3b92560405160405180910390a4505050565b600080823373ffffffffffffffffffffffffffffffffffffffff166008600083815260200190815260200160002060009054906101000a900473ffffffffffffffffffffffffffffffffffffffff1673ffffffffffffffffffffffffffffffffffffffff16141515610ca3576040517f08c379a00000000000000000000000000000000000000000000000000000000081526004018080602001828103825260258152602001807f546865207365656420646f65736e27742062656c6f6e6720746f20746865207081526020017f6c6179657200000000000000000000000000000000000000000000000000000081525060400191505060405180910390fd5b600784815481101515610cb257fe5b9060005260206000209060030201925060008360020160009054906101000a900460ff1660ff161415610dbb576001600260003373ffffffffffffffffffffffffffffffffffffffff1673ffffffffffffffffffffffffffffffffffffffff16815260200190815260200160002054815481101515610d2d57fe5b90600052602060002090600402019150610d4684611346565b60036000610d53876112e8565b815260200190815260200160002060009054906101000a900460ff16018360020160006101000a81548160ff021916908360ff160217905550816001018490806001815401808255809150509060018203906000526020600020016000909192909190915055505b50505050565b610dcb338261201f565b1515610e65576040517f08c379a000000000000000000000000000000000000000000000000000000000815260040180806020018281038252602f8152602001807f5468652073656e646572206973206e65697468657220746865206f776e65722081526020017f6e6f7220697320617070726f766564000000000000000000000000000000000081525060400191505060405180910390fd5b600073ffffffffffffffffffffffffffffffffffffffff168273ffffffffffffffffffffffffffffffffffffffff1614151515610f30576040517f08c379a00000000000000000000000000000000000000000000000000000000081526004018080602001828103825260248152602001807f5468652064657374696e6174696f6e20616464726573732063616e277420626581526020017f203078300000000000000000000000000000000000000000000000000000000081525060400191505060405180910390fd5b610f3a83826120b4565b610f448382612246565b610f4e8282612404565b808273ffffffffffffffffffffffffffffffffffffffff168473ffffffffffffffffffffffffffffffffffffffff167fddf252ad1be2c89b69c2b068fc378daa952ba7f163c4a11628f55a4df523b3ef60405160405180910390a4505050565b606080600080600960008673ffffffffffffffffffffffffffffffffffffffff1673ffffffffffffffffffffffffffffffffffffffff168152602001908152602001600020546040519080825280602002602001820160405280156110225781602001602082028038833980820191505090505b50925060009150600090505b6007805490508110156110d5578473ffffffffffffffffffffffffffffffffffffffff166008600083815260200190815260200160002060009054906101000a900473ffffffffffffffffffffffffffffffffffffffff1673ffffffffffffffffffffffffffffffffffffffff1614156110c8578083838151811015156110b157fe5b906020019060200201818152505081806001019250505b808060010191505061102e565b829350505050919050565b60026020528060005260406000206000915090505481565b6000809054906101000a900473ffffffffffffffffffffffffffffffffffffffff1673ffffffffffffffffffffffffffffffffffffffff163373ffffffffffffffffffffffffffffffffffffffff161415156111e2576040517f08c379a00000000000000000000000000000000000000000000000000000000081526004018080602001828103825260278152602001807f4f6e6c7920746865206f776e65722063616e20706572666f726d20746869732081526020017f616374696f6e2e0000000000000000000000000000000000000000000000000081525060400191505060405180910390fd5b6000809054906101000a900473ffffffffffffffffffffffffffffffffffffffff1673ffffffffffffffffffffffffffffffffffffffff166108fc3073ffffffffffffffffffffffffffffffffffffffff16319081150290604051600060405180830381858888f19350505050158015611260573d6000803e3d6000fd5b50565b600c54341415156112dc576040517f08c379a000000000000000000000000000000000000000000000000000000000815260040180806020018281038252601b8152602001807f5468652065746865722073656e742069736e277420656e6f756768000000000081525060200191505060405180910390fd5b6112e660016125c7565b565b60008060006007848154811015156112fc57fe5b906000526020600020906003020191506103e8826001015481151561131d57fe5b04905060648181151561132c57fe5b0690506004548181151561133c57fe5b0692505050919050565b600080600060078481548110151561135a57fe5b90600052602060002090600302019150620186a0826001015481151561137c57fe5b049050600a8181151561138b57fe5b069050600160038281151561139c57fe5b060392505050919050565b6000809054906101000a900473ffffffffffffffffffffffffffffffffffffffff1673ffffffffffffffffffffffffffffffffffffffff163373ffffffffffffffffffffffffffffffffffffffff16141515611491576040517f08c379a00000000000000000000000000000000000000000000000000000000081526004018080602001828103825260278152602001807f4f6e6c7920746865206f776e65722063616e20706572666f726d20746869732081526020017f616374696f6e2e0000000000000000000000000000000000000000000000000081525060400191505060405180910390fd5b80600c8190555050565b60086020528060005260406000206000915054906101000a900473ffffffffffffffffffffffffffffffffffffffff1681565b6000806008600084815260200190815260200160002060009054906101000a900473ffffffffffffffffffffffffffffffffffffffff169050600073ffffffffffffffffffffffffffffffffffffffff168173ffffffffffffffffffffffffffffffffffffffff16141515156115ac576040517f08c379a000000000000000000000000000000000000000000000000000000000815260040180806020018281038252601e8152602001807f546865206f776e657220616464726573732063616e277420626520307830000081525060200191505060405180910390fd5b80915050919050565b6115bf60006125c7565b565b60008073ffffffffffffffffffffffffffffffffffffffff168273ffffffffffffffffffffffffffffffffffffffff1614151515611667576040517f08c379a000000000000000000000000000000000000000000000000000000000815260040180806020018281038252601e8152602001807f546865206f776e657220616464726573732063616e277420626520307830000081525060200191505060405180910390fd5b600960008373ffffffffffffffffffffffffffffffffffffffff1673ffffffffffffffffffffffffffffffffffffffff168152602001908152602001600020549050919050565b6000809054906101000a900473ffffffffffffffffffffffffffffffffffffffff1673ffffffffffffffffffffffffffffffffffffffff163373ffffffffffffffffffffffffffffffffffffffff16141515611798576040517f08c379a00000000000000000000000000000000000000000000000000000000081526004018080602001828103825260278152602001807f4f6e6c7920746865206f776e65722063616e20706572666f726d20746869732081526020017f616374696f6e2e0000000000000000000000000000000000000000000000000081525060400191505060405180910390fd5b6000809054906101000a900473ffffffffffffffffffffffffffffffffffffffff1673ffffffffffffffffffffffffffffffffffffffff167ff8df31144d9c2f0f6b59d69b8b98abd5459d07f2742c4df920b25aae33c6482060405160405180910390a260008060006101000a81548173ffffffffffffffffffffffffffffffffffffffff021916908373ffffffffffffffffffffffffffffffffffffffff160217905550565b60036020528060005260406000206000915054906101000a900460ff1681565b6000809054906101000a900473ffffffffffffffffffffffffffffffffffffffff1681565b6000600780549050905090565b3373ffffffffffffffffffffffffffffffffffffffff168273ffffffffffffffffffffffffffffffffffffffff161415151561195b576040517f08c379a00000000000000000000000000000000000000000000000000000000081526004018080602001828103825260248152602001807f416e20616464726573732063616e277420626520686973206f776e206f70657281526020017f61746f720000000000000000000000000000000000000000000000000000000081525060400191505060405180910390fd5b80600f60003373ffffffffffffffffffffffffffffffffffffffff1673ffffffffffffffffffffffffffffffffffffffff16815260200190815260200160002060008473ffffffffffffffffffffffffffffffffffffffff1673ffffffffffffffffffffffffffffffffffffffff16815260200190815260200160002060006101000a81548160ff0219169083151502179055508173ffffffffffffffffffffffffffffffffffffffff163373ffffffffffffffffffffffffffffffffffffffff167f17307eab39ab6107e8899845ad3d59bd9653f200f220920489ca2b5937696c3183604051808215151515815260200191505060405180910390a35050565b600060016080604051908101604052808481526020016000604051908082528060200260200182016040528015611aa25781602001602082028038833980820191505090505b5081526020016001815260200143815250908060018154018082558091505090600182039060005260206000209060040201600090919290919091506000820151816000019080519060200190611afa9291906130e5565b506020820151816001019080519060200190611b17929190613165565b5060408201518160020155606082015181600301555050905080600260003373ffffffffffffffffffffffffffffffffffffffff1673ffffffffffffffffffffffffffffffffffffffff168152602001908152602001600020819055505050565b6000611b83826128ac565b90506000600780549050141515611be657611be1611bdb6040805190810160405280600581526020017f536565642000000000000000000000000000000000000000000000000000000081525060078054905061294d565b82612bed565b611c26565b611c256040805190810160405280600681526020017f536565642030000000000000000000000000000000000000000000000000000081525082612bed565b5b5050565b6000813373ffffffffffffffffffffffffffffffffffffffff166008600083815260200190815260200160002060009054906101000a900473ffffffffffffffffffffffffffffffffffffffff1673ffffffffffffffffffffffffffffffffffffffff16141515611d29576040517f08c379a00000000000000000000000000000000000000000000000000000000081526004018080602001828103825260258152602001807f546865207365656420646f65736e27742062656c6f6e6720746f20746865207081526020017f6c6179657200000000000000000000000000000000000000000000000000000081525060400191505060405180910390fd5b600783815481101515611d3857fe5b906000526020600020906003020191508160020160019054906101000a900460ff16158015611d7c575060008260020160009054906101000a900460ff1660ff1614155b15611d9f5760018260020160016101000a81548160ff0219169083151502179055505b505050565b6000600f60008473ffffffffffffffffffffffffffffffffffffffff1673ffffffffffffffffffffffffffffffffffffffff16815260200190815260200160002060008373ffffffffffffffffffffffffffffffffffffffff1673ffffffffffffffffffffffffffffffffffffffff16815260200190815260200160002060009054906101000a900460ff16905092915050565b600781815481101515611e4757fe5b9060005260206000209060030201600091509050806000018054600181600116156101000203166002900480601f016020809104026020016040519081016040528092919081815260200182805460018160011615610100020316600290048015611ef35780601f10611ec857610100808354040283529160200191611ef3565b820191906000526020600020905b815481529060010190602001808311611ed657829003601f168201915b5050505050908060010154908060020160009054906101000a900460ff16908060020160019054906101000a900460ff16905084565b6000809054906101000a900473ffffffffffffffffffffffffffffffffffffffff1673ffffffffffffffffffffffffffffffffffffffff163373ffffffffffffffffffffffffffffffffffffffff16141515612013576040517f08c379a00000000000000000000000000000000000000000000000000000000081526004018080602001828103825260278152602001807f4f6e6c7920746865206f776e65722063616e20706572666f726d20746869732081526020017f616374696f6e2e0000000000000000000000000000000000000000000000000081525060400191505060405180910390fd5b61201c81612e4d565b50565b60008061202b836114ce565b90508073ffffffffffffffffffffffffffffffffffffffff168473ffffffffffffffffffffffffffffffffffffffff16148061209a57508373ffffffffffffffffffffffffffffffffffffffff1661208284610929565b73ffffffffffffffffffffffffffffffffffffffff16145b806120ab57506120aa8185611da4565b5b91505092915050565b8173ffffffffffffffffffffffffffffffffffffffff166120d4826114ce565b73ffffffffffffffffffffffffffffffffffffffff16141515612185576040517f08c379a00000000000000000000000000000000000000000000000000000000081526004018080602001828103825260248152602001807f54686520676976656e206f776e657220646f65736e2774206f776e207468652081526020017f736565640000000000000000000000000000000000000000000000000000000081525060400191505060405180910390fd5b600073ffffffffffffffffffffffffffffffffffffffff16600e600083815260200190815260200160002060009054906101000a900473ffffffffffffffffffffffffffffffffffffffff1673ffffffffffffffffffffffffffffffffffffffff16141515612242576000600e600083815260200190815260200160002060006101000a81548173ffffffffffffffffffffffffffffffffffffffff021916908373ffffffffffffffffffffffffffffffffffffffff1602179055505b5050565b8173ffffffffffffffffffffffffffffffffffffffff16612266826114ce565b73ffffffffffffffffffffffffffffffffffffffff16141515612317576040517f08c379a000000000000000000000000000000000000000000000000000000000815260040180806020018281038252602b8152602001807f546865207365656420646f65736e27742062656c6f6e6720746f20746865206781526020017f697665206164647265737300000000000000000000000000000000000000000081525060400191505060405180910390fd5b61236a6001600960008573ffffffffffffffffffffffffffffffffffffffff1673ffffffffffffffffffffffffffffffffffffffff16815260200190815260200160002054612fb090919063ffffffff16565b600960008473ffffffffffffffffffffffffffffffffffffffff1673ffffffffffffffffffffffffffffffffffffffff1681526020019081526020016000208190555060006008600083815260200190815260200160002060006101000a81548173ffffffffffffffffffffffffffffffffffffffff021916908373ffffffffffffffffffffffffffffffffffffffff1602179055505050565b600073ffffffffffffffffffffffffffffffffffffffff166008600083815260200190815260200160002060009054906101000a900473ffffffffffffffffffffffffffffffffffffffff1673ffffffffffffffffffffffffffffffffffffffff161415156124db576040517f08c379a000000000000000000000000000000000000000000000000000000000815260040180806020018281038252601d8152602001807f54686520736565642068617320612070726576696f7573206f776e657200000081525060200191505060405180910390fd5b816008600083815260200190815260200160002060006101000a81548173ffffffffffffffffffffffffffffffffffffffff021916908373ffffffffffffffffffffffffffffffffffffffff1602179055506125806001600960008573ffffffffffffffffffffffffffffffffffffffff1673ffffffffffffffffffffffffffffffffffffffff1681526020019081526020016000205461303a90919063ffffffff16565b600960008473ffffffffffffffffffffffffffffffffffffffff1673ffffffffffffffffffffffffffffffffffffffff168152602001908152602001600020819055505050565b600080600080600260003373ffffffffffffffffffffffffffffffffffffffff1673ffffffffffffffffffffffffffffffffffffffff1681526020019081526020016000205493506000841415156128a55760018481548110151561262857fe5b906000526020600020906004020192508415156126e357612648836130c4565b15156126e2576040517f08c379a00000000000000000000000000000000000000000000000000000000081526004018080602001828103825260248152602001807f4861736e2774207061737320656e6f7567682074696d6520746f20676f20746f81526020017f206265640000000000000000000000000000000000000000000000000000000081525060400191505060405180910390fd5b5b6126ec836130d9565b600091505b8260010180549050821015612884576007836001018381548110151561271357fe5b906000526020600020015481548110151561272a57fe5b906000526020600020906003020190508060020160019054906101000a900460ff16156128795760008160020160016101000a81548160ff02191690831515021790555080600201600081819054906101000a900460ff166001900391906101000a81548160ff021916908360ff16021790555060008160020160009054906101000a900460ff1660ff161415612878578260010160018460010180549050038154811015156127d657fe5b906000526020600020015483600101838154811015156127f257fe5b906000526020600020018190555082600101600184600101805490500381548110151561281b57fe5b9060005260206000200160009055612877600960003373ffffffffffffffffffffffffffffffffffffffff1673ffffffffffffffffffffffffffffffffffffffff16815260200190815260200160002054826001015401611b78565b5b5b8160010191506126f1565b61289c6001846002015461303a90919063ffffffff16565b83600201819055505b5050505050565b60008082604051602001808281526020019150506040516020818303038152906040526040518082805190602001908083835b60208310151561290457805182526020820191506020810190506020830392506128df565b6001836020036101000a03801982511681845116808217855250505050505090500191505060405180910390206001900490506006548181151561294457fe5b06915050919050565b60606000806060600080606080600089975060649650866040519080825280601f01601f1916602001820160405280156129965781602001602082028038833980820191505090505b509550600094505b600088141515612a3557600a888115156129b457fe5b069350600a888115156129c357fe5b049750836030017f0100000000000000000000000000000000000000000000000000000000000000028686806001019750815181101515612a0057fe5b9060200101907effffffffffffffffffffffffffffffffffffffffffffffffffffffffffffff1916908160001a90535061299e565b8a9250848351016040519080825280601f01601f191660200182016040528015612a6e5781602001602082028038833980820191505090505b509150600090505b8251811015612b23578281815181101515612a8d57fe5b9060200101517f010000000000000000000000000000000000000000000000000000000000000090047f0100000000000000000000000000000000000000000000000000000000000000028282815181101515612ae657fe5b9060200101907effffffffffffffffffffffffffffffffffffffffffffffffffffffffffffff1916908160001a9053508080600101915050612a76565b600090505b84811015612bdc5785816001870303815181101515612b4357fe5b9060200101517f010000000000000000000000000000000000000000000000000000000000000090047f0100000000000000000000000000000000000000000000000000000000000000028284518301815181101515612b9f57fe5b9060200101907effffffffffffffffffffffffffffffffffffffffffffffffffffffffffffff1916908160001a9053508080600101915050612b28565b819850505050505050505092915050565b600060016007608060405190810160405280868152602001858152602001600060ff16815260200160001515815250908060018154018082558091505090600182039060005260206000209060030201600090919290919091506000820151816000019080519060200190612c639291906130e5565b506020820151816001015560408201518160020160006101000a81548160ff021916908360ff16021790555060608201518160020160016101000a81548160ff0219169083151502179055505050039050336008600083815260200190815260200160002060006101000a81548173ffffffffffffffffffffffffffffffffffffffff021916908373ffffffffffffffffffffffffffffffffffffffff160217905550612d596001600960003373ffffffffffffffffffffffffffffffffffffffff1673ffffffffffffffffffffffffffffffffffffffff1681526020019081526020016000205461303a90919063ffffffff16565b600960003373ffffffffffffffffffffffffffffffffffffffff1673ffffffffffffffffffffffffffffffffffffffff168152602001908152602001600020819055507fce48bf19e08859bf5b7fbde70faeb415663b4ea48c7c5cc270eeea608901f5238184846040518084815260200180602001838152602001828103825284818151815260200191508051906020019080838360005b83811015612e0c578082015181840152602081019050612df1565b50505050905090810190601f168015612e395780820380516001836020036101000a031916815260200191505b5094505050505060405180910390a1505050565b600073ffffffffffffffffffffffffffffffffffffffff168173ffffffffffffffffffffffffffffffffffffffff1614151515612ef2576040517f08c379a00000000000000000000000000000000000000000000000000000000081526004018080602001828103825260198152602001807f54686520616464726573732063616e2774206265203078302e0000000000000081525060200191505060405180910390fd5b8073ffffffffffffffffffffffffffffffffffffffff166000809054906101000a900473ffffffffffffffffffffffffffffffffffffffff1673ffffffffffffffffffffffffffffffffffffffff167f8be0079c531659141344cd1fd0a4f28419497f9722a3daafe3b4186f6b6457e060405160405180910390a3806000806101000a81548173ffffffffffffffffffffffffffffffffffffffff021916908373ffffffffffffffffffffffffffffffffffffffff16021790555050565b60008083831115151561302b576040517f08c379a00000000000000000000000000000000000000000000000000000000081526004018080602001828103825260098152602001807f556e646572666c6f77000000000000000000000000000000000000000000000081525060200191505060405180910390fd5b82840390508091505092915050565b60008082840190508381101515156130ba576040517f08c379a00000000000000000000000000000000000000000000000000000000081526004018080602001828103825260088152602001807f4f766572666c6f7700000000000000000000000000000000000000000000000081525060200191505060405180910390fd5b8091505092915050565b6000600d548260030154430310159050919050565b43816003018190555050565b828054600181600116156101000203166002900490600052602060002090601f016020900481019282601f1061312657805160ff1916838001178555613154565b82800160010185558215613154579182015b82811115613153578251825591602001919060010190613138565b5b50905061316191906131b2565b5090565b8280548282559060005260206000209081019282156131a1579160200282015b828111156131a0578251825591602001919060010190613185565b5b5090506131ae91906131b2565b5090565b6131d491905b808211156131d05760008160009055506001016131b8565b5090565b905600a165627a7a723058203fc67931cbec7292ef374fd3105ab888f85ef00724aa01d99628ec635936041f0029",
  "source": "// solium-disable linebreak-style\r\npragma solidity ^0.4.24;\r\n\r\nimport \"./ESleep.sol\";\r\n// import \"./ERC721.sol\";\r\nimport \"./ERC721Basic.sol\";\r\n\r\n\r\ncontract EOwnership is ESleep, ERC721Basic {\r\n\r\n    mapping (uint => address) seedApprovals;\r\n    mapping (address => mapping (address => bool)) internal seedOperatorApprovals;\r\n    \r\n    /**\r\n    * @dev Gets the balance of the specified address\r\n    * @param _owner address to query the balance of\r\n    * @return uint256 representing the amount owned by the passed address\r\n    */\r\n    function balanceOf(address _owner) public view returns (uint256) {\r\n        require(_owner != address(0), \"The owner address can't be 0x0\");\r\n        return ownedSeedsCount[_owner];\r\n    }\r\n\r\n    /**\r\n    * @dev Gets the owner of the specified token ID\r\n    * @param _tokenId uint256 ID of the token to query the owner of\r\n    * @return owner address currently marked as the owner of the given token ID\r\n    */\r\n    function ownerOf(uint256 _tokenId) public view returns (address) {\r\n        address owner = seedOwner[_tokenId];\r\n        require(owner != address(0), \"The owner address can't be 0x0\");\r\n        return owner;\r\n    }\r\n\r\n    /**\r\n    * @dev Approves another address to transfer the given token ID\r\n    * The zero address indicates there is no approved address.\r\n    * There can only be one approved address per token at a given time.\r\n    * Can only be called by the token owner or an approved operator.\r\n    * @param _to address to be approved for the given token ID\r\n    * @param _tokenId uint256 ID of the token to be approved\r\n    */\r\n    function approve(address _to, uint256 _tokenId) public {\r\n        address owner = ownerOf(_tokenId);\r\n        require(_to != owner, \"Can't approve the same address\");\r\n        require(msg.sender == owner || isApprovedForAll(owner, msg.sender), \"The sender is neither the owner nor an operator\");\r\n\r\n        seedApprovals[_tokenId] = _to;\r\n        emit Approval(owner, _to, _tokenId);\r\n    }\r\n\r\n    /**\r\n    * @dev Gets the approved address for a token ID, or zero if no address set\r\n    * @param _tokenId uint256 ID of the token to query the approval of\r\n    * @return address currently approved for the given token ID\r\n    */\r\n    function getApproved(uint256 _tokenId) public view returns (address) {\r\n        return seedApprovals[_tokenId];\r\n    }\r\n\r\n    /**\r\n    * @dev Sets or unsets the approval of a given operator\r\n    * An operator is allowed to transfer all tokens of the sender on their behalf\r\n    * @param _to operator address to set the approval\r\n    * @param _approved representing the status of the approval to be set\r\n    */\r\n    function setApprovalForAll(address _to, bool _approved) public {\r\n        require(_to != msg.sender, \"An address can't be his own operator\");\r\n        seedOperatorApprovals[msg.sender][_to] = _approved;\r\n        emit ApprovalForAll(msg.sender, _to, _approved);\r\n    }\r\n\r\n    /**\r\n    * @dev Tells whether an operator is approved by a given owner\r\n    * @param _owner owner address which you want to query the approval of\r\n    * @param _operator operator address which you want to query the approval of\r\n    * @return bool whether the given operator is approved by the given owner\r\n    */\r\n    function isApprovedForAll(\r\n        address _owner,\r\n        address _operator\r\n    )\r\n        public\r\n        view\r\n        returns (bool)\r\n    {\r\n        return seedOperatorApprovals[_owner][_operator];\r\n    }\r\n\r\n    /**\r\n    * @dev Transfers the ownership of a given token ID to another address\r\n    * Usage of this method is discouraged, use `safeTransferFrom` whenever possible\r\n    * Requires the msg sender to be the owner, approved, or operator\r\n    * @param _from current owner of the token\r\n    * @param _to address to receive the ownership of the given token ID\r\n    * @param _tokenId uint256 ID of the token to be transferred\r\n    */\r\n    function transferFrom(\r\n        address _from,\r\n        address _to,\r\n        uint256 _tokenId\r\n        )\r\n        public\r\n        {\r\n        require(isApprovedOrOwner(msg.sender, _tokenId), \"The sender is neither the owner nor is approved\");\r\n        require(_to != address(0), \"The destination address can't be 0x0\");\r\n\r\n        clearApproval(_from, _tokenId);\r\n        removeTokenFrom(_from, _tokenId);\r\n        addTokenTo(_to, _tokenId);\r\n\r\n        emit Transfer(_from, _to, _tokenId);\r\n    }\r\n\r\n    /**\r\n    * @dev Returns whether the given spender can transfer a given token ID\r\n    * @param _spender address of the spender to query\r\n    * @param _tokenId uint256 ID of the token to be transferred\r\n    * @return bool whether the msg.sender is approved for the given token ID,\r\n    *  is an operator of the owner, or is the owner of the token\r\n    */\r\n    function isApprovedOrOwner(\r\n        address _spender,\r\n        uint256 _tokenId\r\n    )\r\n        internal\r\n        view\r\n        returns (bool)\r\n    {\r\n        address owner = ownerOf(_tokenId);\r\n        // Disable solium check because of\r\n        // https://github.com/duaraghav8/Solium/issues/175\r\n        // solium-disable-next-line operator-whitespace\r\n        return (\r\n            _spender == owner ||\r\n            getApproved(_tokenId) == _spender ||\r\n            isApprovedForAll(owner, _spender)\r\n        );\r\n    }\r\n\r\n    /**\r\n    * @dev Internal function to clear current approval of a given token ID\r\n    * Reverts if the given address is not indeed the owner of the token\r\n    * @param _owner owner of the token\r\n    * @param _tokenId uint256 ID of the token to be transferred\r\n    */\r\n    function clearApproval(address _owner, uint256 _tokenId) internal {\r\n        require(ownerOf(_tokenId) == _owner, \"The given owner doesn't own the seed\");\r\n        if (seedApprovals[_tokenId] != address(0)) {\r\n            seedApprovals[_tokenId] = address(0);\r\n        }\r\n    }\r\n\r\n    /**\r\n    * @dev Internal function to add a token ID to the list of a given address\r\n    * @param _to address representing the new owner of the given token ID\r\n    * @param _tokenId uint256 ID of the token to be added to the tokens list of the given address\r\n    */\r\n    function addTokenTo(address _to, uint256 _tokenId) internal {\r\n        require(seedOwner[_tokenId] == address(0), \"The seed has a previous owner\");\r\n        seedOwner[_tokenId] = _to;\r\n        ownedSeedsCount[_to] = ownedSeedsCount[_to].add(1);\r\n    }\r\n\r\n    /**\r\n    * @dev Internal function to remove a token ID from the list of a given address\r\n    * @param _from address representing the previous owner of the given token ID\r\n    * @param _tokenId uint256 ID of the token to be removed from the tokens list of the given address\r\n    */\r\n    function removeTokenFrom(address _from, uint256 _tokenId) internal {\r\n        require(ownerOf(_tokenId) == _from, \"The seed doesn't belong to the give address\");\r\n        ownedSeedsCount[_from] = ownedSeedsCount[_from].sub(1);\r\n        seedOwner[_tokenId] = address(0);\r\n    }\r\n}",
  "sourcePath": "C:\\Users\\elixs\\Documents\\GitHub\\EtherealLands\\contracts\\EOwnership.sol",
  "compiler": {
    "name": "solc",
    "version": "0.4.24+commit.e67f0147.Emscripten.clang"
  },
  "schemaVersion": "2.0.1",
  "updatedAt": "2018-08-23T18:03:22.676Z"
}