{
  "contractName": "ESeed",
  "abi": [
    {
      "constant": true,
      "inputs": [
        {
          "name": "",
          "type": "address"
        }
      ],
      "name": "ownerToPlayer",
      "outputs": [
        {
          "name": "",
          "type": "uint256"
        }
      ],
      "payable": false,
      "stateMutability": "view",
      "type": "function"
    },
    {
      "constant": true,
      "inputs": [
        {
          "name": "",
          "type": "uint256"
        }
      ],
      "name": "seedOwner",
      "outputs": [
        {
          "name": "",
          "type": "address"
        }
      ],
      "payable": false,
      "stateMutability": "view",
      "type": "function"
    },
    {
      "constant": false,
      "inputs": [],
      "name": "renounceOwnership",
      "outputs": [],
      "payable": false,
      "stateMutability": "nonpayable",
      "type": "function"
    },
    {
      "constant": true,
      "inputs": [
        {
          "name": "",
          "type": "uint256"
        }
      ],
      "name": "daysToHarvest",
      "outputs": [
        {
          "name": "",
          "type": "uint8"
        }
      ],
      "payable": false,
      "stateMutability": "view",
      "type": "function"
    },
    {
      "constant": true,
      "inputs": [],
      "name": "owner",
      "outputs": [
        {
          "name": "",
          "type": "address"
        }
      ],
      "payable": false,
      "stateMutability": "view",
      "type": "function"
    },
    {
      "constant": false,
      "inputs": [
        {
          "name": "_name",
          "type": "string"
        }
      ],
      "name": "createLand",
      "outputs": [],
      "payable": false,
      "stateMutability": "nonpayable",
      "type": "function"
    },
    {
      "constant": true,
      "inputs": [
        {
          "name": "",
          "type": "uint256"
        }
      ],
      "name": "seeds",
      "outputs": [
        {
          "name": "name",
          "type": "string"
        },
        {
          "name": "traits",
          "type": "uint256"
        },
        {
          "name": "remainingDays",
          "type": "uint8"
        },
        {
          "name": "isWatered",
          "type": "bool"
        }
      ],
      "payable": false,
      "stateMutability": "view",
      "type": "function"
    },
    {
      "constant": false,
      "inputs": [
        {
          "name": "_newOwner",
          "type": "address"
        }
      ],
      "name": "transferOwnership",
      "outputs": [],
      "payable": false,
      "stateMutability": "nonpayable",
      "type": "function"
    },
    {
      "inputs": [],
      "payable": false,
      "stateMutability": "nonpayable",
      "type": "constructor"
    },
    {
      "anonymous": false,
      "inputs": [
        {
          "indexed": false,
          "name": "id",
          "type": "uint256"
        },
        {
          "indexed": false,
          "name": "name",
          "type": "string"
        },
        {
          "indexed": false,
          "name": "traits",
          "type": "uint256"
        }
      ],
      "name": "SeedCreated",
      "type": "event"
    },
    {
      "anonymous": false,
      "inputs": [
        {
          "indexed": true,
          "name": "previousOwner",
          "type": "address"
        }
      ],
      "name": "OwnershipRenounced",
      "type": "event"
    },
    {
      "anonymous": false,
      "inputs": [
        {
          "indexed": true,
          "name": "previousOwner",
          "type": "address"
        },
        {
          "indexed": true,
          "name": "newOwner",
          "type": "address"
        }
      ],
      "name": "OwnershipTransferred",
      "type": "event"
    },
    {
      "constant": false,
      "inputs": [
        {
          "name": "_id",
          "type": "uint256"
        }
      ],
      "name": "createRandomSeed",
      "outputs": [],
      "payable": false,
      "stateMutability": "nonpayable",
      "type": "function"
    },
    {
      "constant": true,
      "inputs": [
        {
          "name": "_seedId",
          "type": "uint256"
        }
      ],
      "name": "getType",
      "outputs": [
        {
          "name": "",
          "type": "uint256"
        }
      ],
      "payable": false,
      "stateMutability": "view",
      "type": "function"
    },
    {
      "constant": true,
      "inputs": [
        {
          "name": "_seedId",
          "type": "uint256"
        }
      ],
      "name": "getBonus",
      "outputs": [
        {
          "name": "",
          "type": "uint256"
        }
      ],
      "payable": false,
      "stateMutability": "view",
      "type": "function"
    },
    {
      "constant": true,
      "inputs": [],
      "name": "getTotalSeeds",
      "outputs": [
        {
          "name": "",
          "type": "uint256"
        }
      ],
      "payable": false,
      "stateMutability": "view",
      "type": "function"
    }
  ],
  "bytecode": "0x608060405260066004556006600555600554600a0a60065534801561002357600080fd5b50336000806101000a81548173ffffffffffffffffffffffffffffffffffffffff021916908373ffffffffffffffffffffffffffffffffffffffff16021790555060056003600080815260200190815260200160002060006101000a81548160ff021916908360ff1602179055506008600360006001815260200190815260200160002060006101000a81548160ff021916908360ff1602179055506008600360006002815260200190815260200160002060006101000a81548160ff021916908360ff160217905550600a600360006003815260200190815260200160002060006101000a81548160ff021916908360ff1602179055506008600360006004815260200190815260200160002060006101000a81548160ff021916908360ff160217905550600a600360006005815260200190815260200160002060006101000a81548160ff021916908360ff1602179055506113d1806101866000396000f3006080604052600436106100ba576000357c0100000000000000000000000000000000000000000000000000000000900463ffffffff1680633ca7aac3146100bf5780634036ab78146101165780634aa66b28146101575780635ebad70114610198578063715018a6146102055780637917ab051461021c5780638da5cb5b146102635780639d30d063146102ba578063b5eddba3146102e5578063bdd629651461034e578063f0503e801461037b578063f2fde38b14610440575b600080fd5b3480156100cb57600080fd5b50610100600480360381019080803573ffffffffffffffffffffffffffffffffffffffff169060200190929190505050610483565b6040518082815260200191505060405180910390f35b34801561012257600080fd5b506101416004803603810190808035906020019092919050505061049b565b6040518082815260200191505060405180910390f35b34801561016357600080fd5b50610182600480360381019080803590602001909291905050506104f9565b6040518082815260200191505060405180910390f35b3480156101a457600080fd5b506101c36004803603810190808035906020019092919050505061055a565b604051808273ffffffffffffffffffffffffffffffffffffffff1673ffffffffffffffffffffffffffffffffffffffff16815260200191505060405180910390f35b34801561021157600080fd5b5061021a61058d565b005b34801561022857600080fd5b506102476004803603810190808035906020019092919050505061071e565b604051808260ff1660ff16815260200191505060405180910390f35b34801561026f57600080fd5b5061027861073e565b604051808273ffffffffffffffffffffffffffffffffffffffff1673ffffffffffffffffffffffffffffffffffffffff16815260200191505060405180910390f35b3480156102c657600080fd5b506102cf610763565b6040518082815260200191505060405180910390f35b3480156102f157600080fd5b5061034c600480360381019080803590602001908201803590602001908080601f0160208091040260200160405190810160405280939291908181526020018383808284378201915050505050509192919290505050610770565b005b34801561035a57600080fd5b506103796004803603810190808035906020019092919050505061088c565b005b34801561038757600080fd5b506103a66004803603810190808035906020019092919050505061093e565b60405180806020018581526020018460ff1660ff16815260200183151515158152602001828103825286818151815260200191508051906020019080838360005b838110156104025780820151818401526020810190506103e7565b50505050905090810190601f16801561042f5780820380516001836020036101000a031916815260200191505b509550505050505060405180910390f35b34801561044c57600080fd5b50610481600480360381019080803573ffffffffffffffffffffffffffffffffffffffff169060200190929190505050610a2f565b005b60026020528060005260406000206000915090505481565b60008060006007848154811015156104af57fe5b906000526020600020906003020191506103e882600101548115156104d057fe5b0490506064818115156104df57fe5b069050600454818115156104ef57fe5b0692505050919050565b600080600060078481548110151561050d57fe5b90600052602060002090600302019150620186a0826001015481151561052f57fe5b049050600a8181151561053e57fe5b069050600160038281151561054f57fe5b060392505050919050565b60086020528060005260406000206000915054906101000a900473ffffffffffffffffffffffffffffffffffffffff1681565b6000809054906101000a900473ffffffffffffffffffffffffffffffffffffffff1673ffffffffffffffffffffffffffffffffffffffff163373ffffffffffffffffffffffffffffffffffffffff16141515610677576040517f08c379a00000000000000000000000000000000000000000000000000000000081526004018080602001828103825260278152602001807f4f6e6c7920746865206f776e65722063616e20706572666f726d20746869732081526020017f616374696f6e2e0000000000000000000000000000000000000000000000000081525060400191505060405180910390fd5b6000809054906101000a900473ffffffffffffffffffffffffffffffffffffffff1673ffffffffffffffffffffffffffffffffffffffff167ff8df31144d9c2f0f6b59d69b8b98abd5459d07f2742c4df920b25aae33c6482060405160405180910390a260008060006101000a81548173ffffffffffffffffffffffffffffffffffffffff021916908373ffffffffffffffffffffffffffffffffffffffff160217905550565b60036020528060005260406000206000915054906101000a900460ff1681565b6000809054906101000a900473ffffffffffffffffffffffffffffffffffffffff1681565b6000600780549050905090565b6000600160806040519081016040528084815260200160006040519080825280602002602001820160405280156107b65781602001602082028038833980820191505090505b508152602001600181526020014381525090806001815401808255809150509060018203906000526020600020906004020160009091929091909150600082015181600001908051906020019061080e9291906112b3565b50602082015181600101908051906020019061082b929190611333565b5060408201518160020155606082015181600301555050905080600260003373ffffffffffffffffffffffffffffffffffffffff1673ffffffffffffffffffffffffffffffffffffffff168152602001908152602001600020819055505050565b600061089782610b25565b905060006007805490501415156108fa576108f56108ef6040805190810160405280600581526020017f5365656420000000000000000000000000000000000000000000000000000000815250600780549050610bc6565b82610e66565b61093a565b6109396040805190810160405280600681526020017f536565642030000000000000000000000000000000000000000000000000000081525082610e66565b5b5050565b60078181548110151561094d57fe5b9060005260206000209060030201600091509050806000018054600181600116156101000203166002900480601f0160208091040260200160405190810160405280929190818152602001828054600181600116156101000203166002900480156109f95780601f106109ce576101008083540402835291602001916109f9565b820191906000526020600020905b8154815290600101906020018083116109dc57829003601f168201915b5050505050908060010154908060020160009054906101000a900460ff16908060020160019054906101000a900460ff16905084565b6000809054906101000a900473ffffffffffffffffffffffffffffffffffffffff1673ffffffffffffffffffffffffffffffffffffffff163373ffffffffffffffffffffffffffffffffffffffff16141515610b19576040517f08c379a00000000000000000000000000000000000000000000000000000000081526004018080602001828103825260278152602001807f4f6e6c7920746865206f776e65722063616e20706572666f726d20746869732081526020017f616374696f6e2e0000000000000000000000000000000000000000000000000081525060400191505060405180910390fd5b610b22816110c6565b50565b60008082604051602001808281526020019150506040516020818303038152906040526040518082805190602001908083835b602083101515610b7d5780518252602082019150602081019050602083039250610b58565b6001836020036101000a038019825116818451168082178552505050505050905001915050604051809103902060019004905060065481811515610bbd57fe5b06915050919050565b60606000806060600080606080600089975060649650866040519080825280601f01601f191660200182016040528015610c0f5781602001602082028038833980820191505090505b509550600094505b600088141515610cae57600a88811515610c2d57fe5b069350600a88811515610c3c57fe5b049750836030017f0100000000000000000000000000000000000000000000000000000000000000028686806001019750815181101515610c7957fe5b9060200101907effffffffffffffffffffffffffffffffffffffffffffffffffffffffffffff1916908160001a905350610c17565b8a9250848351016040519080825280601f01601f191660200182016040528015610ce75781602001602082028038833980820191505090505b509150600090505b8251811015610d9c578281815181101515610d0657fe5b9060200101517f010000000000000000000000000000000000000000000000000000000000000090047f0100000000000000000000000000000000000000000000000000000000000000028282815181101515610d5f57fe5b9060200101907effffffffffffffffffffffffffffffffffffffffffffffffffffffffffffff1916908160001a9053508080600101915050610cef565b600090505b84811015610e555785816001870303815181101515610dbc57fe5b9060200101517f010000000000000000000000000000000000000000000000000000000000000090047f0100000000000000000000000000000000000000000000000000000000000000028284518301815181101515610e1857fe5b9060200101907effffffffffffffffffffffffffffffffffffffffffffffffffffffffffffff1916908160001a9053508080600101915050610da1565b819850505050505050505092915050565b600060016007608060405190810160405280868152602001858152602001600060ff16815260200160001515815250908060018154018082558091505090600182039060005260206000209060030201600090919290919091506000820151816000019080519060200190610edc9291906112b3565b506020820151816001015560408201518160020160006101000a81548160ff021916908360ff16021790555060608201518160020160016101000a81548160ff0219169083151502179055505050039050336008600083815260200190815260200160002060006101000a81548173ffffffffffffffffffffffffffffffffffffffff021916908373ffffffffffffffffffffffffffffffffffffffff160217905550610fd26001600960003373ffffffffffffffffffffffffffffffffffffffff1673ffffffffffffffffffffffffffffffffffffffff1681526020019081526020016000205461122990919063ffffffff16565b600960003373ffffffffffffffffffffffffffffffffffffffff1673ffffffffffffffffffffffffffffffffffffffff168152602001908152602001600020819055507fce48bf19e08859bf5b7fbde70faeb415663b4ea48c7c5cc270eeea608901f5238184846040518084815260200180602001838152602001828103825284818151815260200191508051906020019080838360005b8381101561108557808201518184015260208101905061106a565b50505050905090810190601f1680156110b25780820380516001836020036101000a031916815260200191505b5094505050505060405180910390a1505050565b600073ffffffffffffffffffffffffffffffffffffffff168173ffffffffffffffffffffffffffffffffffffffff161415151561116b576040517f08c379a00000000000000000000000000000000000000000000000000000000081526004018080602001828103825260198152602001807f54686520616464726573732063616e2774206265203078302e0000000000000081525060200191505060405180910390fd5b8073ffffffffffffffffffffffffffffffffffffffff166000809054906101000a900473ffffffffffffffffffffffffffffffffffffffff1673ffffffffffffffffffffffffffffffffffffffff167f8be0079c531659141344cd1fd0a4f28419497f9722a3daafe3b4186f6b6457e060405160405180910390a3806000806101000a81548173ffffffffffffffffffffffffffffffffffffffff021916908373ffffffffffffffffffffffffffffffffffffffff16021790555050565b60008082840190508381101515156112a9576040517f08c379a00000000000000000000000000000000000000000000000000000000081526004018080602001828103825260088152602001807f4f766572666c6f7700000000000000000000000000000000000000000000000081525060200191505060405180910390fd5b8091505092915050565b828054600181600116156101000203166002900490600052602060002090601f016020900481019282601f106112f457805160ff1916838001178555611322565b82800160010185558215611322579182015b82811115611321578251825591602001919060010190611306565b5b50905061132f9190611380565b5090565b82805482825590600052602060002090810192821561136f579160200282015b8281111561136e578251825591602001919060010190611353565b5b50905061137c9190611380565b5090565b6113a291905b8082111561139e576000816000905550600101611386565b5090565b905600a165627a7a72305820f8e6a81329a3cf3b97b89410f108bcf4b88b77d973d0e6e4da68b23d6df5ad970029",
  "source": "// solium-disable linebreak-style\r\npragma solidity ^0.4.24;\r\n\r\nimport \"./EPlayer.sol\";\r\n\r\n\r\ncontract ESeed is EPlayer{\r\n    \r\n    mapping (uint => uint8) public daysToHarvest;\r\n\r\n    constructor() public {\r\n        daysToHarvest[0] = 5;\r\n        daysToHarvest[1] = 8;\r\n        daysToHarvest[2] = 8;\r\n        daysToHarvest[3] = 10;\r\n        daysToHarvest[4] = 8;\r\n        daysToHarvest[5] = 10;\r\n    }\r\n\r\n    event SeedCreated(\r\n        uint id,\r\n        string name,\r\n        uint traits\r\n    );\r\n\r\n    uint seedsTypes = 6;\r\n\r\n    uint traitsDigits = 6;\r\n    uint traitsModulus = 10 ** traitsDigits;\r\n\r\n    //Traits\r\n    // 3: hue -> 0 to 359, saturation and value are both 1\r\n    // 2: type -> 0 to 5 for now, in order they are Turnip, Potato, Onion, Tomato, Carrot, Eggplant\r\n    // 1: bonus -> -1 to 1\r\n\r\n    struct Seed {\r\n        string name;\r\n        uint traits;\r\n        uint8 remainingDays;\r\n        bool isWatered;\r\n    }\r\n\r\n    Seed[] public seeds;\r\n\r\n    mapping (uint => address) public seedOwner;\r\n    mapping (address => uint) ownedSeedsCount;\r\n\r\n    function _createSeed(string _name, uint _traits) private {\r\n        uint id = seeds.push(Seed(_name, _traits, 0, false)) - 1;\r\n        seedOwner[id] = msg.sender;\r\n        ownedSeedsCount[msg.sender] = ownedSeedsCount[msg.sender].add(1);\r\n        emit SeedCreated(id, _name, _traits);\r\n    }\r\n\r\n    function _generateRandomTraits(uint _int) private view returns (uint) {\r\n        uint rand = uint(keccak256(abi.encode(_int)));\r\n        return rand % traitsModulus;\r\n    }\r\n\r\n    function createRandomSeed(uint _id) public {\r\n        //require(ownedSeedsCount[msg.sender] == 0, \"The first seed was already created\");\r\n        uint randTraits = _generateRandomTraits(_id);\r\n        if(seeds.length != 0){\r\n            _createSeed(appendUintToString(\"Seed \", seeds.length), randTraits);\r\n        } else {\r\n            _createSeed(\"Seed 0\", randTraits);\r\n        }\r\n    }\r\n\r\n    function getType(uint _seedId) public view returns (uint){\r\n        Seed storage seed = seeds[_seedId];\r\n        uint seedType = seed.traits/1000;\r\n        seedType = seedType % 100;\r\n        return seedType % seedsTypes;\r\n    }\r\n\r\n    function getBonus(uint _seedId) public view returns (uint){\r\n        Seed storage seed = seeds[_seedId];\r\n        uint seedBonus = seed.traits/100000;\r\n        seedBonus = seedBonus % 10;\r\n        return seedBonus % 3 - 1;\r\n    }\r\n\r\n    function getTotalSeeds() external view returns(uint){\r\n        return seeds.length;\r\n    }\r\n\r\n    function bytes32ToString (bytes32 data) private pure returns (string) {\r\n        bytes memory bytesString = new bytes(32);\r\n        for (uint j = 0; j < 32; j++) {\r\n            byte char = byte(bytes32(uint(data) * 2 ** (8 * j)));\r\n            if (char != 0) {\r\n                bytesString[j] = char;\r\n            }\r\n        }\r\n        return string(bytesString);\r\n    }\r\n\r\n    function uintToString(uint _v) private pure returns (string) {\r\n        uint v = _v;\r\n        uint maxlength = 100;\r\n        bytes memory reversed = new bytes(maxlength);\r\n        uint i = 0;\r\n        while (v != 0) {\r\n            uint remainder = v % 10;\r\n            v = v / 10;\r\n            reversed[i++] = byte(48 + remainder);\r\n        }\r\n        bytes memory s = new bytes(i);\r\n        for (uint j = 0; j < i; j++) {\r\n            s[j] = reversed[i - 1 - j];\r\n        }\r\n        return string(s);\r\n    }\r\n\r\n    function appendUintToString(string inStr, uint _v) private pure returns (string) {\r\n        uint v = _v;\r\n        uint maxlength = 100;\r\n        bytes memory reversed = new bytes(maxlength);\r\n        uint i = 0;\r\n        while (v != 0) {\r\n            uint remainder = v % 10;\r\n            v = v / 10;\r\n            reversed[i++] = byte(48 + remainder);\r\n        }\r\n        bytes memory inStrb = bytes(inStr);\r\n        bytes memory s = new bytes(inStrb.length + i);\r\n        uint j;\r\n        for (j = 0; j < inStrb.length; j++) {\r\n            s[j] = inStrb[j];\r\n        }\r\n        for (j = 0; j < i; j++) {\r\n            s[j + inStrb.length] = reversed[i - 1 - j];\r\n        }\r\n        return string(s);\r\n    }\r\n\r\n    function strConcat(string _a, string _b) private pure returns (string){\r\n        bytes memory _ba = bytes(_a);\r\n        bytes memory _bb = bytes(_b);\r\n        string memory ab = new string(_ba.length + _bb.length);\r\n        bytes memory bab = bytes(ab);\r\n        uint k = 0;\r\n        for (uint i = 0; i < _ba.length; i++) bab[k++] = _ba[i];\r\n        for (i = 0; i < _bb.length; i++) bab[k++] = _bb[i];\r\n        return string(bab);\r\n    }\r\n\r\n\r\n    //enum Seasons {SPRING, SUMMER, FALL, WINTER}\r\n\r\n    //struct Player {\r\n        //Seasons season; // = Seasons.SPRING;\r\n        //uint8 current_day\r\n\r\n\r\n    //}\r\n\r\n\r\n}",
  "sourcePath": "C:\\Users\\elixs\\Documents\\GitHub\\EtherealLands\\contracts\\ESeed.sol",
  "compiler": {
    "name": "solc",
    "version": "0.4.24+commit.e67f0147.Emscripten.clang"
  },
  "schemaVersion": "2.0.1",
  "updatedAt": "2018-08-23T18:03:18.428Z"
}