{
  "contractName": "ESeed",
  "abi": [
    {
      "constant": true,
      "inputs": [
        {
          "name": "",
          "type": "address"
        }
      ],
      "name": "ownerToPlayer",
      "outputs": [
        {
          "name": "",
          "type": "uint256"
        }
      ],
      "payable": false,
      "stateMutability": "view",
      "type": "function"
    },
    {
      "constant": true,
      "inputs": [
        {
          "name": "",
          "type": "uint256"
        }
      ],
      "name": "seedOwner",
      "outputs": [
        {
          "name": "",
          "type": "address"
        }
      ],
      "payable": false,
      "stateMutability": "view",
      "type": "function"
    },
    {
      "constant": false,
      "inputs": [],
      "name": "renounceOwnership",
      "outputs": [],
      "payable": false,
      "stateMutability": "nonpayable",
      "type": "function"
    },
    {
      "constant": true,
      "inputs": [
        {
          "name": "",
          "type": "uint256"
        }
      ],
      "name": "daysToHarvest",
      "outputs": [
        {
          "name": "",
          "type": "uint8"
        }
      ],
      "payable": false,
      "stateMutability": "view",
      "type": "function"
    },
    {
      "constant": true,
      "inputs": [],
      "name": "owner",
      "outputs": [
        {
          "name": "",
          "type": "address"
        }
      ],
      "payable": false,
      "stateMutability": "view",
      "type": "function"
    },
    {
      "constant": false,
      "inputs": [
        {
          "name": "_name",
          "type": "string"
        }
      ],
      "name": "createLand",
      "outputs": [],
      "payable": false,
      "stateMutability": "nonpayable",
      "type": "function"
    },
    {
      "constant": true,
      "inputs": [
        {
          "name": "",
          "type": "uint256"
        }
      ],
      "name": "seeds",
      "outputs": [
        {
          "name": "name",
          "type": "string"
        },
        {
          "name": "traits",
          "type": "uint256"
        },
        {
          "name": "remainingDays",
          "type": "uint8"
        },
        {
          "name": "isWatered",
          "type": "bool"
        }
      ],
      "payable": false,
      "stateMutability": "view",
      "type": "function"
    },
    {
      "constant": false,
      "inputs": [
        {
          "name": "_newOwner",
          "type": "address"
        }
      ],
      "name": "transferOwnership",
      "outputs": [],
      "payable": false,
      "stateMutability": "nonpayable",
      "type": "function"
    },
    {
      "inputs": [],
      "payable": false,
      "stateMutability": "nonpayable",
      "type": "constructor"
    },
    {
      "anonymous": false,
      "inputs": [
        {
          "indexed": false,
          "name": "id",
          "type": "uint256"
        },
        {
          "indexed": false,
          "name": "name",
          "type": "string"
        },
        {
          "indexed": false,
          "name": "traits",
          "type": "uint256"
        }
      ],
      "name": "SeedCreated",
      "type": "event"
    },
    {
      "anonymous": false,
      "inputs": [
        {
          "indexed": true,
          "name": "previousOwner",
          "type": "address"
        }
      ],
      "name": "OwnershipRenounced",
      "type": "event"
    },
    {
      "anonymous": false,
      "inputs": [
        {
          "indexed": true,
          "name": "previousOwner",
          "type": "address"
        },
        {
          "indexed": true,
          "name": "newOwner",
          "type": "address"
        }
      ],
      "name": "OwnershipTransferred",
      "type": "event"
    },
    {
      "constant": false,
      "inputs": [
        {
          "name": "_id",
          "type": "uint256"
        }
      ],
      "name": "createRandomSeed",
      "outputs": [],
      "payable": false,
      "stateMutability": "nonpayable",
      "type": "function"
    },
    {
      "constant": true,
      "inputs": [
        {
          "name": "_seedId",
          "type": "uint256"
        }
      ],
      "name": "getType",
      "outputs": [
        {
          "name": "",
          "type": "uint256"
        }
      ],
      "payable": false,
      "stateMutability": "view",
      "type": "function"
    },
    {
      "constant": true,
      "inputs": [
        {
          "name": "_seedId",
          "type": "uint256"
        }
      ],
      "name": "getBonus",
      "outputs": [
        {
          "name": "",
          "type": "uint256"
        }
      ],
      "payable": false,
      "stateMutability": "view",
      "type": "function"
    }
  ],
  "bytecode": "0x608060405260066004556006600555600554600a0a60065534801561002357600080fd5b50336000806101000a81548173ffffffffffffffffffffffffffffffffffffffff021916908373ffffffffffffffffffffffffffffffffffffffff16021790555060056003600080815260200190815260200160002060006101000a81548160ff021916908360ff1602179055506008600360006001815260200190815260200160002060006101000a81548160ff021916908360ff1602179055506008600360006002815260200190815260200160002060006101000a81548160ff021916908360ff160217905550600a600360006003815260200190815260200160002060006101000a81548160ff021916908360ff1602179055506008600360006004815260200190815260200160002060006101000a81548160ff021916908360ff160217905550600a600360006005815260200190815260200160002060006101000a81548160ff021916908360ff160217905550611379806101866000396000f3006080604052600436106100af576000357c0100000000000000000000000000000000000000000000000000000000900463ffffffff1680633ca7aac3146100b45780634036ab781461010b5780634aa66b281461014c5780635ebad7011461018d578063715018a6146101fa5780637917ab05146102115780638da5cb5b14610258578063b5eddba3146102af578063bdd6296514610318578063f0503e8014610345578063f2fde38b1461040a575b600080fd5b3480156100c057600080fd5b506100f5600480360381019080803573ffffffffffffffffffffffffffffffffffffffff16906020019092919050505061044d565b6040518082815260200191505060405180910390f35b34801561011757600080fd5b5061013660048036038101908080359060200190929190505050610465565b6040518082815260200191505060405180910390f35b34801561015857600080fd5b50610177600480360381019080803590602001909291905050506104c3565b6040518082815260200191505060405180910390f35b34801561019957600080fd5b506101b860048036038101908080359060200190929190505050610524565b604051808273ffffffffffffffffffffffffffffffffffffffff1673ffffffffffffffffffffffffffffffffffffffff16815260200191505060405180910390f35b34801561020657600080fd5b5061020f610557565b005b34801561021d57600080fd5b5061023c600480360381019080803590602001909291905050506106e8565b604051808260ff1660ff16815260200191505060405180910390f35b34801561026457600080fd5b5061026d610708565b604051808273ffffffffffffffffffffffffffffffffffffffff1673ffffffffffffffffffffffffffffffffffffffff16815260200191505060405180910390f35b3480156102bb57600080fd5b50610316600480360381019080803590602001908201803590602001908080601f016020809104026020016040519081016040528093929190818152602001838380828437820191505050505050919291929050505061072d565b005b34801561032457600080fd5b5061034360048036038101908080359060200190929190505050610849565b005b34801561035157600080fd5b50610370600480360381019080803590602001909291905050506108b2565b60405180806020018581526020018460ff1660ff16815260200183151515158152602001828103825286818151815260200191508051906020019080838360005b838110156103cc5780820151818401526020810190506103b1565b50505050905090810190601f1680156103f95780820380516001836020036101000a031916815260200191505b509550505050505060405180910390f35b34801561041657600080fd5b5061044b600480360381019080803573ffffffffffffffffffffffffffffffffffffffff1690602001909291905050506109a3565b005b60026020528060005260406000206000915090505481565b600080600060078481548110151561047957fe5b906000526020600020906003020191506103e8826001015481151561049a57fe5b0490506064818115156104a957fe5b069050600454818115156104b957fe5b0692505050919050565b60008060006007848154811015156104d757fe5b90600052602060002090600302019150620186a082600101548115156104f957fe5b049050600a8181151561050857fe5b069050600160038281151561051957fe5b060392505050919050565b60086020528060005260406000206000915054906101000a900473ffffffffffffffffffffffffffffffffffffffff1681565b6000809054906101000a900473ffffffffffffffffffffffffffffffffffffffff1673ffffffffffffffffffffffffffffffffffffffff163373ffffffffffffffffffffffffffffffffffffffff16141515610641576040517f08c379a00000000000000000000000000000000000000000000000000000000081526004018080602001828103825260278152602001807f4f6e6c7920746865206f776e65722063616e20706572666f726d20746869732081526020017f616374696f6e2e0000000000000000000000000000000000000000000000000081525060400191505060405180910390fd5b6000809054906101000a900473ffffffffffffffffffffffffffffffffffffffff1673ffffffffffffffffffffffffffffffffffffffff167ff8df31144d9c2f0f6b59d69b8b98abd5459d07f2742c4df920b25aae33c6482060405160405180910390a260008060006101000a81548173ffffffffffffffffffffffffffffffffffffffff021916908373ffffffffffffffffffffffffffffffffffffffff160217905550565b60036020528060005260406000206000915054906101000a900460ff1681565b6000809054906101000a900473ffffffffffffffffffffffffffffffffffffffff1681565b6000600160806040519081016040528084815260200160006040519080825280602002602001820160405280156107735781602001602082028038833980820191505090505b50815260200160018152602001438152509080600181540180825580915050906001820390600052602060002090600402016000909192909190915060008201518160000190805190602001906107cb92919061125b565b5060208201518160010190805190602001906107e89291906112db565b5060408201518160020155606082015181600301555050905080600260003373ffffffffffffffffffffffffffffffffffffffff1673ffffffffffffffffffffffffffffffffffffffff168152602001908152602001600020819055505050565b600061085482610a99565b90506108ae6108a86040805190810160405280600581526020017f53656564200000000000000000000000000000000000000000000000000000008152506108a3600780549050600102610b3a565b610c3d565b82610e0e565b5050565b6007818154811015156108c157fe5b9060005260206000209060030201600091509050806000018054600181600116156101000203166002900480601f01602080910402602001604051908101604052809291908181526020018280546001816001161561010002031660029004801561096d5780601f106109425761010080835404028352916020019161096d565b820191906000526020600020905b81548152906001019060200180831161095057829003601f168201915b5050505050908060010154908060020160009054906101000a900460ff16908060020160019054906101000a900460ff16905084565b6000809054906101000a900473ffffffffffffffffffffffffffffffffffffffff1673ffffffffffffffffffffffffffffffffffffffff163373ffffffffffffffffffffffffffffffffffffffff16141515610a8d576040517f08c379a00000000000000000000000000000000000000000000000000000000081526004018080602001828103825260278152602001807f4f6e6c7920746865206f776e65722063616e20706572666f726d20746869732081526020017f616374696f6e2e0000000000000000000000000000000000000000000000000081525060400191505060405180910390fd5b610a968161106e565b50565b60008082604051602001808281526020019150506040516020818303038152906040526040518082805190602001908083835b602083101515610af15780518252602082019150602081019050602083039250610acc565b6001836020036101000a038019825116818451168082178552505050505050905001915050604051809103902060019004905060065481811515610b3157fe5b06915050919050565b60608060008060206040519080825280601f01601f191660200182016040528015610b745781602001602082028038833980820191505090505b509250600091505b6020821015610c32578160080260020a856001900402600102905060007f010000000000000000000000000000000000000000000000000000000000000002817effffffffffffffffffffffffffffffffffffffffffffffffffffffffffffff1916141515610c2557808383815181101515610bf457fe5b9060200101907effffffffffffffffffffffffffffffffffffffffffffffffffffffffffffff1916908160001a9053505b8180600101925050610b7c565b829350505050919050565b606080606080606060008088955087945084518651016040519080825280601f01601f191660200182016040528015610c855781602001602082028038833980820191505090505b50935083925060009150600090505b8551811015610d47578581815181101515610cab57fe5b9060200101517f010000000000000000000000000000000000000000000000000000000000000090047f0100000000000000000000000000000000000000000000000000000000000000028383806001019450815181101515610d0a57fe5b9060200101907effffffffffffffffffffffffffffffffffffffffffffffffffffffffffffff1916908160001a9053508080600101915050610c94565b600090505b8451811015610dff578481815181101515610d6357fe5b9060200101517f010000000000000000000000000000000000000000000000000000000000000090047f0100000000000000000000000000000000000000000000000000000000000000028383806001019450815181101515610dc257fe5b9060200101907effffffffffffffffffffffffffffffffffffffffffffffffffffffffffffff1916908160001a9053508080600101915050610d4c565b82965050505050505092915050565b600060016007608060405190810160405280868152602001858152602001600060ff16815260200160001515815250908060018154018082558091505090600182039060005260206000209060030201600090919290919091506000820151816000019080519060200190610e8492919061125b565b506020820151816001015560408201518160020160006101000a81548160ff021916908360ff16021790555060608201518160020160016101000a81548160ff0219169083151502179055505050039050336008600083815260200190815260200160002060006101000a81548173ffffffffffffffffffffffffffffffffffffffff021916908373ffffffffffffffffffffffffffffffffffffffff160217905550610f7a6001600960003373ffffffffffffffffffffffffffffffffffffffff1673ffffffffffffffffffffffffffffffffffffffff168152602001908152602001600020546111d190919063ffffffff16565b600960003373ffffffffffffffffffffffffffffffffffffffff1673ffffffffffffffffffffffffffffffffffffffff168152602001908152602001600020819055507fce48bf19e08859bf5b7fbde70faeb415663b4ea48c7c5cc270eeea608901f5238184846040518084815260200180602001838152602001828103825284818151815260200191508051906020019080838360005b8381101561102d578082015181840152602081019050611012565b50505050905090810190601f16801561105a5780820380516001836020036101000a031916815260200191505b5094505050505060405180910390a1505050565b600073ffffffffffffffffffffffffffffffffffffffff168173ffffffffffffffffffffffffffffffffffffffff1614151515611113576040517f08c379a00000000000000000000000000000000000000000000000000000000081526004018080602001828103825260198152602001807f54686520616464726573732063616e2774206265203078302e0000000000000081525060200191505060405180910390fd5b8073ffffffffffffffffffffffffffffffffffffffff166000809054906101000a900473ffffffffffffffffffffffffffffffffffffffff1673ffffffffffffffffffffffffffffffffffffffff167f8be0079c531659141344cd1fd0a4f28419497f9722a3daafe3b4186f6b6457e060405160405180910390a3806000806101000a81548173ffffffffffffffffffffffffffffffffffffffff021916908373ffffffffffffffffffffffffffffffffffffffff16021790555050565b6000808284019050838110151515611251576040517f08c379a00000000000000000000000000000000000000000000000000000000081526004018080602001828103825260088152602001807f4f766572666c6f7700000000000000000000000000000000000000000000000081525060200191505060405180910390fd5b8091505092915050565b828054600181600116156101000203166002900490600052602060002090601f016020900481019282601f1061129c57805160ff19168380011785556112ca565b828001600101855582156112ca579182015b828111156112c95782518255916020019190600101906112ae565b5b5090506112d79190611328565b5090565b828054828255906000526020600020908101928215611317579160200282015b828111156113165782518255916020019190600101906112fb565b5b5090506113249190611328565b5090565b61134a91905b8082111561134657600081600090555060010161132e565b5090565b905600a165627a7a72305820c0e5ec30558492a307700ea2a67d5d726a23e18ea1a1b972aac1f889c9b6cd5d0029",
  "source": "// solium-disable linebreak-style\r\npragma solidity ^0.4.24;\r\n\r\nimport \"./EPlayer.sol\";\r\n\r\n\r\ncontract ESeed is EPlayer{\r\n    \r\n    mapping (uint => uint8) public daysToHarvest;\r\n\r\n    constructor() public {\r\n        daysToHarvest[0] = 5;\r\n        daysToHarvest[1] = 8;\r\n        daysToHarvest[2] = 8;\r\n        daysToHarvest[3] = 10;\r\n        daysToHarvest[4] = 8;\r\n        daysToHarvest[5] = 10;\r\n    }\r\n\r\n    event SeedCreated(\r\n        uint id,\r\n        string name,\r\n        uint traits\r\n    );\r\n\r\n    uint seedsTypes = 6;\r\n\r\n    uint traitsDigits = 6;\r\n    uint traitsModulus = 10 ** traitsDigits;\r\n\r\n    //Traits\r\n    // 3: hue -> 0 to 359, saturation and value are both 1\r\n    // 2: type -> 0 to 5 for now, in order they are Turnip, Potato, Onion, Tomato, Carrot, Eggplant\r\n    // 1: bonus -> -1 to 1\r\n\r\n    struct Seed {\r\n        string name;\r\n        uint traits;\r\n        uint8 remainingDays;\r\n        bool isWatered;\r\n    }\r\n\r\n    Seed[] public seeds;\r\n\r\n    mapping (uint => address) public seedOwner;\r\n    mapping (address => uint) ownedSeedsCount;\r\n\r\n    function _createSeed(string _name, uint _traits) private {\r\n        uint id = seeds.push(Seed(_name, _traits, 0, false)) - 1;\r\n        seedOwner[id] = msg.sender;\r\n        ownedSeedsCount[msg.sender] = ownedSeedsCount[msg.sender].add(1);\r\n        emit SeedCreated(id, _name, _traits);\r\n    }\r\n\r\n    function _generateRandomTraits(uint _int) private view returns (uint) {\r\n        uint rand = uint(keccak256(abi.encode(_int)));\r\n        return rand % traitsModulus;\r\n    }\r\n\r\n    function createRandomSeed(uint _id) public {\r\n        //require(ownedSeedsCount[msg.sender] == 0, \"The first seed was already created\");\r\n        uint randTraits = _generateRandomTraits(_id);\r\n        _createSeed(strConcat(\"Seed \",bytes32ToString(bytes32(seeds.length))), randTraits);\r\n    }\r\n\r\n    function getType(uint _seedId) public view returns (uint){\r\n        Seed storage seed = seeds[_seedId];\r\n        uint seedType = seed.traits/1000;\r\n        seedType = seedType % 100;\r\n        return seedType % seedsTypes;\r\n    }\r\n\r\n    function getBonus(uint _seedId) public view returns (uint){\r\n        Seed storage seed = seeds[_seedId];\r\n        uint seedBonus = seed.traits/100000;\r\n        seedBonus = seedBonus % 10;\r\n        return seedBonus % 3 - 1;\r\n    }\r\n\r\n    function bytes32ToString (bytes32 data) private pure returns (string) {\r\n        bytes memory bytesString = new bytes(32);\r\n        for (uint j = 0; j < 32; j++) {\r\n            byte char = byte(bytes32(uint(data) * 2 ** (8 * j)));\r\n            if (char != 0) {\r\n                bytesString[j] = char;\r\n            }\r\n        }\r\n        return string(bytesString);\r\n    }\r\n\r\n    function strConcat(string _a, string _b) private pure returns (string){\r\n        bytes memory _ba = bytes(_a);\r\n        bytes memory _bb = bytes(_b);\r\n        string memory ab = new string(_ba.length + _bb.length);\r\n        bytes memory bab = bytes(ab);\r\n        uint k = 0;\r\n        for (uint i = 0; i < _ba.length; i++) bab[k++] = _ba[i];\r\n        for (i = 0; i < _bb.length; i++) bab[k++] = _bb[i];\r\n        return string(bab);\r\n    }\r\n\r\n\r\n    //enum Seasons {SPRING, SUMMER, FALL, WINTER}\r\n\r\n    //struct Player {\r\n        //Seasons season; // = Seasons.SPRING;\r\n        //uint8 current_day\r\n\r\n\r\n    //}\r\n\r\n\r\n}",
  "sourcePath": "D:\\Solidity\\EtherealLands\\contracts\\ESeed.sol",
  "compiler": {
    "name": "solc",
    "version": "0.4.24+commit.e67f0147.Emscripten.clang"
  },
  "schemaVersion": "2.0.1",
  "updatedAt": "2018-08-23T08:05:30.571Z"
}