{
  "contractName": "ESeed",
  "abi": [
    {
      "constant": true,
      "inputs": [
        {
          "name": "",
          "type": "address"
        }
      ],
      "name": "ownerPlayer",
      "outputs": [
        {
          "name": "",
          "type": "uint256"
        }
      ],
      "payable": false,
      "stateMutability": "view",
      "type": "function"
    },
    {
      "constant": true,
      "inputs": [
        {
          "name": "",
          "type": "uint256"
        }
      ],
      "name": "seedOwner",
      "outputs": [
        {
          "name": "",
          "type": "address"
        }
      ],
      "payable": false,
      "stateMutability": "view",
      "type": "function"
    },
    {
      "constant": false,
      "inputs": [],
      "name": "renounceOwnership",
      "outputs": [],
      "payable": false,
      "stateMutability": "nonpayable",
      "type": "function"
    },
    {
      "constant": true,
      "inputs": [
        {
          "name": "",
          "type": "uint256"
        }
      ],
      "name": "daysToHarvest",
      "outputs": [
        {
          "name": "",
          "type": "uint8"
        }
      ],
      "payable": false,
      "stateMutability": "view",
      "type": "function"
    },
    {
      "constant": true,
      "inputs": [],
      "name": "owner",
      "outputs": [
        {
          "name": "",
          "type": "address"
        }
      ],
      "payable": false,
      "stateMutability": "view",
      "type": "function"
    },
    {
      "constant": true,
      "inputs": [
        {
          "name": "",
          "type": "uint256"
        }
      ],
      "name": "seeds",
      "outputs": [
        {
          "name": "name",
          "type": "string"
        },
        {
          "name": "traits",
          "type": "uint256"
        },
        {
          "name": "remainingDays",
          "type": "uint8"
        },
        {
          "name": "isWatered",
          "type": "bool"
        }
      ],
      "payable": false,
      "stateMutability": "view",
      "type": "function"
    },
    {
      "constant": false,
      "inputs": [
        {
          "name": "_newOwner",
          "type": "address"
        }
      ],
      "name": "transferOwnership",
      "outputs": [],
      "payable": false,
      "stateMutability": "nonpayable",
      "type": "function"
    },
    {
      "constant": true,
      "inputs": [
        {
          "name": "",
          "type": "uint256"
        }
      ],
      "name": "players",
      "outputs": [
        {
          "name": "name",
          "type": "string"
        },
        {
          "name": "currentDay",
          "type": "uint256"
        },
        {
          "name": "lastBedtime",
          "type": "uint256"
        }
      ],
      "payable": false,
      "stateMutability": "view",
      "type": "function"
    },
    {
      "inputs": [],
      "payable": false,
      "stateMutability": "nonpayable",
      "type": "constructor"
    },
    {
      "anonymous": false,
      "inputs": [
        {
          "indexed": false,
          "name": "id",
          "type": "uint256"
        },
        {
          "indexed": false,
          "name": "name",
          "type": "string"
        },
        {
          "indexed": false,
          "name": "traits",
          "type": "uint256"
        }
      ],
      "name": "SeedCreated",
      "type": "event"
    },
    {
      "anonymous": false,
      "inputs": [
        {
          "indexed": true,
          "name": "previousOwner",
          "type": "address"
        }
      ],
      "name": "OwnershipRenounced",
      "type": "event"
    },
    {
      "anonymous": false,
      "inputs": [
        {
          "indexed": true,
          "name": "previousOwner",
          "type": "address"
        },
        {
          "indexed": true,
          "name": "newOwner",
          "type": "address"
        }
      ],
      "name": "OwnershipTransferred",
      "type": "event"
    },
    {
      "constant": false,
      "inputs": [
        {
          "name": "_id",
          "type": "uint256"
        }
      ],
      "name": "createRandomSeed",
      "outputs": [],
      "payable": false,
      "stateMutability": "nonpayable",
      "type": "function"
    },
    {
      "constant": true,
      "inputs": [
        {
          "name": "_seedId",
          "type": "uint256"
        }
      ],
      "name": "getType",
      "outputs": [
        {
          "name": "",
          "type": "uint256"
        }
      ],
      "payable": false,
      "stateMutability": "view",
      "type": "function"
    },
    {
      "constant": true,
      "inputs": [
        {
          "name": "_seedId",
          "type": "uint256"
        }
      ],
      "name": "getBonus",
      "outputs": [
        {
          "name": "",
          "type": "uint256"
        }
      ],
      "payable": false,
      "stateMutability": "view",
      "type": "function"
    },
    {
      "constant": true,
      "inputs": [],
      "name": "getTotalSeeds",
      "outputs": [
        {
          "name": "",
          "type": "uint256"
        }
      ],
      "payable": false,
      "stateMutability": "view",
      "type": "function"
    },
    {
      "constant": false,
      "inputs": [
        {
          "name": "_name",
          "type": "string"
        }
      ],
      "name": "createLand",
      "outputs": [],
      "payable": false,
      "stateMutability": "nonpayable",
      "type": "function"
    }
  ],
  "bytecode": "0x608060405260066004556006600555600554600a0a60065534801561002357600080fd5b50336000806101000a81548173ffffffffffffffffffffffffffffffffffffffff021916908373ffffffffffffffffffffffffffffffffffffffff16021790555060026003600080815260200190815260200160002060006101000a81548160ff021916908360ff1602179055506002600360006001815260200190815260200160002060006101000a81548160ff021916908360ff1602179055506002600360006002815260200190815260200160002060006101000a81548160ff021916908360ff1602179055506002600360006003815260200190815260200160002060006101000a81548160ff021916908360ff1602179055506002600360006004815260200190815260200160002060006101000a81548160ff021916908360ff1602179055506002600360006005815260200190815260200160002060006101000a81548160ff021916908360ff16021790555061156f806101866000396000f3006080604052600436106100c5576000357c0100000000000000000000000000000000000000000000000000000000900463ffffffff1680630d194370146100ca5780634036ab78146101215780634aa66b28146101625780635ebad701146101a3578063715018a6146102105780637917ab05146102275780638da5cb5b1461026e5780639d30d063146102c5578063b5eddba3146102f0578063bdd6296514610359578063f0503e8014610386578063f2fde38b1461044b578063f71d96cb1461048e575b600080fd5b3480156100d657600080fd5b5061010b600480360381019080803573ffffffffffffffffffffffffffffffffffffffff169060200190929190505050610542565b6040518082815260200191505060405180910390f35b34801561012d57600080fd5b5061014c6004803603810190808035906020019092919050505061055a565b6040518082815260200191505060405180910390f35b34801561016e57600080fd5b5061018d600480360381019080803590602001909291905050506105b8565b6040518082815260200191505060405180910390f35b3480156101af57600080fd5b506101ce60048036038101908080359060200190929190505050610619565b604051808273ffffffffffffffffffffffffffffffffffffffff1673ffffffffffffffffffffffffffffffffffffffff16815260200191505060405180910390f35b34801561021c57600080fd5b5061022561064c565b005b34801561023357600080fd5b50610252600480360381019080803590602001909291905050506107dd565b604051808260ff1660ff16815260200191505060405180910390f35b34801561027a57600080fd5b506102836107fd565b604051808273ffffffffffffffffffffffffffffffffffffffff1673ffffffffffffffffffffffffffffffffffffffff16815260200191505060405180910390f35b3480156102d157600080fd5b506102da610822565b6040518082815260200191505060405180910390f35b3480156102fc57600080fd5b50610357600480360381019080803590602001908201803590602001908080601f016020809104026020016040519081016040528093929190818152602001838380828437820191505050505050919291929050505061082f565b005b34801561036557600080fd5b5061038460048036038101908080359060200190929190505050610959565b005b34801561039257600080fd5b506103b160048036038101908080359060200190929190505050610a0b565b60405180806020018581526020018460ff1660ff16815260200183151515158152602001828103825286818151815260200191508051906020019080838360005b8381101561040d5780820151818401526020810190506103f2565b50505050905090810190601f16801561043a5780820380516001836020036101000a031916815260200191505b509550505050505060405180910390f35b34801561045757600080fd5b5061048c600480360381019080803573ffffffffffffffffffffffffffffffffffffffff169060200190929190505050610afc565b005b34801561049a57600080fd5b506104b960048036038101908080359060200190929190505050610bf2565b6040518080602001848152602001838152602001828103825285818151815260200191508051906020019080838360005b838110156105055780820151818401526020810190506104ea565b50505050905090810190601f1680156105325780820380516001836020036101000a031916815260200191505b5094505050505060405180910390f35b60026020528060005260406000206000915090505481565b600080600060078481548110151561056e57fe5b906000526020600020906003020191506103e8826001015481151561058f57fe5b04905060648181151561059e57fe5b069050600454818115156105ae57fe5b0692505050919050565b60008060006007848154811015156105cc57fe5b90600052602060002090600302019150620186a082600101548115156105ee57fe5b049050600a818115156105fd57fe5b069050600160038281151561060e57fe5b060392505050919050565b60086020528060005260406000206000915054906101000a900473ffffffffffffffffffffffffffffffffffffffff1681565b6000809054906101000a900473ffffffffffffffffffffffffffffffffffffffff1673ffffffffffffffffffffffffffffffffffffffff163373ffffffffffffffffffffffffffffffffffffffff16141515610736576040517f08c379a00000000000000000000000000000000000000000000000000000000081526004018080602001828103825260278152602001807f4f6e6c7920746865206f776e65722063616e20706572666f726d20746869732081526020017f616374696f6e2e0000000000000000000000000000000000000000000000000081525060400191505060405180910390fd5b6000809054906101000a900473ffffffffffffffffffffffffffffffffffffffff1673ffffffffffffffffffffffffffffffffffffffff167ff8df31144d9c2f0f6b59d69b8b98abd5459d07f2742c4df920b25aae33c6482060405160405180910390a260008060006101000a81548173ffffffffffffffffffffffffffffffffffffffff021916908373ffffffffffffffffffffffffffffffffffffffff160217905550565b60036020528060005260406000206000915054906101000a900460ff1681565b6000809054906101000a900473ffffffffffffffffffffffffffffffffffffffff1681565b6000600780549050905090565b6000600160806040519081016040528084815260200160006040519080825280602002602001820160405280156108755781602001602082028038833980820191505090505b50815260200160018152602001438152509080600181540180825580915050906001820390600052602060002090600402016000909192909190915060008201518160000190805190602001906108cd929190611451565b5060208201518160010190805190602001906108ea9291906114d1565b5060408201518160020155606082015181600301555050905080600260003373ffffffffffffffffffffffffffffffffffffffff1673ffffffffffffffffffffffffffffffffffffffff16815260200190815260200160002081905550610955600780549050610959565b5050565b600061096482610cc3565b905060006007805490501415156109c7576109c26109bc6040805190810160405280600581526020017f5365656420000000000000000000000000000000000000000000000000000000815250600780549050610d64565b82611004565b610a07565b610a066040805190810160405280600681526020017f536565642030000000000000000000000000000000000000000000000000000081525082611004565b5b5050565b600781815481101515610a1a57fe5b9060005260206000209060030201600091509050806000018054600181600116156101000203166002900480601f016020809104026020016040519081016040528092919081815260200182805460018160011615610100020316600290048015610ac65780601f10610a9b57610100808354040283529160200191610ac6565b820191906000526020600020905b815481529060010190602001808311610aa957829003601f168201915b5050505050908060010154908060020160009054906101000a900460ff16908060020160019054906101000a900460ff16905084565b6000809054906101000a900473ffffffffffffffffffffffffffffffffffffffff1673ffffffffffffffffffffffffffffffffffffffff163373ffffffffffffffffffffffffffffffffffffffff16141515610be6576040517f08c379a00000000000000000000000000000000000000000000000000000000081526004018080602001828103825260278152602001807f4f6e6c7920746865206f776e65722063616e20706572666f726d20746869732081526020017f616374696f6e2e0000000000000000000000000000000000000000000000000081525060400191505060405180910390fd5b610bef81611264565b50565b600181815481101515610c0157fe5b9060005260206000209060040201600091509050806000018054600181600116156101000203166002900480601f016020809104026020016040519081016040528092919081815260200182805460018160011615610100020316600290048015610cad5780601f10610c8257610100808354040283529160200191610cad565b820191906000526020600020905b815481529060010190602001808311610c9057829003601f168201915b5050505050908060020154908060030154905083565b60008082604051602001808281526020019150506040516020818303038152906040526040518082805190602001908083835b602083101515610d1b5780518252602082019150602081019050602083039250610cf6565b6001836020036101000a038019825116818451168082178552505050505050905001915050604051809103902060019004905060065481811515610d5b57fe5b06915050919050565b60606000806060600080606080600089975060649650866040519080825280601f01601f191660200182016040528015610dad5781602001602082028038833980820191505090505b509550600094505b600088141515610e4c57600a88811515610dcb57fe5b069350600a88811515610dda57fe5b049750836030017f0100000000000000000000000000000000000000000000000000000000000000028686806001019750815181101515610e1757fe5b9060200101907effffffffffffffffffffffffffffffffffffffffffffffffffffffffffffff1916908160001a905350610db5565b8a9250848351016040519080825280601f01601f191660200182016040528015610e855781602001602082028038833980820191505090505b509150600090505b8251811015610f3a578281815181101515610ea457fe5b9060200101517f010000000000000000000000000000000000000000000000000000000000000090047f0100000000000000000000000000000000000000000000000000000000000000028282815181101515610efd57fe5b9060200101907effffffffffffffffffffffffffffffffffffffffffffffffffffffffffffff1916908160001a9053508080600101915050610e8d565b600090505b84811015610ff35785816001870303815181101515610f5a57fe5b9060200101517f010000000000000000000000000000000000000000000000000000000000000090047f0100000000000000000000000000000000000000000000000000000000000000028284518301815181101515610fb657fe5b9060200101907effffffffffffffffffffffffffffffffffffffffffffffffffffffffffffff1916908160001a9053508080600101915050610f3f565b819850505050505050505092915050565b600060016007608060405190810160405280868152602001858152602001600060ff1681526020016000151581525090806001815401808255809150509060018203906000526020600020906003020160009091929091909150600082015181600001908051906020019061107a929190611451565b506020820151816001015560408201518160020160006101000a81548160ff021916908360ff16021790555060608201518160020160016101000a81548160ff0219169083151502179055505050039050336008600083815260200190815260200160002060006101000a81548173ffffffffffffffffffffffffffffffffffffffff021916908373ffffffffffffffffffffffffffffffffffffffff1602179055506111706001600960003373ffffffffffffffffffffffffffffffffffffffff1673ffffffffffffffffffffffffffffffffffffffff168152602001908152602001600020546113c790919063ffffffff16565b600960003373ffffffffffffffffffffffffffffffffffffffff1673ffffffffffffffffffffffffffffffffffffffff168152602001908152602001600020819055507fce48bf19e08859bf5b7fbde70faeb415663b4ea48c7c5cc270eeea608901f5238184846040518084815260200180602001838152602001828103825284818151815260200191508051906020019080838360005b83811015611223578082015181840152602081019050611208565b50505050905090810190601f1680156112505780820380516001836020036101000a031916815260200191505b5094505050505060405180910390a1505050565b600073ffffffffffffffffffffffffffffffffffffffff168173ffffffffffffffffffffffffffffffffffffffff1614151515611309576040517f08c379a00000000000000000000000000000000000000000000000000000000081526004018080602001828103825260198152602001807f54686520616464726573732063616e2774206265203078302e0000000000000081525060200191505060405180910390fd5b8073ffffffffffffffffffffffffffffffffffffffff166000809054906101000a900473ffffffffffffffffffffffffffffffffffffffff1673ffffffffffffffffffffffffffffffffffffffff167f8be0079c531659141344cd1fd0a4f28419497f9722a3daafe3b4186f6b6457e060405160405180910390a3806000806101000a81548173ffffffffffffffffffffffffffffffffffffffff021916908373ffffffffffffffffffffffffffffffffffffffff16021790555050565b6000808284019050838110151515611447576040517f08c379a00000000000000000000000000000000000000000000000000000000081526004018080602001828103825260088152602001807f4f766572666c6f7700000000000000000000000000000000000000000000000081525060200191505060405180910390fd5b8091505092915050565b828054600181600116156101000203166002900490600052602060002090601f016020900481019282601f1061149257805160ff19168380011785556114c0565b828001600101855582156114c0579182015b828111156114bf5782518255916020019190600101906114a4565b5b5090506114cd919061151e565b5090565b82805482825590600052602060002090810192821561150d579160200282015b8281111561150c5782518255916020019190600101906114f1565b5b50905061151a919061151e565b5090565b61154091905b8082111561153c576000816000905550600101611524565b5090565b905600a165627a7a723058205d8e23dd80d1cdee145988d0af4730ffaa2d5f1382f6765274ada0cde07e4cd50029",
  "source": "// solium-disable linebreak-style\r\npragma solidity ^0.4.24;\r\n\r\nimport \"./EPlayer.sol\";\r\n\r\n\r\ncontract ESeed is EPlayer{\r\n    \r\n    mapping (uint => uint8) public daysToHarvest;\r\n\r\n    // constructor() public {\r\n    //     daysToHarvest[0] = 5;\r\n    //     daysToHarvest[1] = 8;\r\n    //     daysToHarvest[2] = 8;\r\n    //     daysToHarvest[3] = 10;\r\n    //     daysToHarvest[4] = 8;\r\n    //     daysToHarvest[5] = 10;\r\n    // }\r\n\r\n    constructor() public {\r\n        daysToHarvest[0] = 2;\r\n        daysToHarvest[1] = 2;\r\n        daysToHarvest[2] = 2;\r\n        daysToHarvest[3] = 2;\r\n        daysToHarvest[4] = 2;\r\n        daysToHarvest[5] = 2;\r\n    }\r\n\r\n    event SeedCreated(\r\n        uint id,\r\n        string name,\r\n        uint traits\r\n    );\r\n\r\n    uint seedsTypes = 6;\r\n\r\n    uint traitsDigits = 6;\r\n    uint traitsModulus = 10 ** traitsDigits;\r\n\r\n    //Traits\r\n    // 3: hue -> 0 to 359, saturation and value are both 1\r\n    // 2: type -> 0 to 5 for now, in order they are Turnip, Potato, Onion, Tomato, Carrot, Eggplant\r\n    // 1: bonus -> -1 to 1\r\n\r\n    struct Seed {\r\n        string name;\r\n        uint traits;\r\n        uint8 remainingDays;\r\n        bool isWatered;\r\n    }\r\n\r\n    Seed[] public seeds;\r\n\r\n    mapping (uint => address) public seedOwner;\r\n    mapping (address => uint) ownedSeedsCount;\r\n\r\n    function _createSeed(string _name, uint _traits) private {\r\n        uint id = seeds.push(Seed(_name, _traits, 0, false)) - 1;\r\n        seedOwner[id] = msg.sender;\r\n        ownedSeedsCount[msg.sender] = ownedSeedsCount[msg.sender].add(1);\r\n        emit SeedCreated(id, _name, _traits);\r\n    }\r\n\r\n    function _generateRandomTraits(uint _int) private view returns (uint) {\r\n        uint rand = uint(keccak256(abi.encode(_int)));\r\n        return rand % traitsModulus;\r\n    }\r\n\r\n    function createRandomSeed(uint _id) public {\r\n        //require(ownedSeedsCount[msg.sender] == 0, \"The first seed was already created\");\r\n        uint randTraits = _generateRandomTraits(_id);\r\n        if(seeds.length != 0){\r\n            _createSeed(appendUintToString(\"Seed \", seeds.length), randTraits);\r\n        } else {\r\n            _createSeed(\"Seed 0\", randTraits);\r\n        }\r\n    }\r\n\r\n    function getType(uint _seedId) public view returns (uint){\r\n        Seed storage seed = seeds[_seedId];\r\n        uint seedType = seed.traits/1000;\r\n        seedType = seedType % 100;\r\n        return seedType % seedsTypes;\r\n    }\r\n\r\n    function getBonus(uint _seedId) public view returns (uint){\r\n        Seed storage seed = seeds[_seedId];\r\n        uint seedBonus = seed.traits/100000;\r\n        seedBonus = seedBonus % 10;\r\n        return seedBonus % 3 - 1;\r\n    }\r\n\r\n    function getTotalSeeds() external view returns(uint){\r\n        return seeds.length;\r\n    }\r\n\r\n    function appendUintToString(string inStr, uint _v) private pure returns (string) {\r\n        uint v = _v;\r\n        uint maxlength = 100;\r\n        bytes memory reversed = new bytes(maxlength);\r\n        uint i = 0;\r\n        while (v != 0) {\r\n            uint remainder = v % 10;\r\n            v = v / 10;\r\n            reversed[i++] = byte(48 + remainder);\r\n        }\r\n        bytes memory inStrb = bytes(inStr);\r\n        bytes memory s = new bytes(inStrb.length + i);\r\n        uint j;\r\n        for (j = 0; j < inStrb.length; j++) {\r\n            s[j] = inStrb[j];\r\n        }\r\n        for (j = 0; j < i; j++) {\r\n            s[j + inStrb.length] = reversed[i - 1 - j];\r\n        }\r\n        return string(s);\r\n    }\r\n\r\n    function createLand(string _name) public{\r\n        uint id = players.push(Player(_name, new uint[](0), 1, block.number)); //- 1\r\n        ownerPlayer[msg.sender] = id;\r\n        createRandomSeed(seeds.length);\r\n    }\r\n\r\n\r\n    //enum Seasons {SPRING, SUMMER, FALL, WINTER}\r\n\r\n    //struct Player {\r\n        //Seasons season; // = Seasons.SPRING;\r\n        //uint8 current_day\r\n\r\n\r\n    //}\r\n\r\n\r\n}",
  "sourcePath": "D:\\Solidity\\EtherealLands\\contracts\\ESeed.sol",
  "compiler": {
    "name": "solc",
    "version": "0.4.24+commit.e67f0147.Emscripten.clang"
  },
  "schemaVersion": "2.0.1",
  "updatedAt": "2018-08-24T08:50:26.821Z"
}