{
  "contractName": "ESleep",
  "abi": [
    {
      "constant": true,
      "inputs": [
        {
          "name": "",
          "type": "address"
        }
      ],
      "name": "ownerPlayer",
      "outputs": [
        {
          "name": "",
          "type": "uint256"
        }
      ],
      "payable": false,
      "stateMutability": "view",
      "type": "function"
    },
    {
      "constant": false,
      "inputs": [
        {
          "name": "_seedId",
          "type": "uint256"
        }
      ],
      "name": "seedPlanting",
      "outputs": [],
      "payable": false,
      "stateMutability": "nonpayable",
      "type": "function"
    },
    {
      "constant": true,
      "inputs": [
        {
          "name": "_owner",
          "type": "address"
        }
      ],
      "name": "getSeedsByOwner",
      "outputs": [
        {
          "name": "",
          "type": "uint256[]"
        }
      ],
      "payable": false,
      "stateMutability": "view",
      "type": "function"
    },
    {
      "constant": true,
      "inputs": [
        {
          "name": "_seedId",
          "type": "uint256"
        }
      ],
      "name": "getType",
      "outputs": [
        {
          "name": "",
          "type": "uint256"
        }
      ],
      "payable": false,
      "stateMutability": "view",
      "type": "function"
    },
    {
      "constant": true,
      "inputs": [
        {
          "name": "_seedId",
          "type": "uint256"
        }
      ],
      "name": "getBonus",
      "outputs": [
        {
          "name": "",
          "type": "uint256"
        }
      ],
      "payable": false,
      "stateMutability": "view",
      "type": "function"
    },
    {
      "constant": true,
      "inputs": [
        {
          "name": "",
          "type": "uint256"
        }
      ],
      "name": "seedOwner",
      "outputs": [
        {
          "name": "",
          "type": "address"
        }
      ],
      "payable": false,
      "stateMutability": "view",
      "type": "function"
    },
    {
      "constant": false,
      "inputs": [],
      "name": "renounceOwnership",
      "outputs": [],
      "payable": false,
      "stateMutability": "nonpayable",
      "type": "function"
    },
    {
      "constant": true,
      "inputs": [
        {
          "name": "",
          "type": "uint256"
        }
      ],
      "name": "daysToHarvest",
      "outputs": [
        {
          "name": "",
          "type": "uint8"
        }
      ],
      "payable": false,
      "stateMutability": "view",
      "type": "function"
    },
    {
      "constant": true,
      "inputs": [],
      "name": "owner",
      "outputs": [
        {
          "name": "",
          "type": "address"
        }
      ],
      "payable": false,
      "stateMutability": "view",
      "type": "function"
    },
    {
      "constant": true,
      "inputs": [],
      "name": "getTotalSeeds",
      "outputs": [
        {
          "name": "",
          "type": "uint256"
        }
      ],
      "payable": false,
      "stateMutability": "view",
      "type": "function"
    },
    {
      "constant": false,
      "inputs": [
        {
          "name": "_name",
          "type": "string"
        }
      ],
      "name": "createLand",
      "outputs": [],
      "payable": false,
      "stateMutability": "nonpayable",
      "type": "function"
    },
    {
      "constant": false,
      "inputs": [
        {
          "name": "_id",
          "type": "uint256"
        }
      ],
      "name": "createRandomSeed",
      "outputs": [],
      "payable": false,
      "stateMutability": "nonpayable",
      "type": "function"
    },
    {
      "constant": false,
      "inputs": [
        {
          "name": "_seedId",
          "type": "uint256"
        }
      ],
      "name": "seedWatering",
      "outputs": [],
      "payable": false,
      "stateMutability": "nonpayable",
      "type": "function"
    },
    {
      "constant": true,
      "inputs": [
        {
          "name": "",
          "type": "uint256"
        }
      ],
      "name": "seeds",
      "outputs": [
        {
          "name": "name",
          "type": "string"
        },
        {
          "name": "traits",
          "type": "uint256"
        },
        {
          "name": "remainingDays",
          "type": "uint8"
        },
        {
          "name": "isWatered",
          "type": "bool"
        }
      ],
      "payable": false,
      "stateMutability": "view",
      "type": "function"
    },
    {
      "constant": false,
      "inputs": [
        {
          "name": "_newOwner",
          "type": "address"
        }
      ],
      "name": "transferOwnership",
      "outputs": [],
      "payable": false,
      "stateMutability": "nonpayable",
      "type": "function"
    },
    {
      "constant": true,
      "inputs": [
        {
          "name": "",
          "type": "uint256"
        }
      ],
      "name": "players",
      "outputs": [
        {
          "name": "name",
          "type": "string"
        },
        {
          "name": "currentDay",
          "type": "uint256"
        },
        {
          "name": "lastBedtime",
          "type": "uint256"
        }
      ],
      "payable": false,
      "stateMutability": "view",
      "type": "function"
    },
    {
      "anonymous": false,
      "inputs": [
        {
          "indexed": false,
          "name": "id",
          "type": "uint256"
        },
        {
          "indexed": false,
          "name": "name",
          "type": "string"
        },
        {
          "indexed": false,
          "name": "traits",
          "type": "uint256"
        }
      ],
      "name": "SeedCreated",
      "type": "event"
    },
    {
      "anonymous": false,
      "inputs": [
        {
          "indexed": true,
          "name": "previousOwner",
          "type": "address"
        }
      ],
      "name": "OwnershipRenounced",
      "type": "event"
    },
    {
      "anonymous": false,
      "inputs": [
        {
          "indexed": true,
          "name": "previousOwner",
          "type": "address"
        },
        {
          "indexed": true,
          "name": "newOwner",
          "type": "address"
        }
      ],
      "name": "OwnershipTransferred",
      "type": "event"
    },
    {
      "constant": false,
      "inputs": [],
      "name": "withdraw",
      "outputs": [],
      "payable": false,
      "stateMutability": "nonpayable",
      "type": "function"
    },
    {
      "constant": false,
      "inputs": [
        {
          "name": "_fee",
          "type": "uint256"
        }
      ],
      "name": "setSleepFee",
      "outputs": [],
      "payable": false,
      "stateMutability": "nonpayable",
      "type": "function"
    },
    {
      "constant": false,
      "inputs": [],
      "name": "goToBed",
      "outputs": [],
      "payable": false,
      "stateMutability": "nonpayable",
      "type": "function"
    },
    {
      "constant": false,
      "inputs": [],
      "name": "goToBedEarlier",
      "outputs": [],
      "payable": true,
      "stateMutability": "payable",
      "type": "function"
    }
  ],
  "bytecode": "0x608060405260066004556006600555600554600a0a6006556000600b5566038d7ea4c68000600c5562034bc0600d55336000806101000a81548173ffffffffffffffffffffffffffffffffffffffff021916908373ffffffffffffffffffffffffffffffffffffffff16021790555060026003600080815260200190815260200160002060006101000a81548160ff021916908360ff1602179055506002600360006001815260200190815260200160002060006101000a81548160ff021916908360ff1602179055506002600360006002815260200190815260200160002060006101000a81548160ff021916908360ff1602179055506002600360006003815260200190815260200160002060006101000a81548160ff021916908360ff1602179055506002600360006004815260200190815260200160002060006101000a81548160ff021916908360ff1602179055506002600360006005815260200190815260200160002060006101000a81548160ff021916908360ff1602179055506121d7806101906000396000f300608060405260043610610112576000357c0100000000000000000000000000000000000000000000000000000000900463ffffffff1680630d1943701461011757806310ff56ec1461016e5780633c1105421461019b5780633ccfd60b146102335780633ff3658a1461024a5780634036ab78146102545780634aa66b28146102955780634fa82fb2146102d65780635ebad70114610303578063677aef1e14610370578063715018a6146103875780637917ab051461039e5780638da5cb5b146103e55780639d30d0631461043c578063b5eddba314610467578063bdd62965146104d0578063c57dcc83146104fd578063f0503e801461052a578063f2fde38b146105ef578063f71d96cb14610632575b600080fd5b34801561012357600080fd5b50610158600480360381019080803573ffffffffffffffffffffffffffffffffffffffff1690602001909291905050506106e6565b6040518082815260200191505060405180910390f35b34801561017a57600080fd5b50610199600480360381019080803590602001909291905050506106fe565b005b3480156101a757600080fd5b506101dc600480360381019080803573ffffffffffffffffffffffffffffffffffffffff16906020019092919050505061091e565b6040518080602001828103825283818151815260200191508051906020019060200280838360005b8381101561021f578082015181840152602081019050610204565b505050509050019250505060405180910390f35b34801561023f57600080fd5b50610248610a50565b005b610252610bbb565b005b34801561026057600080fd5b5061027f60048036038101908080359060200190929190505050610c40565b6040518082815260200191505060405180910390f35b3480156102a157600080fd5b506102c060048036038101908080359060200190929190505050610c9e565b6040518082815260200191505060405180910390f35b3480156102e257600080fd5b5061030160048036038101908080359060200190929190505050610cff565b005b34801561030f57600080fd5b5061032e60048036038101908080359060200190929190505050610df3565b604051808273ffffffffffffffffffffffffffffffffffffffff1673ffffffffffffffffffffffffffffffffffffffff16815260200191505060405180910390f35b34801561037c57600080fd5b50610385610e26565b005b34801561039357600080fd5b5061039c610e32565b005b3480156103aa57600080fd5b506103c960048036038101908080359060200190929190505050610fc3565b604051808260ff1660ff16815260200191505060405180910390f35b3480156103f157600080fd5b506103fa610fe3565b604051808273ffffffffffffffffffffffffffffffffffffffff1673ffffffffffffffffffffffffffffffffffffffff16815260200191505060405180910390f35b34801561044857600080fd5b50610451611008565b6040518082815260200191505060405180910390f35b34801561047357600080fd5b506104ce600480360381019080803590602001908201803590602001908080601f0160208091040260200160405190810160405280939291908181526020018383808284378201915050505050509192919290505050611015565b005b3480156104dc57600080fd5b506104fb6004803603810190808035906020019092919050505061113f565b005b34801561050957600080fd5b50610528600480360381019080803590602001909291905050506111f1565b005b34801561053657600080fd5b506105556004803603810190808035906020019092919050505061136b565b60405180806020018581526020018460ff1660ff16815260200183151515158152602001828103825286818151815260200191508051906020019080838360005b838110156105b1578082015181840152602081019050610596565b50505050905090810190601f1680156105de5780820380516001836020036101000a031916815260200191505b509550505050505060405180910390f35b3480156105fb57600080fd5b50610630600480360381019080803573ffffffffffffffffffffffffffffffffffffffff16906020019092919050505061145c565b005b34801561063e57600080fd5b5061065d60048036038101908080359060200190929190505050611552565b6040518080602001848152602001838152602001828103825285818151815260200191508051906020019080838360005b838110156106a957808201518184015260208101905061068e565b50505050905090810190601f1680156106d65780820380516001836020036101000a031916815260200191505b5094505050505060405180910390f35b60026020528060005260406000206000915090505481565b600080823373ffffffffffffffffffffffffffffffffffffffff166008600083815260200190815260200160002060009054906101000a900473ffffffffffffffffffffffffffffffffffffffff1673ffffffffffffffffffffffffffffffffffffffff161415156107fe576040517f08c379a00000000000000000000000000000000000000000000000000000000081526004018080602001828103825260258152602001807f546865207365656420646f65736e27742062656c6f6e6720746f20746865207081526020017f6c6179657200000000000000000000000000000000000000000000000000000081525060400191505060405180910390fd5b60078481548110151561080d57fe5b9060005260206000209060030201925060008360020160009054906101000a900460ff1660ff16141561091857600180600260003373ffffffffffffffffffffffffffffffffffffffff1673ffffffffffffffffffffffffffffffffffffffff168152602001908152602001600020540381548110151561088a57fe5b906000526020600020906004020191506108a384610c9e565b600360006108b087610c40565b815260200190815260200160002060009054906101000a900460ff16018360020160006101000a81548160ff021916908360ff160217905550816001018490806001815401808255809150509060018203906000526020600020016000909192909190915055505b50505050565b606080600080600960008673ffffffffffffffffffffffffffffffffffffffff1673ffffffffffffffffffffffffffffffffffffffff168152602001908152602001600020546040519080825280602002602001820160405280156109925781602001602082028038833980820191505090505b50925060009150600090505b600780549050811015610a45578473ffffffffffffffffffffffffffffffffffffffff166008600083815260200190815260200160002060009054906101000a900473ffffffffffffffffffffffffffffffffffffffff1673ffffffffffffffffffffffffffffffffffffffff161415610a3857808383815181101515610a2157fe5b906020019060200201818152505081806001019250505b808060010191505061099e565b829350505050919050565b6000809054906101000a900473ffffffffffffffffffffffffffffffffffffffff1673ffffffffffffffffffffffffffffffffffffffff163373ffffffffffffffffffffffffffffffffffffffff16141515610b3a576040517f08c379a00000000000000000000000000000000000000000000000000000000081526004018080602001828103825260278152602001807f4f6e6c7920746865206f776e65722063616e20706572666f726d20746869732081526020017f616374696f6e2e0000000000000000000000000000000000000000000000000081525060400191505060405180910390fd5b6000809054906101000a900473ffffffffffffffffffffffffffffffffffffffff1673ffffffffffffffffffffffffffffffffffffffff166108fc3073ffffffffffffffffffffffffffffffffffffffff16319081150290604051600060405180830381858888f19350505050158015610bb8573d6000803e3d6000fd5b50565b600c5434141515610c34576040517f08c379a000000000000000000000000000000000000000000000000000000000815260040180806020018281038252601b8152602001807f5468652065746865722073656e742069736e277420656e6f756768000000000081525060200191505060405180910390fd5b610c3e6001611623565b565b6000806000600784815481101515610c5457fe5b906000526020600020906003020191506103e88260010154811515610c7557fe5b049050606481811515610c8457fe5b06905060045481811515610c9457fe5b0692505050919050565b6000806000600784815481101515610cb257fe5b90600052602060002090600302019150620186a08260010154811515610cd457fe5b049050600a81811515610ce357fe5b0690506001600382811515610cf457fe5b060392505050919050565b6000809054906101000a900473ffffffffffffffffffffffffffffffffffffffff1673ffffffffffffffffffffffffffffffffffffffff163373ffffffffffffffffffffffffffffffffffffffff16141515610de9576040517f08c379a00000000000000000000000000000000000000000000000000000000081526004018080602001828103825260278152602001807f4f6e6c7920746865206f776e65722063616e20706572666f726d20746869732081526020017f616374696f6e2e0000000000000000000000000000000000000000000000000081525060400191505060405180910390fd5b80600c8190555050565b60086020528060005260406000206000915054906101000a900473ffffffffffffffffffffffffffffffffffffffff1681565b610e306000611623565b565b6000809054906101000a900473ffffffffffffffffffffffffffffffffffffffff1673ffffffffffffffffffffffffffffffffffffffff163373ffffffffffffffffffffffffffffffffffffffff16141515610f1c576040517f08c379a00000000000000000000000000000000000000000000000000000000081526004018080602001828103825260278152602001807f4f6e6c7920746865206f776e65722063616e20706572666f726d20746869732081526020017f616374696f6e2e0000000000000000000000000000000000000000000000000081525060400191505060405180910390fd5b6000809054906101000a900473ffffffffffffffffffffffffffffffffffffffff1673ffffffffffffffffffffffffffffffffffffffff167ff8df31144d9c2f0f6b59d69b8b98abd5459d07f2742c4df920b25aae33c6482060405160405180910390a260008060006101000a81548173ffffffffffffffffffffffffffffffffffffffff021916908373ffffffffffffffffffffffffffffffffffffffff160217905550565b60036020528060005260406000206000915054906101000a900460ff1681565b6000809054906101000a900473ffffffffffffffffffffffffffffffffffffffff1681565b6000600780549050905090565b60006001608060405190810160405280848152602001600060405190808252806020026020018201604052801561105b5781602001602082028038833980820191505090505b50815260200160018152602001438152509080600181540180825580915050906001820390600052602060002090600402016000909192909190915060008201518160000190805190602001906110b39291906120b9565b5060208201518160010190805190602001906110d0929190612139565b5060408201518160020155606082015181600301555050905080600260003373ffffffffffffffffffffffffffffffffffffffff1673ffffffffffffffffffffffffffffffffffffffff1681526020019081526020016000208190555061113b60078054905061113f565b5050565b600061114a8261190a565b905060006007805490501415156111ad576111a86111a26040805190810160405280600581526020017f53656564200000000000000000000000000000000000000000000000000000008152506007805490506119ab565b82611c4b565b6111ed565b6111ec6040805190810160405280600681526020017f536565642030000000000000000000000000000000000000000000000000000081525082611c4b565b5b5050565b6000813373ffffffffffffffffffffffffffffffffffffffff166008600083815260200190815260200160002060009054906101000a900473ffffffffffffffffffffffffffffffffffffffff1673ffffffffffffffffffffffffffffffffffffffff161415156112f0576040517f08c379a00000000000000000000000000000000000000000000000000000000081526004018080602001828103825260258152602001807f546865207365656420646f65736e27742062656c6f6e6720746f20746865207081526020017f6c6179657200000000000000000000000000000000000000000000000000000081525060400191505060405180910390fd5b6007838154811015156112ff57fe5b906000526020600020906003020191508160020160019054906101000a900460ff16158015611343575060008260020160009054906101000a900460ff1660ff1614155b156113665760018260020160016101000a81548160ff0219169083151502179055505b505050565b60078181548110151561137a57fe5b9060005260206000209060030201600091509050806000018054600181600116156101000203166002900480601f0160208091040260200160405190810160405280929190818152602001828054600181600116156101000203166002900480156114265780601f106113fb57610100808354040283529160200191611426565b820191906000526020600020905b81548152906001019060200180831161140957829003601f168201915b5050505050908060010154908060020160009054906101000a900460ff16908060020160019054906101000a900460ff16905084565b6000809054906101000a900473ffffffffffffffffffffffffffffffffffffffff1673ffffffffffffffffffffffffffffffffffffffff163373ffffffffffffffffffffffffffffffffffffffff16141515611546576040517f08c379a00000000000000000000000000000000000000000000000000000000081526004018080602001828103825260278152602001807f4f6e6c7920746865206f776e65722063616e20706572666f726d20746869732081526020017f616374696f6e2e0000000000000000000000000000000000000000000000000081525060400191505060405180910390fd5b61154f81611eab565b50565b60018181548110151561156157fe5b9060005260206000209060040201600091509050806000018054600181600116156101000203166002900480601f01602080910402602001604051908101604052809291908181526020018280546001816001161561010002031660029004801561160d5780601f106115e25761010080835404028352916020019161160d565b820191906000526020600020905b8154815290600101906020018083116115f057829003601f168201915b5050505050908060020154908060030154905083565b600080600080600260003373ffffffffffffffffffffffffffffffffffffffff1673ffffffffffffffffffffffffffffffffffffffff16815260200190815260200160002054935060008414151561190357600180850381548110151561168657fe5b90600052602060002090600402019250841515611741576116a68361200e565b1515611740576040517f08c379a00000000000000000000000000000000000000000000000000000000081526004018080602001828103825260248152602001807f4861736e2774207061737320656e6f7567682074696d6520746f20676f20746f81526020017f206265640000000000000000000000000000000000000000000000000000000081525060400191505060405180910390fd5b5b61174a83612023565b600091505b82600101805490508210156118e2576007836001018381548110151561177157fe5b906000526020600020015481548110151561178857fe5b906000526020600020906003020190508060020160019054906101000a900460ff16156118d75760008160020160016101000a81548160ff02191690831515021790555080600201600081819054906101000a900460ff166001900391906101000a81548160ff021916908360ff16021790555060008160020160009054906101000a900460ff1660ff1614156118d65782600101600184600101805490500381548110151561183457fe5b9060005260206000200154836001018381548110151561185057fe5b906000526020600020018190555082600101600184600101805490500381548110151561187957fe5b90600052602060002001600090556118d5600960003373ffffffffffffffffffffffffffffffffffffffff1673ffffffffffffffffffffffffffffffffffffffff1681526020019081526020016000205482600101540161113f565b5b5b81600101915061174f565b6118fa6001846002015461202f90919063ffffffff16565b83600201819055505b5050505050565b60008082604051602001808281526020019150506040516020818303038152906040526040518082805190602001908083835b602083101515611962578051825260208201915060208101905060208303925061193d565b6001836020036101000a0380198251168184511680821785525050505050509050019150506040518091039020600190049050600654818115156119a257fe5b06915050919050565b60606000806060600080606080600089975060649650866040519080825280601f01601f1916602001820160405280156119f45781602001602082028038833980820191505090505b509550600094505b600088141515611a9357600a88811515611a1257fe5b069350600a88811515611a2157fe5b049750836030017f0100000000000000000000000000000000000000000000000000000000000000028686806001019750815181101515611a5e57fe5b9060200101907effffffffffffffffffffffffffffffffffffffffffffffffffffffffffffff1916908160001a9053506119fc565b8a9250848351016040519080825280601f01601f191660200182016040528015611acc5781602001602082028038833980820191505090505b509150600090505b8251811015611b81578281815181101515611aeb57fe5b9060200101517f010000000000000000000000000000000000000000000000000000000000000090047f0100000000000000000000000000000000000000000000000000000000000000028282815181101515611b4457fe5b9060200101907effffffffffffffffffffffffffffffffffffffffffffffffffffffffffffff1916908160001a9053508080600101915050611ad4565b600090505b84811015611c3a5785816001870303815181101515611ba157fe5b9060200101517f010000000000000000000000000000000000000000000000000000000000000090047f0100000000000000000000000000000000000000000000000000000000000000028284518301815181101515611bfd57fe5b9060200101907effffffffffffffffffffffffffffffffffffffffffffffffffffffffffffff1916908160001a9053508080600101915050611b86565b819850505050505050505092915050565b600060016007608060405190810160405280868152602001858152602001600060ff16815260200160001515815250908060018154018082558091505090600182039060005260206000209060030201600090919290919091506000820151816000019080519060200190611cc19291906120b9565b506020820151816001015560408201518160020160006101000a81548160ff021916908360ff16021790555060608201518160020160016101000a81548160ff0219169083151502179055505050039050336008600083815260200190815260200160002060006101000a81548173ffffffffffffffffffffffffffffffffffffffff021916908373ffffffffffffffffffffffffffffffffffffffff160217905550611db76001600960003373ffffffffffffffffffffffffffffffffffffffff1673ffffffffffffffffffffffffffffffffffffffff1681526020019081526020016000205461202f90919063ffffffff16565b600960003373ffffffffffffffffffffffffffffffffffffffff1673ffffffffffffffffffffffffffffffffffffffff168152602001908152602001600020819055507fce48bf19e08859bf5b7fbde70faeb415663b4ea48c7c5cc270eeea608901f5238184846040518084815260200180602001838152602001828103825284818151815260200191508051906020019080838360005b83811015611e6a578082015181840152602081019050611e4f565b50505050905090810190601f168015611e975780820380516001836020036101000a031916815260200191505b5094505050505060405180910390a1505050565b600073ffffffffffffffffffffffffffffffffffffffff168173ffffffffffffffffffffffffffffffffffffffff1614151515611f50576040517f08c379a00000000000000000000000000000000000000000000000000000000081526004018080602001828103825260198152602001807f54686520616464726573732063616e2774206265203078302e0000000000000081525060200191505060405180910390fd5b8073ffffffffffffffffffffffffffffffffffffffff166000809054906101000a900473ffffffffffffffffffffffffffffffffffffffff1673ffffffffffffffffffffffffffffffffffffffff167f8be0079c531659141344cd1fd0a4f28419497f9722a3daafe3b4186f6b6457e060405160405180910390a3806000806101000a81548173ffffffffffffffffffffffffffffffffffffffff021916908373ffffffffffffffffffffffffffffffffffffffff16021790555050565b6000600d548260030154430310159050919050565b43816003018190555050565b60008082840190508381101515156120af576040517f08c379a00000000000000000000000000000000000000000000000000000000081526004018080602001828103825260088152602001807f4f766572666c6f7700000000000000000000000000000000000000000000000081525060200191505060405180910390fd5b8091505092915050565b828054600181600116156101000203166002900490600052602060002090601f016020900481019282601f106120fa57805160ff1916838001178555612128565b82800160010185558215612128579182015b8281111561212757825182559160200191906001019061210c565b5b5090506121359190612186565b5090565b828054828255906000526020600020908101928215612175579160200282015b82811115612174578251825591602001919060010190612159565b5b5090506121829190612186565b5090565b6121a891905b808211156121a457600081600090555060010161218c565b5090565b905600a165627a7a72305820c7fa897ed7f83614106f4ffd17f14e7977647d62b83e74a848f6b679a3fd22230029",
  "source": "// solium-disable linebreak-style\r\npragma solidity ^0.4.24;\r\n\r\nimport \"./EHelper.sol\";\r\n\r\n\r\ncontract ESleep is EHelper{\r\n\r\n    uint sleepFee = 0.001 ether;\r\n\r\n    function withdraw() external onlyOwner{\r\n        owner.transfer(address(this).balance);\r\n    }\r\n\r\n    function setSleepFee(uint _fee) external onlyOwner {\r\n        sleepFee = _fee;\r\n    }\r\n\r\n    function goToBed() public{\r\n        _goToBedLogic(false);\r\n    }\r\n\r\n    function goToBedEarlier() external payable{\r\n        require(msg.value == sleepFee, \"The ether sent isn't enough\");\r\n        _goToBedLogic(true);\r\n    }\r\n\r\n    function _goToBedLogic(bool _hasPaid) private{\r\n        uint playerId = ownerPlayer[msg.sender];\r\n        if(playerId != 0){\r\n            Player storage player = players[playerId - 1];\r\n            if(!_hasPaid){\r\n                require(_isReadyToSleep(player), \"Hasn't pass enough time to go to bed\");\r\n            }\r\n            _triggerSleepCooldown(player);\r\n            //uint seedPlantedLength = player.seedsPlanted.length;\r\n            //uint[] memory seedsGrown = new uint[](seedPlantedLength);\r\n            for(uint i = 0; i < player.seedsPlanted.length; ++i){\r\n                Seed storage seed = seeds[player.seedsPlanted[i]];\r\n                if(seed.isWatered){\r\n                    seed.isWatered = false;\r\n                    --seed.remainingDays;\r\n                    if(seed.remainingDays == 0){\r\n                        // Cosecha\r\n                        // Esto cambio el tamao arreglo que est iterando el for, ver si es un problema\r\n                        player.seedsPlanted[i] = player.seedsPlanted[player.seedsPlanted.length - 1];\r\n                        delete player.seedsPlanted[player.seedsPlanted.length - 1];\r\n                        // Se crea una nueva semilla a partir de la que se cosecho\r\n                        createRandomSeed(seed.traits + ownedSeedsCount[msg.sender]);\r\n                        //continue;\r\n                    }\r\n\r\n                }\r\n            }\r\n            player.currentDay = player.currentDay.add(1);\r\n        }\r\n    }\r\n\r\n    \r\n    uint sleepCooldownTime = 216000;\r\n\r\n    function _triggerSleepCooldown(Player storage _player) internal {\r\n        _player.lastBedtime = block.number;\r\n    }\r\n\r\n    function _isReadyToSleep(Player storage _player) internal view returns (bool) {\r\n        return(block.number - _player.lastBedtime >= sleepCooldownTime);\r\n    }\r\n\r\n\r\n}",
  "sourcePath": "D:\\Solidity\\EtherealLands\\contracts\\ESleep.sol",
  "compiler": {
    "name": "solc",
    "version": "0.4.24+commit.e67f0147.Emscripten.clang"
  },
  "schemaVersion": "2.0.1",
  "updatedAt": "2018-08-24T08:50:26.805Z"
}