{
  "contractName": "ESleep",
  "abi": [
    {
      "constant": false,
      "inputs": [
        {
          "name": "_seedId",
          "type": "uint256"
        }
      ],
      "name": "seedPlanting",
      "outputs": [],
      "payable": false,
      "stateMutability": "nonpayable",
      "type": "function"
    },
    {
      "constant": true,
      "inputs": [
        {
          "name": "_owner",
          "type": "address"
        }
      ],
      "name": "getSeedsByOwner",
      "outputs": [
        {
          "name": "",
          "type": "uint256[]"
        }
      ],
      "payable": false,
      "stateMutability": "view",
      "type": "function"
    },
    {
      "constant": true,
      "inputs": [
        {
          "name": "",
          "type": "address"
        }
      ],
      "name": "ownerToPlayer",
      "outputs": [
        {
          "name": "",
          "type": "uint256"
        }
      ],
      "payable": false,
      "stateMutability": "view",
      "type": "function"
    },
    {
      "constant": true,
      "inputs": [
        {
          "name": "_seedId",
          "type": "uint256"
        }
      ],
      "name": "getType",
      "outputs": [
        {
          "name": "",
          "type": "uint256"
        }
      ],
      "payable": false,
      "stateMutability": "view",
      "type": "function"
    },
    {
      "constant": true,
      "inputs": [
        {
          "name": "_seedId",
          "type": "uint256"
        }
      ],
      "name": "getBonus",
      "outputs": [
        {
          "name": "",
          "type": "uint256"
        }
      ],
      "payable": false,
      "stateMutability": "view",
      "type": "function"
    },
    {
      "constant": true,
      "inputs": [
        {
          "name": "",
          "type": "uint256"
        }
      ],
      "name": "seedOwner",
      "outputs": [
        {
          "name": "",
          "type": "address"
        }
      ],
      "payable": false,
      "stateMutability": "view",
      "type": "function"
    },
    {
      "constant": false,
      "inputs": [],
      "name": "renounceOwnership",
      "outputs": [],
      "payable": false,
      "stateMutability": "nonpayable",
      "type": "function"
    },
    {
      "constant": true,
      "inputs": [
        {
          "name": "",
          "type": "uint256"
        }
      ],
      "name": "daysToHarvest",
      "outputs": [
        {
          "name": "",
          "type": "uint8"
        }
      ],
      "payable": false,
      "stateMutability": "view",
      "type": "function"
    },
    {
      "constant": true,
      "inputs": [],
      "name": "owner",
      "outputs": [
        {
          "name": "",
          "type": "address"
        }
      ],
      "payable": false,
      "stateMutability": "view",
      "type": "function"
    },
    {
      "constant": true,
      "inputs": [],
      "name": "getTotalSeeds",
      "outputs": [
        {
          "name": "",
          "type": "uint256"
        }
      ],
      "payable": false,
      "stateMutability": "view",
      "type": "function"
    },
    {
      "constant": false,
      "inputs": [
        {
          "name": "_name",
          "type": "string"
        }
      ],
      "name": "createLand",
      "outputs": [],
      "payable": false,
      "stateMutability": "nonpayable",
      "type": "function"
    },
    {
      "constant": false,
      "inputs": [
        {
          "name": "_id",
          "type": "uint256"
        }
      ],
      "name": "createRandomSeed",
      "outputs": [],
      "payable": false,
      "stateMutability": "nonpayable",
      "type": "function"
    },
    {
      "constant": false,
      "inputs": [
        {
          "name": "_seedId",
          "type": "uint256"
        }
      ],
      "name": "seedWatering",
      "outputs": [],
      "payable": false,
      "stateMutability": "nonpayable",
      "type": "function"
    },
    {
      "constant": true,
      "inputs": [
        {
          "name": "",
          "type": "uint256"
        }
      ],
      "name": "seeds",
      "outputs": [
        {
          "name": "name",
          "type": "string"
        },
        {
          "name": "traits",
          "type": "uint256"
        },
        {
          "name": "remainingDays",
          "type": "uint8"
        },
        {
          "name": "isWatered",
          "type": "bool"
        }
      ],
      "payable": false,
      "stateMutability": "view",
      "type": "function"
    },
    {
      "constant": false,
      "inputs": [
        {
          "name": "_newOwner",
          "type": "address"
        }
      ],
      "name": "transferOwnership",
      "outputs": [],
      "payable": false,
      "stateMutability": "nonpayable",
      "type": "function"
    },
    {
      "anonymous": false,
      "inputs": [
        {
          "indexed": false,
          "name": "id",
          "type": "uint256"
        },
        {
          "indexed": false,
          "name": "name",
          "type": "string"
        },
        {
          "indexed": false,
          "name": "traits",
          "type": "uint256"
        }
      ],
      "name": "SeedCreated",
      "type": "event"
    },
    {
      "anonymous": false,
      "inputs": [
        {
          "indexed": true,
          "name": "previousOwner",
          "type": "address"
        }
      ],
      "name": "OwnershipRenounced",
      "type": "event"
    },
    {
      "anonymous": false,
      "inputs": [
        {
          "indexed": true,
          "name": "previousOwner",
          "type": "address"
        },
        {
          "indexed": true,
          "name": "newOwner",
          "type": "address"
        }
      ],
      "name": "OwnershipTransferred",
      "type": "event"
    },
    {
      "constant": false,
      "inputs": [],
      "name": "withdraw",
      "outputs": [],
      "payable": false,
      "stateMutability": "nonpayable",
      "type": "function"
    },
    {
      "constant": false,
      "inputs": [
        {
          "name": "_fee",
          "type": "uint256"
        }
      ],
      "name": "setSleepFee",
      "outputs": [],
      "payable": false,
      "stateMutability": "nonpayable",
      "type": "function"
    },
    {
      "constant": false,
      "inputs": [],
      "name": "goToBed",
      "outputs": [],
      "payable": false,
      "stateMutability": "nonpayable",
      "type": "function"
    },
    {
      "constant": false,
      "inputs": [],
      "name": "goToBedEarlier",
      "outputs": [],
      "payable": true,
      "stateMutability": "payable",
      "type": "function"
    }
  ],
  "bytecode": "0x608060405260066004556006600555600554600a0a6006556000600b5566038d7ea4c68000600c5562034bc0600d55336000806101000a81548173ffffffffffffffffffffffffffffffffffffffff021916908373ffffffffffffffffffffffffffffffffffffffff16021790555060056003600080815260200190815260200160002060006101000a81548160ff021916908360ff1602179055506008600360006001815260200190815260200160002060006101000a81548160ff021916908360ff1602179055506008600360006002815260200190815260200160002060006101000a81548160ff021916908360ff160217905550600a600360006003815260200190815260200160002060006101000a81548160ff021916908360ff1602179055506008600360006004815260200190815260200160002060006101000a81548160ff021916908360ff160217905550600a600360006005815260200190815260200160002060006101000a81548160ff021916908360ff160217905550612035806101906000396000f300608060405260043610610107576000357c0100000000000000000000000000000000000000000000000000000000900463ffffffff16806310ff56ec1461010c5780633c110542146101395780633ca7aac3146101d15780633ccfd60b146102285780633ff3658a1461023f5780634036ab78146102495780634aa66b281461028a5780634fa82fb2146102cb5780635ebad701146102f8578063677aef1e14610365578063715018a61461037c5780637917ab05146103935780638da5cb5b146103da5780639d30d06314610431578063b5eddba31461045c578063bdd62965146104c5578063c57dcc83146104f2578063f0503e801461051f578063f2fde38b146105e4575b600080fd5b34801561011857600080fd5b5061013760048036038101908080359060200190929190505050610627565b005b34801561014557600080fd5b5061017a600480360381019080803573ffffffffffffffffffffffffffffffffffffffff169060200190929190505050610845565b6040518080602001828103825283818151815260200191508051906020019060200280838360005b838110156101bd5780820151818401526020810190506101a2565b505050509050019250505060405180910390f35b3480156101dd57600080fd5b50610212600480360381019080803573ffffffffffffffffffffffffffffffffffffffff169060200190929190505050610977565b6040518082815260200191505060405180910390f35b34801561023457600080fd5b5061023d61098f565b005b610247610afa565b005b34801561025557600080fd5b5061027460048036038101908080359060200190929190505050610b7f565b6040518082815260200191505060405180910390f35b34801561029657600080fd5b506102b560048036038101908080359060200190929190505050610bdd565b6040518082815260200191505060405180910390f35b3480156102d757600080fd5b506102f660048036038101908080359060200190929190505050610c3e565b005b34801561030457600080fd5b5061032360048036038101908080359060200190929190505050610d32565b604051808273ffffffffffffffffffffffffffffffffffffffff1673ffffffffffffffffffffffffffffffffffffffff16815260200191505060405180910390f35b34801561037157600080fd5b5061037a610d65565b005b34801561038857600080fd5b50610391610d71565b005b34801561039f57600080fd5b506103be60048036038101908080359060200190929190505050610f02565b604051808260ff1660ff16815260200191505060405180910390f35b3480156103e657600080fd5b506103ef610f22565b604051808273ffffffffffffffffffffffffffffffffffffffff1673ffffffffffffffffffffffffffffffffffffffff16815260200191505060405180910390f35b34801561043d57600080fd5b50610446610f47565b6040518082815260200191505060405180910390f35b34801561046857600080fd5b506104c3600480360381019080803590602001908201803590602001908080601f0160208091040260200160405190810160405280939291908181526020018383808284378201915050505050509192919290505050610f54565b005b3480156104d157600080fd5b506104f060048036038101908080359060200190929190505050611070565b005b3480156104fe57600080fd5b5061051d60048036038101908080359060200190929190505050611122565b005b34801561052b57600080fd5b5061054a6004803603810190808035906020019092919050505061129c565b60405180806020018581526020018460ff1660ff16815260200183151515158152602001828103825286818151815260200191508051906020019080838360005b838110156105a657808201518184015260208101905061058b565b50505050905090810190601f1680156105d35780820380516001836020036101000a031916815260200191505b509550505050505060405180910390f35b3480156105f057600080fd5b50610625600480360381019080803573ffffffffffffffffffffffffffffffffffffffff16906020019092919050505061138d565b005b600080823373ffffffffffffffffffffffffffffffffffffffff166008600083815260200190815260200160002060009054906101000a900473ffffffffffffffffffffffffffffffffffffffff1673ffffffffffffffffffffffffffffffffffffffff16141515610727576040517f08c379a00000000000000000000000000000000000000000000000000000000081526004018080602001828103825260258152602001807f546865207365656420646f65736e27742062656c6f6e6720746f20746865207081526020017f6c6179657200000000000000000000000000000000000000000000000000000081525060400191505060405180910390fd5b60078481548110151561073657fe5b9060005260206000209060030201925060008360020160009054906101000a900460ff1660ff16141561083f576001600260003373ffffffffffffffffffffffffffffffffffffffff1673ffffffffffffffffffffffffffffffffffffffff168152602001908152602001600020548154811015156107b157fe5b906000526020600020906004020191506107ca84610bdd565b600360006107d787610b7f565b815260200190815260200160002060009054906101000a900460ff16018360020160006101000a81548160ff021916908360ff160217905550816001018490806001815401808255809150509060018203906000526020600020016000909192909190915055505b50505050565b606080600080600960008673ffffffffffffffffffffffffffffffffffffffff1673ffffffffffffffffffffffffffffffffffffffff168152602001908152602001600020546040519080825280602002602001820160405280156108b95781602001602082028038833980820191505090505b50925060009150600090505b60078054905081101561096c578473ffffffffffffffffffffffffffffffffffffffff166008600083815260200190815260200160002060009054906101000a900473ffffffffffffffffffffffffffffffffffffffff1673ffffffffffffffffffffffffffffffffffffffff16141561095f5780838381518110151561094857fe5b906020019060200201818152505081806001019250505b80806001019150506108c5565b829350505050919050565b60026020528060005260406000206000915090505481565b6000809054906101000a900473ffffffffffffffffffffffffffffffffffffffff1673ffffffffffffffffffffffffffffffffffffffff163373ffffffffffffffffffffffffffffffffffffffff16141515610a79576040517f08c379a00000000000000000000000000000000000000000000000000000000081526004018080602001828103825260278152602001807f4f6e6c7920746865206f776e65722063616e20706572666f726d20746869732081526020017f616374696f6e2e0000000000000000000000000000000000000000000000000081525060400191505060405180910390fd5b6000809054906101000a900473ffffffffffffffffffffffffffffffffffffffff1673ffffffffffffffffffffffffffffffffffffffff166108fc3073ffffffffffffffffffffffffffffffffffffffff16319081150290604051600060405180830381858888f19350505050158015610af7573d6000803e3d6000fd5b50565b600c5434141515610b73576040517f08c379a000000000000000000000000000000000000000000000000000000000815260040180806020018281038252601b8152602001807f5468652065746865722073656e742069736e277420656e6f756768000000000081525060200191505060405180910390fd5b610b7d6001611483565b565b6000806000600784815481101515610b9357fe5b906000526020600020906003020191506103e88260010154811515610bb457fe5b049050606481811515610bc357fe5b06905060045481811515610bd357fe5b0692505050919050565b6000806000600784815481101515610bf157fe5b90600052602060002090600302019150620186a08260010154811515610c1357fe5b049050600a81811515610c2257fe5b0690506001600382811515610c3357fe5b060392505050919050565b6000809054906101000a900473ffffffffffffffffffffffffffffffffffffffff1673ffffffffffffffffffffffffffffffffffffffff163373ffffffffffffffffffffffffffffffffffffffff16141515610d28576040517f08c379a00000000000000000000000000000000000000000000000000000000081526004018080602001828103825260278152602001807f4f6e6c7920746865206f776e65722063616e20706572666f726d20746869732081526020017f616374696f6e2e0000000000000000000000000000000000000000000000000081525060400191505060405180910390fd5b80600c8190555050565b60086020528060005260406000206000915054906101000a900473ffffffffffffffffffffffffffffffffffffffff1681565b610d6f6000611483565b565b6000809054906101000a900473ffffffffffffffffffffffffffffffffffffffff1673ffffffffffffffffffffffffffffffffffffffff163373ffffffffffffffffffffffffffffffffffffffff16141515610e5b576040517f08c379a00000000000000000000000000000000000000000000000000000000081526004018080602001828103825260278152602001807f4f6e6c7920746865206f776e65722063616e20706572666f726d20746869732081526020017f616374696f6e2e0000000000000000000000000000000000000000000000000081525060400191505060405180910390fd5b6000809054906101000a900473ffffffffffffffffffffffffffffffffffffffff1673ffffffffffffffffffffffffffffffffffffffff167ff8df31144d9c2f0f6b59d69b8b98abd5459d07f2742c4df920b25aae33c6482060405160405180910390a260008060006101000a81548173ffffffffffffffffffffffffffffffffffffffff021916908373ffffffffffffffffffffffffffffffffffffffff160217905550565b60036020528060005260406000206000915054906101000a900460ff1681565b6000809054906101000a900473ffffffffffffffffffffffffffffffffffffffff1681565b6000600780549050905090565b600060016080604051908101604052808481526020016000604051908082528060200260200182016040528015610f9a5781602001602082028038833980820191505090505b5081526020016001815260200143815250908060018154018082558091505090600182039060005260206000209060040201600090919290919091506000820151816000019080519060200190610ff2929190611f17565b50602082015181600101908051906020019061100f929190611f97565b5060408201518160020155606082015181600301555050905080600260003373ffffffffffffffffffffffffffffffffffffffff1673ffffffffffffffffffffffffffffffffffffffff168152602001908152602001600020819055505050565b600061107b82611768565b905060006007805490501415156110de576110d96110d36040805190810160405280600581526020017f5365656420000000000000000000000000000000000000000000000000000000815250600780549050611809565b82611aa9565b61111e565b61111d6040805190810160405280600681526020017f536565642030000000000000000000000000000000000000000000000000000081525082611aa9565b5b5050565b6000813373ffffffffffffffffffffffffffffffffffffffff166008600083815260200190815260200160002060009054906101000a900473ffffffffffffffffffffffffffffffffffffffff1673ffffffffffffffffffffffffffffffffffffffff16141515611221576040517f08c379a00000000000000000000000000000000000000000000000000000000081526004018080602001828103825260258152602001807f546865207365656420646f65736e27742062656c6f6e6720746f20746865207081526020017f6c6179657200000000000000000000000000000000000000000000000000000081525060400191505060405180910390fd5b60078381548110151561123057fe5b906000526020600020906003020191508160020160019054906101000a900460ff16158015611274575060008260020160009054906101000a900460ff1660ff1614155b156112975760018260020160016101000a81548160ff0219169083151502179055505b505050565b6007818154811015156112ab57fe5b9060005260206000209060030201600091509050806000018054600181600116156101000203166002900480601f0160208091040260200160405190810160405280929190818152602001828054600181600116156101000203166002900480156113575780601f1061132c57610100808354040283529160200191611357565b820191906000526020600020905b81548152906001019060200180831161133a57829003601f168201915b5050505050908060010154908060020160009054906101000a900460ff16908060020160019054906101000a900460ff16905084565b6000809054906101000a900473ffffffffffffffffffffffffffffffffffffffff1673ffffffffffffffffffffffffffffffffffffffff163373ffffffffffffffffffffffffffffffffffffffff16141515611477576040517f08c379a00000000000000000000000000000000000000000000000000000000081526004018080602001828103825260278152602001807f4f6e6c7920746865206f776e65722063616e20706572666f726d20746869732081526020017f616374696f6e2e0000000000000000000000000000000000000000000000000081525060400191505060405180910390fd5b61148081611d09565b50565b600080600080600260003373ffffffffffffffffffffffffffffffffffffffff1673ffffffffffffffffffffffffffffffffffffffff168152602001908152602001600020549350600084141515611761576001848154811015156114e457fe5b9060005260206000209060040201925084151561159f5761150483611e6c565b151561159e576040517f08c379a00000000000000000000000000000000000000000000000000000000081526004018080602001828103825260248152602001807f4861736e2774207061737320656e6f7567682074696d6520746f20676f20746f81526020017f206265640000000000000000000000000000000000000000000000000000000081525060400191505060405180910390fd5b5b6115a883611e81565b600091505b826001018054905082101561174057600783600101838154811015156115cf57fe5b90600052602060002001548154811015156115e657fe5b906000526020600020906003020190508060020160019054906101000a900460ff16156117355760008160020160016101000a81548160ff02191690831515021790555080600201600081819054906101000a900460ff166001900391906101000a81548160ff021916908360ff16021790555060008160020160009054906101000a900460ff1660ff1614156117345782600101600184600101805490500381548110151561169257fe5b906000526020600020015483600101838154811015156116ae57fe5b90600052602060002001819055508260010160018460010180549050038154811015156116d757fe5b9060005260206000200160009055611733600960003373ffffffffffffffffffffffffffffffffffffffff1673ffffffffffffffffffffffffffffffffffffffff16815260200190815260200160002054826001015401611070565b5b5b8160010191506115ad565b61175860018460020154611e8d90919063ffffffff16565b83600201819055505b5050505050565b60008082604051602001808281526020019150506040516020818303038152906040526040518082805190602001908083835b6020831015156117c0578051825260208201915060208101905060208303925061179b565b6001836020036101000a03801982511681845116808217855250505050505090500191505060405180910390206001900490506006548181151561180057fe5b06915050919050565b60606000806060600080606080600089975060649650866040519080825280601f01601f1916602001820160405280156118525781602001602082028038833980820191505090505b509550600094505b6000881415156118f157600a8881151561187057fe5b069350600a8881151561187f57fe5b049750836030017f01000000000000000000000000000000000000000000000000000000000000000286868060010197508151811015156118bc57fe5b9060200101907effffffffffffffffffffffffffffffffffffffffffffffffffffffffffffff1916908160001a90535061185a565b8a9250848351016040519080825280601f01601f19166020018201604052801561192a5781602001602082028038833980820191505090505b509150600090505b82518110156119df57828181518110151561194957fe5b9060200101517f010000000000000000000000000000000000000000000000000000000000000090047f01000000000000000000000000000000000000000000000000000000000000000282828151811015156119a257fe5b9060200101907effffffffffffffffffffffffffffffffffffffffffffffffffffffffffffff1916908160001a9053508080600101915050611932565b600090505b84811015611a9857858160018703038151811015156119ff57fe5b9060200101517f010000000000000000000000000000000000000000000000000000000000000090047f0100000000000000000000000000000000000000000000000000000000000000028284518301815181101515611a5b57fe5b9060200101907effffffffffffffffffffffffffffffffffffffffffffffffffffffffffffff1916908160001a90535080806001019150506119e4565b819850505050505050505092915050565b600060016007608060405190810160405280868152602001858152602001600060ff16815260200160001515815250908060018154018082558091505090600182039060005260206000209060030201600090919290919091506000820151816000019080519060200190611b1f929190611f17565b506020820151816001015560408201518160020160006101000a81548160ff021916908360ff16021790555060608201518160020160016101000a81548160ff0219169083151502179055505050039050336008600083815260200190815260200160002060006101000a81548173ffffffffffffffffffffffffffffffffffffffff021916908373ffffffffffffffffffffffffffffffffffffffff160217905550611c156001600960003373ffffffffffffffffffffffffffffffffffffffff1673ffffffffffffffffffffffffffffffffffffffff16815260200190815260200160002054611e8d90919063ffffffff16565b600960003373ffffffffffffffffffffffffffffffffffffffff1673ffffffffffffffffffffffffffffffffffffffff168152602001908152602001600020819055507fce48bf19e08859bf5b7fbde70faeb415663b4ea48c7c5cc270eeea608901f5238184846040518084815260200180602001838152602001828103825284818151815260200191508051906020019080838360005b83811015611cc8578082015181840152602081019050611cad565b50505050905090810190601f168015611cf55780820380516001836020036101000a031916815260200191505b5094505050505060405180910390a1505050565b600073ffffffffffffffffffffffffffffffffffffffff168173ffffffffffffffffffffffffffffffffffffffff1614151515611dae576040517f08c379a00000000000000000000000000000000000000000000000000000000081526004018080602001828103825260198152602001807f54686520616464726573732063616e2774206265203078302e0000000000000081525060200191505060405180910390fd5b8073ffffffffffffffffffffffffffffffffffffffff166000809054906101000a900473ffffffffffffffffffffffffffffffffffffffff1673ffffffffffffffffffffffffffffffffffffffff167f8be0079c531659141344cd1fd0a4f28419497f9722a3daafe3b4186f6b6457e060405160405180910390a3806000806101000a81548173ffffffffffffffffffffffffffffffffffffffff021916908373ffffffffffffffffffffffffffffffffffffffff16021790555050565b6000600d548260030154430310159050919050565b43816003018190555050565b6000808284019050838110151515611f0d576040517f08c379a00000000000000000000000000000000000000000000000000000000081526004018080602001828103825260088152602001807f4f766572666c6f7700000000000000000000000000000000000000000000000081525060200191505060405180910390fd5b8091505092915050565b828054600181600116156101000203166002900490600052602060002090601f016020900481019282601f10611f5857805160ff1916838001178555611f86565b82800160010185558215611f86579182015b82811115611f85578251825591602001919060010190611f6a565b5b509050611f939190611fe4565b5090565b828054828255906000526020600020908101928215611fd3579160200282015b82811115611fd2578251825591602001919060010190611fb7565b5b509050611fe09190611fe4565b5090565b61200691905b80821115612002576000816000905550600101611fea565b5090565b905600a165627a7a723058209c1b980f97e42e64b292b5b4fe77a4f5e92fdad340af1b35278111168a1051b20029",
  "source": "// solium-disable linebreak-style\r\npragma solidity ^0.4.24;\r\n\r\nimport \"./EHelper.sol\";\r\n\r\n\r\ncontract ESleep is EHelper{\r\n\r\n    uint sleepFee = 0.001 ether;\r\n\r\n    function withdraw() external onlyOwner{\r\n        owner.transfer(address(this).balance);\r\n    }\r\n\r\n    function setSleepFee(uint _fee) external onlyOwner {\r\n        sleepFee = _fee;\r\n    }\r\n\r\n    function goToBed() public{\r\n        _goToBedLogic(false);\r\n    }\r\n\r\n    function goToBedEarlier() external payable{\r\n        require(msg.value == sleepFee, \"The ether sent isn't enough\");\r\n        _goToBedLogic(true);\r\n    }\r\n\r\n    function _goToBedLogic(bool _hasPaid) private{\r\n        uint playerId = ownerToPlayer[msg.sender];\r\n        if(playerId != 0){\r\n            Player storage player = players[playerId];\r\n            if(!_hasPaid){\r\n                require(_isReadyToSleep(player), \"Hasn't pass enough time to go to bed\");\r\n            }\r\n            \r\n            //if(!_isReadyToSleep(player)){\r\n                // Cobrar fee\r\n            //}\r\n            _triggerSleepCooldown(player);\r\n            //uint seedPlantedLength = player.seedsPlanted.length;\r\n            //uint[] memory seedsGrown = new uint[](seedPlantedLength);\r\n            for(uint i = 0; i < player.seedsPlanted.length; ++i){\r\n                Seed storage seed = seeds[player.seedsPlanted[i]];\r\n                if(seed.isWatered){\r\n                    seed.isWatered = false;\r\n                    --seed.remainingDays;\r\n                    if(seed.remainingDays == 0){\r\n                        // Cosecha\r\n                        // Esto cambio el tamao arreglo que est iterando el for, ver si es un problema\r\n                        player.seedsPlanted[i] = player.seedsPlanted[player.seedsPlanted.length - 1];\r\n                        delete player.seedsPlanted[player.seedsPlanted.length - 1];\r\n                        // Se crea una nueva semilla a partir de la que se cosecho\r\n                        createRandomSeed(seed.traits + ownedSeedsCount[msg.sender]);\r\n                        //continue;\r\n                    }\r\n\r\n                }\r\n            }\r\n            player.currentDay = player.currentDay.add(1);\r\n        }\r\n    }\r\n\r\n    \r\n    uint sleepCooldownTime = 216000;\r\n\r\n    function _triggerSleepCooldown(Player storage _player) internal {\r\n        _player.lastBedtime = block.number;\r\n    }\r\n\r\n    function _isReadyToSleep(Player storage _player) internal view returns (bool) {\r\n        return(block.number - _player.lastBedtime >= sleepCooldownTime);\r\n    }\r\n\r\n\r\n}",
  "sourcePath": "C:\\Users\\elixs\\Documents\\GitHub\\EtherealLands\\contracts\\ESleep.sol",
  "compiler": {
    "name": "solc",
    "version": "0.4.24+commit.e67f0147.Emscripten.clang"
  },
  "schemaVersion": "2.0.1",
  "updatedAt": "2018-08-23T18:03:18.449Z"
}