{
  "contractName": "ESleep",
  "abi": [
    {
      "constant": false,
      "inputs": [
        {
          "name": "_seedId",
          "type": "uint256"
        }
      ],
      "name": "seedPlanting",
      "outputs": [],
      "payable": false,
      "stateMutability": "nonpayable",
      "type": "function"
    },
    {
      "constant": true,
      "inputs": [
        {
          "name": "_owner",
          "type": "address"
        }
      ],
      "name": "getSeedsByOwner",
      "outputs": [
        {
          "name": "",
          "type": "uint256[]"
        }
      ],
      "payable": false,
      "stateMutability": "view",
      "type": "function"
    },
    {
      "constant": true,
      "inputs": [
        {
          "name": "",
          "type": "address"
        }
      ],
      "name": "ownerToPlayer",
      "outputs": [
        {
          "name": "",
          "type": "uint256"
        }
      ],
      "payable": false,
      "stateMutability": "view",
      "type": "function"
    },
    {
      "constant": true,
      "inputs": [
        {
          "name": "_seedId",
          "type": "uint256"
        }
      ],
      "name": "getType",
      "outputs": [
        {
          "name": "",
          "type": "uint256"
        }
      ],
      "payable": false,
      "stateMutability": "view",
      "type": "function"
    },
    {
      "constant": true,
      "inputs": [
        {
          "name": "_seedId",
          "type": "uint256"
        }
      ],
      "name": "getBonus",
      "outputs": [
        {
          "name": "",
          "type": "uint256"
        }
      ],
      "payable": false,
      "stateMutability": "view",
      "type": "function"
    },
    {
      "constant": true,
      "inputs": [
        {
          "name": "",
          "type": "uint256"
        }
      ],
      "name": "seedOwner",
      "outputs": [
        {
          "name": "",
          "type": "address"
        }
      ],
      "payable": false,
      "stateMutability": "view",
      "type": "function"
    },
    {
      "constant": false,
      "inputs": [],
      "name": "renounceOwnership",
      "outputs": [],
      "payable": false,
      "stateMutability": "nonpayable",
      "type": "function"
    },
    {
      "constant": true,
      "inputs": [
        {
          "name": "",
          "type": "uint256"
        }
      ],
      "name": "daysToHarvest",
      "outputs": [
        {
          "name": "",
          "type": "uint8"
        }
      ],
      "payable": false,
      "stateMutability": "view",
      "type": "function"
    },
    {
      "constant": true,
      "inputs": [],
      "name": "owner",
      "outputs": [
        {
          "name": "",
          "type": "address"
        }
      ],
      "payable": false,
      "stateMutability": "view",
      "type": "function"
    },
    {
      "constant": false,
      "inputs": [
        {
          "name": "_name",
          "type": "string"
        }
      ],
      "name": "createLand",
      "outputs": [],
      "payable": false,
      "stateMutability": "nonpayable",
      "type": "function"
    },
    {
      "constant": false,
      "inputs": [
        {
          "name": "_id",
          "type": "uint256"
        }
      ],
      "name": "createRandomSeed",
      "outputs": [],
      "payable": false,
      "stateMutability": "nonpayable",
      "type": "function"
    },
    {
      "constant": false,
      "inputs": [
        {
          "name": "_seedId",
          "type": "uint256"
        }
      ],
      "name": "seedWatering",
      "outputs": [],
      "payable": false,
      "stateMutability": "nonpayable",
      "type": "function"
    },
    {
      "constant": true,
      "inputs": [
        {
          "name": "",
          "type": "uint256"
        }
      ],
      "name": "seeds",
      "outputs": [
        {
          "name": "name",
          "type": "string"
        },
        {
          "name": "traits",
          "type": "uint256"
        },
        {
          "name": "remainingDays",
          "type": "uint8"
        },
        {
          "name": "isWatered",
          "type": "bool"
        }
      ],
      "payable": false,
      "stateMutability": "view",
      "type": "function"
    },
    {
      "constant": false,
      "inputs": [
        {
          "name": "_newOwner",
          "type": "address"
        }
      ],
      "name": "transferOwnership",
      "outputs": [],
      "payable": false,
      "stateMutability": "nonpayable",
      "type": "function"
    },
    {
      "anonymous": false,
      "inputs": [
        {
          "indexed": false,
          "name": "id",
          "type": "uint256"
        },
        {
          "indexed": false,
          "name": "name",
          "type": "string"
        },
        {
          "indexed": false,
          "name": "traits",
          "type": "uint256"
        }
      ],
      "name": "SeedCreated",
      "type": "event"
    },
    {
      "anonymous": false,
      "inputs": [
        {
          "indexed": true,
          "name": "previousOwner",
          "type": "address"
        }
      ],
      "name": "OwnershipRenounced",
      "type": "event"
    },
    {
      "anonymous": false,
      "inputs": [
        {
          "indexed": true,
          "name": "previousOwner",
          "type": "address"
        },
        {
          "indexed": true,
          "name": "newOwner",
          "type": "address"
        }
      ],
      "name": "OwnershipTransferred",
      "type": "event"
    },
    {
      "constant": false,
      "inputs": [],
      "name": "withdraw",
      "outputs": [],
      "payable": false,
      "stateMutability": "nonpayable",
      "type": "function"
    },
    {
      "constant": false,
      "inputs": [
        {
          "name": "_fee",
          "type": "uint256"
        }
      ],
      "name": "setSleepFee",
      "outputs": [],
      "payable": false,
      "stateMutability": "nonpayable",
      "type": "function"
    },
    {
      "constant": false,
      "inputs": [],
      "name": "goToBed",
      "outputs": [],
      "payable": false,
      "stateMutability": "nonpayable",
      "type": "function"
    },
    {
      "constant": false,
      "inputs": [],
      "name": "goToBedEarlier",
      "outputs": [],
      "payable": true,
      "stateMutability": "payable",
      "type": "function"
    }
  ],
  "bytecode": "0x608060405260066004556006600555600554600a0a6006556000600b5566038d7ea4c68000600c5562034bc0600d55336000806101000a81548173ffffffffffffffffffffffffffffffffffffffff021916908373ffffffffffffffffffffffffffffffffffffffff16021790555060056003600080815260200190815260200160002060006101000a81548160ff021916908360ff1602179055506008600360006001815260200190815260200160002060006101000a81548160ff021916908360ff1602179055506008600360006002815260200190815260200160002060006101000a81548160ff021916908360ff160217905550600a600360006003815260200190815260200160002060006101000a81548160ff021916908360ff1602179055506008600360006004815260200190815260200160002060006101000a81548160ff021916908360ff160217905550600a600360006005815260200190815260200160002060006101000a81548160ff021916908360ff160217905550611ff2806101906000396000f3006080604052600436106100fc576000357c0100000000000000000000000000000000000000000000000000000000900463ffffffff16806310ff56ec146101015780633c1105421461012e5780633ca7aac3146101c65780633ccfd60b1461021d5780633ff3658a146102345780634036ab781461023e5780634aa66b281461027f5780634fa82fb2146102c05780635ebad701146102ed578063677aef1e1461035a578063715018a6146103715780637917ab05146103885780638da5cb5b146103cf578063b5eddba314610426578063bdd629651461048f578063c57dcc83146104bc578063f0503e80146104e9578063f2fde38b146105ae575b600080fd5b34801561010d57600080fd5b5061012c600480360381019080803590602001909291905050506105f1565b005b34801561013a57600080fd5b5061016f600480360381019080803573ffffffffffffffffffffffffffffffffffffffff16906020019092919050505061080f565b6040518080602001828103825283818151815260200191508051906020019060200280838360005b838110156101b2578082015181840152602081019050610197565b505050509050019250505060405180910390f35b3480156101d257600080fd5b50610207600480360381019080803573ffffffffffffffffffffffffffffffffffffffff169060200190929190505050610941565b6040518082815260200191505060405180910390f35b34801561022957600080fd5b50610232610959565b005b61023c610ac4565b005b34801561024a57600080fd5b5061026960048036038101908080359060200190929190505050610b49565b6040518082815260200191505060405180910390f35b34801561028b57600080fd5b506102aa60048036038101908080359060200190929190505050610ba7565b6040518082815260200191505060405180910390f35b3480156102cc57600080fd5b506102eb60048036038101908080359060200190929190505050610c08565b005b3480156102f957600080fd5b5061031860048036038101908080359060200190929190505050610cfc565b604051808273ffffffffffffffffffffffffffffffffffffffff1673ffffffffffffffffffffffffffffffffffffffff16815260200191505060405180910390f35b34801561036657600080fd5b5061036f610d2f565b005b34801561037d57600080fd5b50610386610d3b565b005b34801561039457600080fd5b506103b360048036038101908080359060200190929190505050610ecc565b604051808260ff1660ff16815260200191505060405180910390f35b3480156103db57600080fd5b506103e4610eec565b604051808273ffffffffffffffffffffffffffffffffffffffff1673ffffffffffffffffffffffffffffffffffffffff16815260200191505060405180910390f35b34801561043257600080fd5b5061048d600480360381019080803590602001908201803590602001908080601f0160208091040260200160405190810160405280939291908181526020018383808284378201915050505050509192919290505050610f11565b005b34801561049b57600080fd5b506104ba6004803603810190808035906020019092919050505061102d565b005b3480156104c857600080fd5b506104e7600480360381019080803590602001909291905050506110df565b005b3480156104f557600080fd5b5061051460048036038101908080359060200190929190505050611259565b60405180806020018581526020018460ff1660ff16815260200183151515158152602001828103825286818151815260200191508051906020019080838360005b83811015610570578082015181840152602081019050610555565b50505050905090810190601f16801561059d5780820380516001836020036101000a031916815260200191505b509550505050505060405180910390f35b3480156105ba57600080fd5b506105ef600480360381019080803573ffffffffffffffffffffffffffffffffffffffff16906020019092919050505061134a565b005b600080823373ffffffffffffffffffffffffffffffffffffffff166008600083815260200190815260200160002060009054906101000a900473ffffffffffffffffffffffffffffffffffffffff1673ffffffffffffffffffffffffffffffffffffffff161415156106f1576040517f08c379a00000000000000000000000000000000000000000000000000000000081526004018080602001828103825260258152602001807f546865207365656420646f65736e27742062656c6f6e6720746f20746865207081526020017f6c6179657200000000000000000000000000000000000000000000000000000081525060400191505060405180910390fd5b60078481548110151561070057fe5b9060005260206000209060030201925060008360020160009054906101000a900460ff1660ff161415610809576001600260003373ffffffffffffffffffffffffffffffffffffffff1673ffffffffffffffffffffffffffffffffffffffff1681526020019081526020016000205481548110151561077b57fe5b9060005260206000209060040201915061079484610ba7565b600360006107a187610b49565b815260200190815260200160002060009054906101000a900460ff16018360020160006101000a81548160ff021916908360ff160217905550816001018490806001815401808255809150509060018203906000526020600020016000909192909190915055505b50505050565b606080600080600960008673ffffffffffffffffffffffffffffffffffffffff1673ffffffffffffffffffffffffffffffffffffffff168152602001908152602001600020546040519080825280602002602001820160405280156108835781602001602082028038833980820191505090505b50925060009150600090505b600780549050811015610936578473ffffffffffffffffffffffffffffffffffffffff166008600083815260200190815260200160002060009054906101000a900473ffffffffffffffffffffffffffffffffffffffff1673ffffffffffffffffffffffffffffffffffffffff1614156109295780838381518110151561091257fe5b906020019060200201818152505081806001019250505b808060010191505061088f565b829350505050919050565b60026020528060005260406000206000915090505481565b6000809054906101000a900473ffffffffffffffffffffffffffffffffffffffff1673ffffffffffffffffffffffffffffffffffffffff163373ffffffffffffffffffffffffffffffffffffffff16141515610a43576040517f08c379a00000000000000000000000000000000000000000000000000000000081526004018080602001828103825260278152602001807f4f6e6c7920746865206f776e65722063616e20706572666f726d20746869732081526020017f616374696f6e2e0000000000000000000000000000000000000000000000000081525060400191505060405180910390fd5b6000809054906101000a900473ffffffffffffffffffffffffffffffffffffffff1673ffffffffffffffffffffffffffffffffffffffff166108fc3073ffffffffffffffffffffffffffffffffffffffff16319081150290604051600060405180830381858888f19350505050158015610ac1573d6000803e3d6000fd5b50565b600c5434141515610b3d576040517f08c379a000000000000000000000000000000000000000000000000000000000815260040180806020018281038252601b8152602001807f5468652065746865722073656e742069736e277420656e6f756768000000000081525060200191505060405180910390fd5b610b476001611440565b565b6000806000600784815481101515610b5d57fe5b906000526020600020906003020191506103e88260010154811515610b7e57fe5b049050606481811515610b8d57fe5b06905060045481811515610b9d57fe5b0692505050919050565b6000806000600784815481101515610bbb57fe5b90600052602060002090600302019150620186a08260010154811515610bdd57fe5b049050600a81811515610bec57fe5b0690506001600382811515610bfd57fe5b060392505050919050565b6000809054906101000a900473ffffffffffffffffffffffffffffffffffffffff1673ffffffffffffffffffffffffffffffffffffffff163373ffffffffffffffffffffffffffffffffffffffff16141515610cf2576040517f08c379a00000000000000000000000000000000000000000000000000000000081526004018080602001828103825260278152602001807f4f6e6c7920746865206f776e65722063616e20706572666f726d20746869732081526020017f616374696f6e2e0000000000000000000000000000000000000000000000000081525060400191505060405180910390fd5b80600c8190555050565b60086020528060005260406000206000915054906101000a900473ffffffffffffffffffffffffffffffffffffffff1681565b610d396000611440565b565b6000809054906101000a900473ffffffffffffffffffffffffffffffffffffffff1673ffffffffffffffffffffffffffffffffffffffff163373ffffffffffffffffffffffffffffffffffffffff16141515610e25576040517f08c379a00000000000000000000000000000000000000000000000000000000081526004018080602001828103825260278152602001807f4f6e6c7920746865206f776e65722063616e20706572666f726d20746869732081526020017f616374696f6e2e0000000000000000000000000000000000000000000000000081525060400191505060405180910390fd5b6000809054906101000a900473ffffffffffffffffffffffffffffffffffffffff1673ffffffffffffffffffffffffffffffffffffffff167ff8df31144d9c2f0f6b59d69b8b98abd5459d07f2742c4df920b25aae33c6482060405160405180910390a260008060006101000a81548173ffffffffffffffffffffffffffffffffffffffff021916908373ffffffffffffffffffffffffffffffffffffffff160217905550565b60036020528060005260406000206000915054906101000a900460ff1681565b6000809054906101000a900473ffffffffffffffffffffffffffffffffffffffff1681565b600060016080604051908101604052808481526020016000604051908082528060200260200182016040528015610f575781602001602082028038833980820191505090505b5081526020016001815260200143815250908060018154018082558091505090600182039060005260206000209060040201600090919290919091506000820151816000019080519060200190610faf929190611ed4565b506020820151816001019080519060200190610fcc929190611f54565b5060408201518160020155606082015181600301555050905080600260003373ffffffffffffffffffffffffffffffffffffffff1673ffffffffffffffffffffffffffffffffffffffff168152602001908152602001600020819055505050565b600061103882611725565b9050600060078054905014151561109b576110966110906040805190810160405280600581526020017f53656564200000000000000000000000000000000000000000000000000000008152506007805490506117c6565b82611a66565b6110db565b6110da6040805190810160405280600681526020017f536565642030000000000000000000000000000000000000000000000000000081525082611a66565b5b5050565b6000813373ffffffffffffffffffffffffffffffffffffffff166008600083815260200190815260200160002060009054906101000a900473ffffffffffffffffffffffffffffffffffffffff1673ffffffffffffffffffffffffffffffffffffffff161415156111de576040517f08c379a00000000000000000000000000000000000000000000000000000000081526004018080602001828103825260258152602001807f546865207365656420646f65736e27742062656c6f6e6720746f20746865207081526020017f6c6179657200000000000000000000000000000000000000000000000000000081525060400191505060405180910390fd5b6007838154811015156111ed57fe5b906000526020600020906003020191508160020160019054906101000a900460ff16158015611231575060008260020160009054906101000a900460ff1660ff1614155b156112545760018260020160016101000a81548160ff0219169083151502179055505b505050565b60078181548110151561126857fe5b9060005260206000209060030201600091509050806000018054600181600116156101000203166002900480601f0160208091040260200160405190810160405280929190818152602001828054600181600116156101000203166002900480156113145780601f106112e957610100808354040283529160200191611314565b820191906000526020600020905b8154815290600101906020018083116112f757829003601f168201915b5050505050908060010154908060020160009054906101000a900460ff16908060020160019054906101000a900460ff16905084565b6000809054906101000a900473ffffffffffffffffffffffffffffffffffffffff1673ffffffffffffffffffffffffffffffffffffffff163373ffffffffffffffffffffffffffffffffffffffff16141515611434576040517f08c379a00000000000000000000000000000000000000000000000000000000081526004018080602001828103825260278152602001807f4f6e6c7920746865206f776e65722063616e20706572666f726d20746869732081526020017f616374696f6e2e0000000000000000000000000000000000000000000000000081525060400191505060405180910390fd5b61143d81611cc6565b50565b600080600080600260003373ffffffffffffffffffffffffffffffffffffffff1673ffffffffffffffffffffffffffffffffffffffff16815260200190815260200160002054935060008414151561171e576001848154811015156114a157fe5b9060005260206000209060040201925084151561155c576114c183611e29565b151561155b576040517f08c379a00000000000000000000000000000000000000000000000000000000081526004018080602001828103825260248152602001807f4861736e2774207061737320656e6f7567682074696d6520746f20676f20746f81526020017f206265640000000000000000000000000000000000000000000000000000000081525060400191505060405180910390fd5b5b61156583611e3e565b600091505b82600101805490508210156116fd576007836001018381548110151561158c57fe5b90600052602060002001548154811015156115a357fe5b906000526020600020906003020190508060020160019054906101000a900460ff16156116f25760008160020160016101000a81548160ff02191690831515021790555080600201600081819054906101000a900460ff166001900391906101000a81548160ff021916908360ff16021790555060008160020160009054906101000a900460ff1660ff1614156116f15782600101600184600101805490500381548110151561164f57fe5b9060005260206000200154836001018381548110151561166b57fe5b906000526020600020018190555082600101600184600101805490500381548110151561169457fe5b90600052602060002001600090556116f0600960003373ffffffffffffffffffffffffffffffffffffffff1673ffffffffffffffffffffffffffffffffffffffff1681526020019081526020016000205482600101540161102d565b5b5b81600101915061156a565b61171560018460020154611e4a90919063ffffffff16565b83600201819055505b5050505050565b60008082604051602001808281526020019150506040516020818303038152906040526040518082805190602001908083835b60208310151561177d5780518252602082019150602081019050602083039250611758565b6001836020036101000a0380198251168184511680821785525050505050509050019150506040518091039020600190049050600654818115156117bd57fe5b06915050919050565b60606000806060600080606080600089975060649650866040519080825280601f01601f19166020018201604052801561180f5781602001602082028038833980820191505090505b509550600094505b6000881415156118ae57600a8881151561182d57fe5b069350600a8881151561183c57fe5b049750836030017f010000000000000000000000000000000000000000000000000000000000000002868680600101975081518110151561187957fe5b9060200101907effffffffffffffffffffffffffffffffffffffffffffffffffffffffffffff1916908160001a905350611817565b8a9250848351016040519080825280601f01601f1916602001820160405280156118e75781602001602082028038833980820191505090505b509150600090505b825181101561199c57828181518110151561190657fe5b9060200101517f010000000000000000000000000000000000000000000000000000000000000090047f010000000000000000000000000000000000000000000000000000000000000002828281518110151561195f57fe5b9060200101907effffffffffffffffffffffffffffffffffffffffffffffffffffffffffffff1916908160001a90535080806001019150506118ef565b600090505b84811015611a5557858160018703038151811015156119bc57fe5b9060200101517f010000000000000000000000000000000000000000000000000000000000000090047f0100000000000000000000000000000000000000000000000000000000000000028284518301815181101515611a1857fe5b9060200101907effffffffffffffffffffffffffffffffffffffffffffffffffffffffffffff1916908160001a90535080806001019150506119a1565b819850505050505050505092915050565b600060016007608060405190810160405280868152602001858152602001600060ff16815260200160001515815250908060018154018082558091505090600182039060005260206000209060030201600090919290919091506000820151816000019080519060200190611adc929190611ed4565b506020820151816001015560408201518160020160006101000a81548160ff021916908360ff16021790555060608201518160020160016101000a81548160ff0219169083151502179055505050039050336008600083815260200190815260200160002060006101000a81548173ffffffffffffffffffffffffffffffffffffffff021916908373ffffffffffffffffffffffffffffffffffffffff160217905550611bd26001600960003373ffffffffffffffffffffffffffffffffffffffff1673ffffffffffffffffffffffffffffffffffffffff16815260200190815260200160002054611e4a90919063ffffffff16565b600960003373ffffffffffffffffffffffffffffffffffffffff1673ffffffffffffffffffffffffffffffffffffffff168152602001908152602001600020819055507fce48bf19e08859bf5b7fbde70faeb415663b4ea48c7c5cc270eeea608901f5238184846040518084815260200180602001838152602001828103825284818151815260200191508051906020019080838360005b83811015611c85578082015181840152602081019050611c6a565b50505050905090810190601f168015611cb25780820380516001836020036101000a031916815260200191505b5094505050505060405180910390a1505050565b600073ffffffffffffffffffffffffffffffffffffffff168173ffffffffffffffffffffffffffffffffffffffff1614151515611d6b576040517f08c379a00000000000000000000000000000000000000000000000000000000081526004018080602001828103825260198152602001807f54686520616464726573732063616e2774206265203078302e0000000000000081525060200191505060405180910390fd5b8073ffffffffffffffffffffffffffffffffffffffff166000809054906101000a900473ffffffffffffffffffffffffffffffffffffffff1673ffffffffffffffffffffffffffffffffffffffff167f8be0079c531659141344cd1fd0a4f28419497f9722a3daafe3b4186f6b6457e060405160405180910390a3806000806101000a81548173ffffffffffffffffffffffffffffffffffffffff021916908373ffffffffffffffffffffffffffffffffffffffff16021790555050565b6000600d548260030154430310159050919050565b43816003018190555050565b6000808284019050838110151515611eca576040517f08c379a00000000000000000000000000000000000000000000000000000000081526004018080602001828103825260088152602001807f4f766572666c6f7700000000000000000000000000000000000000000000000081525060200191505060405180910390fd5b8091505092915050565b828054600181600116156101000203166002900490600052602060002090601f016020900481019282601f10611f1557805160ff1916838001178555611f43565b82800160010185558215611f43579182015b82811115611f42578251825591602001919060010190611f27565b5b509050611f509190611fa1565b5090565b828054828255906000526020600020908101928215611f90579160200282015b82811115611f8f578251825591602001919060010190611f74565b5b509050611f9d9190611fa1565b5090565b611fc391905b80821115611fbf576000816000905550600101611fa7565b5090565b905600a165627a7a72305820ae53f7230474fa66a09fbb42be85e907643b7c248b64a6fc1ca3cacf68d302e20029",
  "source": "// solium-disable linebreak-style\r\npragma solidity ^0.4.24;\r\n\r\nimport \"./EHelper.sol\";\r\n\r\n\r\ncontract ESleep is EHelper{\r\n\r\n    uint sleepFee = 0.001 ether;\r\n\r\n    function withdraw() external onlyOwner{\r\n        owner.transfer(address(this).balance);\r\n    }\r\n\r\n    function setSleepFee(uint _fee) external onlyOwner {\r\n        sleepFee = _fee;\r\n    }\r\n\r\n    function goToBed() public{\r\n        _goToBedLogic(false);\r\n    }\r\n\r\n    function goToBedEarlier() external payable{\r\n        require(msg.value == sleepFee, \"The ether sent isn't enough\");\r\n        _goToBedLogic(true);\r\n    }\r\n\r\n    function _goToBedLogic(bool _hasPaid) private{\r\n        uint playerId = ownerToPlayer[msg.sender];\r\n        if(playerId != 0){\r\n            Player storage player = players[playerId];\r\n            if(!_hasPaid){\r\n                require(_isReadyToSleep(player), \"Hasn't pass enough time to go to bed\");\r\n            }\r\n            \r\n            //if(!_isReadyToSleep(player)){\r\n                // Cobrar fee\r\n            //}\r\n            _triggerSleepCooldown(player);\r\n            //uint seedPlantedLength = player.seedsPlanted.length;\r\n            //uint[] memory seedsGrown = new uint[](seedPlantedLength);\r\n            for(uint i = 0; i < player.seedsPlanted.length; ++i){\r\n                Seed storage seed = seeds[player.seedsPlanted[i]];\r\n                if(seed.isWatered){\r\n                    seed.isWatered = false;\r\n                    --seed.remainingDays;\r\n                    if(seed.remainingDays == 0){\r\n                        // Cosecha\r\n                        // Esto cambio el tamao arreglo que est iterando el for, ver si es un problema\r\n                        player.seedsPlanted[i] = player.seedsPlanted[player.seedsPlanted.length - 1];\r\n                        delete player.seedsPlanted[player.seedsPlanted.length - 1];\r\n                        // Se crea una nueva semilla a partir de la que se cosecho\r\n                        createRandomSeed(seed.traits + ownedSeedsCount[msg.sender]);\r\n                        //continue;\r\n                    }\r\n\r\n                }\r\n            }\r\n            player.currentDay = player.currentDay.add(1);\r\n        }\r\n    }\r\n\r\n    \r\n    uint sleepCooldownTime = 216000;\r\n\r\n    function _triggerSleepCooldown(Player storage _player) internal {\r\n        _player.lastBedtime = block.number;\r\n    }\r\n\r\n    function _isReadyToSleep(Player storage _player) internal view returns (bool) {\r\n        return(block.number - _player.lastBedtime >= sleepCooldownTime);\r\n    }\r\n\r\n\r\n}",
  "sourcePath": "D:\\Solidity\\EtherealLands\\contracts\\ESleep.sol",
  "compiler": {
    "name": "solc",
    "version": "0.4.24+commit.e67f0147.Emscripten.clang"
  },
  "schemaVersion": "2.0.1",
  "updatedAt": "2018-08-23T10:01:19.174Z"
}