{
  "contractName": "EWater",
  "abi": [
    {
      "constant": true,
      "inputs": [
        {
          "name": "",
          "type": "address"
        }
      ],
      "name": "ownerToPlayer",
      "outputs": [
        {
          "name": "",
          "type": "uint256"
        }
      ],
      "payable": false,
      "stateMutability": "view",
      "type": "function"
    },
    {
      "constant": true,
      "inputs": [
        {
          "name": "_seedId",
          "type": "uint256"
        }
      ],
      "name": "getType",
      "outputs": [
        {
          "name": "",
          "type": "uint256"
        }
      ],
      "payable": false,
      "stateMutability": "view",
      "type": "function"
    },
    {
      "constant": true,
      "inputs": [
        {
          "name": "_seedId",
          "type": "uint256"
        }
      ],
      "name": "getBonus",
      "outputs": [
        {
          "name": "",
          "type": "uint256"
        }
      ],
      "payable": false,
      "stateMutability": "view",
      "type": "function"
    },
    {
      "constant": true,
      "inputs": [
        {
          "name": "",
          "type": "uint256"
        }
      ],
      "name": "seedOwner",
      "outputs": [
        {
          "name": "",
          "type": "address"
        }
      ],
      "payable": false,
      "stateMutability": "view",
      "type": "function"
    },
    {
      "constant": false,
      "inputs": [],
      "name": "renounceOwnership",
      "outputs": [],
      "payable": false,
      "stateMutability": "nonpayable",
      "type": "function"
    },
    {
      "constant": true,
      "inputs": [
        {
          "name": "",
          "type": "uint256"
        }
      ],
      "name": "daysToHarvest",
      "outputs": [
        {
          "name": "",
          "type": "uint8"
        }
      ],
      "payable": false,
      "stateMutability": "view",
      "type": "function"
    },
    {
      "constant": true,
      "inputs": [],
      "name": "owner",
      "outputs": [
        {
          "name": "",
          "type": "address"
        }
      ],
      "payable": false,
      "stateMutability": "view",
      "type": "function"
    },
    {
      "constant": false,
      "inputs": [
        {
          "name": "_name",
          "type": "string"
        }
      ],
      "name": "createLand",
      "outputs": [],
      "payable": false,
      "stateMutability": "nonpayable",
      "type": "function"
    },
    {
      "constant": false,
      "inputs": [
        {
          "name": "_id",
          "type": "uint256"
        }
      ],
      "name": "createRandomSeed",
      "outputs": [],
      "payable": false,
      "stateMutability": "nonpayable",
      "type": "function"
    },
    {
      "constant": true,
      "inputs": [
        {
          "name": "",
          "type": "uint256"
        }
      ],
      "name": "seeds",
      "outputs": [
        {
          "name": "name",
          "type": "string"
        },
        {
          "name": "traits",
          "type": "uint256"
        },
        {
          "name": "remainingDays",
          "type": "uint8"
        },
        {
          "name": "isWatered",
          "type": "bool"
        }
      ],
      "payable": false,
      "stateMutability": "view",
      "type": "function"
    },
    {
      "constant": false,
      "inputs": [
        {
          "name": "_newOwner",
          "type": "address"
        }
      ],
      "name": "transferOwnership",
      "outputs": [],
      "payable": false,
      "stateMutability": "nonpayable",
      "type": "function"
    },
    {
      "anonymous": false,
      "inputs": [
        {
          "indexed": false,
          "name": "id",
          "type": "uint256"
        },
        {
          "indexed": false,
          "name": "name",
          "type": "string"
        },
        {
          "indexed": false,
          "name": "traits",
          "type": "uint256"
        }
      ],
      "name": "SeedCreated",
      "type": "event"
    },
    {
      "anonymous": false,
      "inputs": [
        {
          "indexed": true,
          "name": "previousOwner",
          "type": "address"
        }
      ],
      "name": "OwnershipRenounced",
      "type": "event"
    },
    {
      "anonymous": false,
      "inputs": [
        {
          "indexed": true,
          "name": "previousOwner",
          "type": "address"
        },
        {
          "indexed": true,
          "name": "newOwner",
          "type": "address"
        }
      ],
      "name": "OwnershipTransferred",
      "type": "event"
    },
    {
      "constant": false,
      "inputs": [
        {
          "name": "_seedId",
          "type": "uint256"
        }
      ],
      "name": "seedPlanting",
      "outputs": [],
      "payable": false,
      "stateMutability": "nonpayable",
      "type": "function"
    },
    {
      "constant": false,
      "inputs": [
        {
          "name": "_seedId",
          "type": "uint256"
        }
      ],
      "name": "seedWatering",
      "outputs": [],
      "payable": false,
      "stateMutability": "nonpayable",
      "type": "function"
    }
  ],
  "bytecode": "0x608060405260066004556006600555600554600a0a600655336000806101000a81548173ffffffffffffffffffffffffffffffffffffffff021916908373ffffffffffffffffffffffffffffffffffffffff16021790555060056003600080815260200190815260200160002060006101000a81548160ff021916908360ff1602179055506008600360006001815260200190815260200160002060006101000a81548160ff021916908360ff1602179055506008600360006002815260200190815260200160002060006101000a81548160ff021916908360ff160217905550600a600360006003815260200190815260200160002060006101000a81548160ff021916908360ff1602179055506008600360006004815260200190815260200160002060006101000a81548160ff021916908360ff160217905550600a600360006005815260200190815260200160002060006101000a81548160ff021916908360ff160217905550611781806101796000396000f3006080604052600436106100c5576000357c0100000000000000000000000000000000000000000000000000000000900463ffffffff16806310ff56ec146100ca5780633ca7aac3146100f75780634036ab781461014e5780634aa66b281461018f5780635ebad701146101d0578063715018a61461023d5780637917ab05146102545780638da5cb5b1461029b578063b5eddba3146102f2578063bdd629651461035b578063c57dcc8314610388578063f0503e80146103b5578063f2fde38b1461047a575b600080fd5b3480156100d657600080fd5b506100f5600480360381019080803590602001909291905050506104bd565b005b34801561010357600080fd5b50610138600480360381019080803573ffffffffffffffffffffffffffffffffffffffff1690602001909291905050506106db565b6040518082815260200191505060405180910390f35b34801561015a57600080fd5b50610179600480360381019080803590602001909291905050506106f3565b6040518082815260200191505060405180910390f35b34801561019b57600080fd5b506101ba60048036038101908080359060200190929190505050610751565b6040518082815260200191505060405180910390f35b3480156101dc57600080fd5b506101fb600480360381019080803590602001909291905050506107b2565b604051808273ffffffffffffffffffffffffffffffffffffffff1673ffffffffffffffffffffffffffffffffffffffff16815260200191505060405180910390f35b34801561024957600080fd5b506102526107e5565b005b34801561026057600080fd5b5061027f60048036038101908080359060200190929190505050610976565b604051808260ff1660ff16815260200191505060405180910390f35b3480156102a757600080fd5b506102b0610996565b604051808273ffffffffffffffffffffffffffffffffffffffff1673ffffffffffffffffffffffffffffffffffffffff16815260200191505060405180910390f35b3480156102fe57600080fd5b50610359600480360381019080803590602001908201803590602001908080601f01602080910402602001604051908101604052809392919081815260200183838082843782019150505050505091929192905050506109bb565b005b34801561036757600080fd5b5061038660048036038101908080359060200190929190505050610ad7565b005b34801561039457600080fd5b506103b360048036038101908080359060200190929190505050610b40565b005b3480156103c157600080fd5b506103e060048036038101908080359060200190929190505050610cba565b60405180806020018581526020018460ff1660ff16815260200183151515158152602001828103825286818151815260200191508051906020019080838360005b8381101561043c578082015181840152602081019050610421565b50505050905090810190601f1680156104695780820380516001836020036101000a031916815260200191505b509550505050505060405180910390f35b34801561048657600080fd5b506104bb600480360381019080803573ffffffffffffffffffffffffffffffffffffffff169060200190929190505050610dab565b005b600080823373ffffffffffffffffffffffffffffffffffffffff166008600083815260200190815260200160002060009054906101000a900473ffffffffffffffffffffffffffffffffffffffff1673ffffffffffffffffffffffffffffffffffffffff161415156105bd576040517f08c379a00000000000000000000000000000000000000000000000000000000081526004018080602001828103825260258152602001807f546865207365656420646f65736e27742062656c6f6e6720746f20746865207081526020017f6c6179657200000000000000000000000000000000000000000000000000000081525060400191505060405180910390fd5b6007848154811015156105cc57fe5b9060005260206000209060030201925060008360020160009054906101000a900460ff1660ff1614156106d5576001600260003373ffffffffffffffffffffffffffffffffffffffff1673ffffffffffffffffffffffffffffffffffffffff1681526020019081526020016000205481548110151561064757fe5b9060005260206000209060040201915061066084610751565b6003600061066d876106f3565b815260200190815260200160002060009054906101000a900460ff16018360020160006101000a81548160ff021916908360ff160217905550816001018490806001815401808255809150509060018203906000526020600020016000909192909190915055505b50505050565b60026020528060005260406000206000915090505481565b600080600060078481548110151561070757fe5b906000526020600020906003020191506103e8826001015481151561072857fe5b04905060648181151561073757fe5b0690506004548181151561074757fe5b0692505050919050565b600080600060078481548110151561076557fe5b90600052602060002090600302019150620186a0826001015481151561078757fe5b049050600a8181151561079657fe5b06905060016003828115156107a757fe5b060392505050919050565b60086020528060005260406000206000915054906101000a900473ffffffffffffffffffffffffffffffffffffffff1681565b6000809054906101000a900473ffffffffffffffffffffffffffffffffffffffff1673ffffffffffffffffffffffffffffffffffffffff163373ffffffffffffffffffffffffffffffffffffffff161415156108cf576040517f08c379a00000000000000000000000000000000000000000000000000000000081526004018080602001828103825260278152602001807f4f6e6c7920746865206f776e65722063616e20706572666f726d20746869732081526020017f616374696f6e2e0000000000000000000000000000000000000000000000000081525060400191505060405180910390fd5b6000809054906101000a900473ffffffffffffffffffffffffffffffffffffffff1673ffffffffffffffffffffffffffffffffffffffff167ff8df31144d9c2f0f6b59d69b8b98abd5459d07f2742c4df920b25aae33c6482060405160405180910390a260008060006101000a81548173ffffffffffffffffffffffffffffffffffffffff021916908373ffffffffffffffffffffffffffffffffffffffff160217905550565b60036020528060005260406000206000915054906101000a900460ff1681565b6000809054906101000a900473ffffffffffffffffffffffffffffffffffffffff1681565b600060016080604051908101604052808481526020016000604051908082528060200260200182016040528015610a015781602001602082028038833980820191505090505b5081526020016001815260200143815250908060018154018082558091505090600182039060005260206000209060040201600090919290919091506000820151816000019080519060200190610a59929190611663565b506020820151816001019080519060200190610a769291906116e3565b5060408201518160020155606082015181600301555050905080600260003373ffffffffffffffffffffffffffffffffffffffff1673ffffffffffffffffffffffffffffffffffffffff168152602001908152602001600020819055505050565b6000610ae282610ea1565b9050610b3c610b366040805190810160405280600581526020017f5365656420000000000000000000000000000000000000000000000000000000815250610b31600780549050600102610f42565b611045565b82611216565b5050565b6000813373ffffffffffffffffffffffffffffffffffffffff166008600083815260200190815260200160002060009054906101000a900473ffffffffffffffffffffffffffffffffffffffff1673ffffffffffffffffffffffffffffffffffffffff16141515610c3f576040517f08c379a00000000000000000000000000000000000000000000000000000000081526004018080602001828103825260258152602001807f546865207365656420646f65736e27742062656c6f6e6720746f20746865207081526020017f6c6179657200000000000000000000000000000000000000000000000000000081525060400191505060405180910390fd5b600783815481101515610c4e57fe5b906000526020600020906003020191508160020160019054906101000a900460ff16158015610c92575060008260020160009054906101000a900460ff1660ff1614155b15610cb55760018260020160016101000a81548160ff0219169083151502179055505b505050565b600781815481101515610cc957fe5b9060005260206000209060030201600091509050806000018054600181600116156101000203166002900480601f016020809104026020016040519081016040528092919081815260200182805460018160011615610100020316600290048015610d755780601f10610d4a57610100808354040283529160200191610d75565b820191906000526020600020905b815481529060010190602001808311610d5857829003601f168201915b5050505050908060010154908060020160009054906101000a900460ff16908060020160019054906101000a900460ff16905084565b6000809054906101000a900473ffffffffffffffffffffffffffffffffffffffff1673ffffffffffffffffffffffffffffffffffffffff163373ffffffffffffffffffffffffffffffffffffffff16141515610e95576040517f08c379a00000000000000000000000000000000000000000000000000000000081526004018080602001828103825260278152602001807f4f6e6c7920746865206f776e65722063616e20706572666f726d20746869732081526020017f616374696f6e2e0000000000000000000000000000000000000000000000000081525060400191505060405180910390fd5b610e9e81611476565b50565b60008082604051602001808281526020019150506040516020818303038152906040526040518082805190602001908083835b602083101515610ef95780518252602082019150602081019050602083039250610ed4565b6001836020036101000a038019825116818451168082178552505050505050905001915050604051809103902060019004905060065481811515610f3957fe5b06915050919050565b60608060008060206040519080825280601f01601f191660200182016040528015610f7c5781602001602082028038833980820191505090505b509250600091505b602082101561103a578160080260020a856001900402600102905060007f010000000000000000000000000000000000000000000000000000000000000002817effffffffffffffffffffffffffffffffffffffffffffffffffffffffffffff191614151561102d57808383815181101515610ffc57fe5b9060200101907effffffffffffffffffffffffffffffffffffffffffffffffffffffffffffff1916908160001a9053505b8180600101925050610f84565b829350505050919050565b606080606080606060008088955087945084518651016040519080825280601f01601f19166020018201604052801561108d5781602001602082028038833980820191505090505b50935083925060009150600090505b855181101561114f5785818151811015156110b357fe5b9060200101517f010000000000000000000000000000000000000000000000000000000000000090047f010000000000000000000000000000000000000000000000000000000000000002838380600101945081518110151561111257fe5b9060200101907effffffffffffffffffffffffffffffffffffffffffffffffffffffffffffff1916908160001a905350808060010191505061109c565b600090505b845181101561120757848181518110151561116b57fe5b9060200101517f010000000000000000000000000000000000000000000000000000000000000090047f01000000000000000000000000000000000000000000000000000000000000000283838060010194508151811015156111ca57fe5b9060200101907effffffffffffffffffffffffffffffffffffffffffffffffffffffffffffff1916908160001a9053508080600101915050611154565b82965050505050505092915050565b600060016007608060405190810160405280868152602001858152602001600060ff1681526020016000151581525090806001815401808255809150509060018203906000526020600020906003020160009091929091909150600082015181600001908051906020019061128c929190611663565b506020820151816001015560408201518160020160006101000a81548160ff021916908360ff16021790555060608201518160020160016101000a81548160ff0219169083151502179055505050039050336008600083815260200190815260200160002060006101000a81548173ffffffffffffffffffffffffffffffffffffffff021916908373ffffffffffffffffffffffffffffffffffffffff1602179055506113826001600960003373ffffffffffffffffffffffffffffffffffffffff1673ffffffffffffffffffffffffffffffffffffffff168152602001908152602001600020546115d990919063ffffffff16565b600960003373ffffffffffffffffffffffffffffffffffffffff1673ffffffffffffffffffffffffffffffffffffffff168152602001908152602001600020819055507fce48bf19e08859bf5b7fbde70faeb415663b4ea48c7c5cc270eeea608901f5238184846040518084815260200180602001838152602001828103825284818151815260200191508051906020019080838360005b8381101561143557808201518184015260208101905061141a565b50505050905090810190601f1680156114625780820380516001836020036101000a031916815260200191505b5094505050505060405180910390a1505050565b600073ffffffffffffffffffffffffffffffffffffffff168173ffffffffffffffffffffffffffffffffffffffff161415151561151b576040517f08c379a00000000000000000000000000000000000000000000000000000000081526004018080602001828103825260198152602001807f54686520616464726573732063616e2774206265203078302e0000000000000081525060200191505060405180910390fd5b8073ffffffffffffffffffffffffffffffffffffffff166000809054906101000a900473ffffffffffffffffffffffffffffffffffffffff1673ffffffffffffffffffffffffffffffffffffffff167f8be0079c531659141344cd1fd0a4f28419497f9722a3daafe3b4186f6b6457e060405160405180910390a3806000806101000a81548173ffffffffffffffffffffffffffffffffffffffff021916908373ffffffffffffffffffffffffffffffffffffffff16021790555050565b6000808284019050838110151515611659576040517f08c379a00000000000000000000000000000000000000000000000000000000081526004018080602001828103825260088152602001807f4f766572666c6f7700000000000000000000000000000000000000000000000081525060200191505060405180910390fd5b8091505092915050565b828054600181600116156101000203166002900490600052602060002090601f016020900481019282601f106116a457805160ff19168380011785556116d2565b828001600101855582156116d2579182015b828111156116d15782518255916020019190600101906116b6565b5b5090506116df9190611730565b5090565b82805482825590600052602060002090810192821561171f579160200282015b8281111561171e578251825591602001919060010190611703565b5b50905061172c9190611730565b5090565b61175291905b8082111561174e576000816000905550600101611736565b5090565b905600a165627a7a72305820a5c33a7b21321e2661bd0b0bd04f1a657e2cd9f959424254a0d11445dadea8d80029",
  "source": "// solium-disable linebreak-style\r\npragma solidity ^0.4.24;\r\n\r\nimport \"./ESeed.sol\";\r\n\r\n\r\ncontract EWater is ESeed{\r\n\r\n    modifier onlyOwnerOf(uint _seedId){\r\n        require(seedOwner[_seedId] == msg.sender, \"The seed doesn't belong to the player\");\r\n        _;\r\n    }\r\n\r\n    mapping (address => uint) ownerSeedsPlanted;\r\n\r\n    \r\n\r\n    function seedPlanting(uint _seedId) public onlyOwnerOf(_seedId){\r\n        Seed storage seed = seeds[_seedId];\r\n        if(seed.remainingDays == 0){\r\n            Player storage player = players[ownerToPlayer[msg.sender]];\r\n            seed.remainingDays = daysToHarvest[getType(_seedId)] + uint8(getBonus(_seedId));\r\n            //seed.lastWatered = player.currentDay;\r\n            player.seedsPlanted.push(_seedId);\r\n\r\n        }\r\n    }\r\n\r\n    function seedWatering(uint _seedId) public onlyOwnerOf(_seedId){\r\n        Seed storage seed = seeds[_seedId];\r\n        //Player storage player = players[ownerToPlayer[msg.sender]];\r\n        if (!seed.isWatered && seed.remainingDays != 0){\r\n            seed.isWatered = true;\r\n            //seed.lastWatered = player.currentDay;\r\n            //--seed.remainingDays;\r\n        }\r\n    }\r\n}",
  "sourcePath": "D:\\Solidity\\EtherealLands\\contracts\\EWater.sol",
  "compiler": {
    "name": "solc",
    "version": "0.4.24+commit.e67f0147.Emscripten.clang"
  },
  "schemaVersion": "2.0.1",
  "updatedAt": "2018-08-23T08:05:30.555Z"
}