{
  "contractName": "EWater",
  "abi": [
    {
      "constant": true,
      "inputs": [
        {
          "name": "",
          "type": "address"
        }
      ],
      "name": "ownerPlayer",
      "outputs": [
        {
          "name": "",
          "type": "uint256"
        }
      ],
      "payable": false,
      "stateMutability": "view",
      "type": "function"
    },
    {
      "constant": true,
      "inputs": [
        {
          "name": "_seedId",
          "type": "uint256"
        }
      ],
      "name": "getType",
      "outputs": [
        {
          "name": "",
          "type": "uint256"
        }
      ],
      "payable": false,
      "stateMutability": "view",
      "type": "function"
    },
    {
      "constant": true,
      "inputs": [
        {
          "name": "_seedId",
          "type": "uint256"
        }
      ],
      "name": "getBonus",
      "outputs": [
        {
          "name": "",
          "type": "uint256"
        }
      ],
      "payable": false,
      "stateMutability": "view",
      "type": "function"
    },
    {
      "constant": true,
      "inputs": [
        {
          "name": "",
          "type": "uint256"
        }
      ],
      "name": "seedOwner",
      "outputs": [
        {
          "name": "",
          "type": "address"
        }
      ],
      "payable": false,
      "stateMutability": "view",
      "type": "function"
    },
    {
      "constant": false,
      "inputs": [],
      "name": "renounceOwnership",
      "outputs": [],
      "payable": false,
      "stateMutability": "nonpayable",
      "type": "function"
    },
    {
      "constant": true,
      "inputs": [
        {
          "name": "",
          "type": "uint256"
        }
      ],
      "name": "daysToHarvest",
      "outputs": [
        {
          "name": "",
          "type": "uint8"
        }
      ],
      "payable": false,
      "stateMutability": "view",
      "type": "function"
    },
    {
      "constant": true,
      "inputs": [],
      "name": "owner",
      "outputs": [
        {
          "name": "",
          "type": "address"
        }
      ],
      "payable": false,
      "stateMutability": "view",
      "type": "function"
    },
    {
      "constant": true,
      "inputs": [],
      "name": "getTotalSeeds",
      "outputs": [
        {
          "name": "",
          "type": "uint256"
        }
      ],
      "payable": false,
      "stateMutability": "view",
      "type": "function"
    },
    {
      "constant": false,
      "inputs": [
        {
          "name": "_name",
          "type": "string"
        }
      ],
      "name": "createLand",
      "outputs": [],
      "payable": false,
      "stateMutability": "nonpayable",
      "type": "function"
    },
    {
      "constant": false,
      "inputs": [
        {
          "name": "_id",
          "type": "uint256"
        }
      ],
      "name": "createRandomSeed",
      "outputs": [],
      "payable": false,
      "stateMutability": "nonpayable",
      "type": "function"
    },
    {
      "constant": true,
      "inputs": [
        {
          "name": "",
          "type": "uint256"
        }
      ],
      "name": "seeds",
      "outputs": [
        {
          "name": "name",
          "type": "string"
        },
        {
          "name": "traits",
          "type": "uint256"
        },
        {
          "name": "remainingDays",
          "type": "uint8"
        },
        {
          "name": "isWatered",
          "type": "bool"
        }
      ],
      "payable": false,
      "stateMutability": "view",
      "type": "function"
    },
    {
      "constant": false,
      "inputs": [
        {
          "name": "_newOwner",
          "type": "address"
        }
      ],
      "name": "transferOwnership",
      "outputs": [],
      "payable": false,
      "stateMutability": "nonpayable",
      "type": "function"
    },
    {
      "constant": true,
      "inputs": [
        {
          "name": "",
          "type": "uint256"
        }
      ],
      "name": "players",
      "outputs": [
        {
          "name": "name",
          "type": "string"
        },
        {
          "name": "currentDay",
          "type": "uint256"
        },
        {
          "name": "lastBedtime",
          "type": "uint256"
        }
      ],
      "payable": false,
      "stateMutability": "view",
      "type": "function"
    },
    {
      "anonymous": false,
      "inputs": [
        {
          "indexed": false,
          "name": "id",
          "type": "uint256"
        },
        {
          "indexed": false,
          "name": "name",
          "type": "string"
        },
        {
          "indexed": false,
          "name": "traits",
          "type": "uint256"
        }
      ],
      "name": "SeedCreated",
      "type": "event"
    },
    {
      "anonymous": false,
      "inputs": [
        {
          "indexed": true,
          "name": "previousOwner",
          "type": "address"
        }
      ],
      "name": "OwnershipRenounced",
      "type": "event"
    },
    {
      "anonymous": false,
      "inputs": [
        {
          "indexed": true,
          "name": "previousOwner",
          "type": "address"
        },
        {
          "indexed": true,
          "name": "newOwner",
          "type": "address"
        }
      ],
      "name": "OwnershipTransferred",
      "type": "event"
    },
    {
      "constant": false,
      "inputs": [
        {
          "name": "_seedId",
          "type": "uint256"
        }
      ],
      "name": "seedPlanting",
      "outputs": [],
      "payable": false,
      "stateMutability": "nonpayable",
      "type": "function"
    },
    {
      "constant": false,
      "inputs": [
        {
          "name": "_seedId",
          "type": "uint256"
        }
      ],
      "name": "seedWatering",
      "outputs": [],
      "payable": false,
      "stateMutability": "nonpayable",
      "type": "function"
    }
  ],
  "bytecode": "0x608060405260066004556006600555600554600a0a600655336000806101000a81548173ffffffffffffffffffffffffffffffffffffffff021916908373ffffffffffffffffffffffffffffffffffffffff16021790555060026003600080815260200190815260200160002060006101000a81548160ff021916908360ff1602179055506002600360006001815260200190815260200160002060006101000a81548160ff021916908360ff1602179055506002600360006002815260200190815260200160002060006101000a81548160ff021916908360ff1602179055506002600360006003815260200190815260200160002060006101000a81548160ff021916908360ff1602179055506002600360006004815260200190815260200160002060006101000a81548160ff021916908360ff1602179055506002600360006005815260200190815260200160002060006101000a81548160ff021916908360ff160217905550611979806101796000396000f3006080604052600436106100db576000357c0100000000000000000000000000000000000000000000000000000000900463ffffffff1680630d194370146100e057806310ff56ec146101375780634036ab78146101645780634aa66b28146101a55780635ebad701146101e6578063715018a6146102535780637917ab051461026a5780638da5cb5b146102b15780639d30d06314610308578063b5eddba314610333578063bdd629651461039c578063c57dcc83146103c9578063f0503e80146103f6578063f2fde38b146104bb578063f71d96cb146104fe575b600080fd5b3480156100ec57600080fd5b50610121600480360381019080803573ffffffffffffffffffffffffffffffffffffffff1690602001909291905050506105b2565b6040518082815260200191505060405180910390f35b34801561014357600080fd5b50610162600480360381019080803590602001909291905050506105ca565b005b34801561017057600080fd5b5061018f600480360381019080803590602001909291905050506107ea565b6040518082815260200191505060405180910390f35b3480156101b157600080fd5b506101d060048036038101908080359060200190929190505050610848565b6040518082815260200191505060405180910390f35b3480156101f257600080fd5b50610211600480360381019080803590602001909291905050506108a9565b604051808273ffffffffffffffffffffffffffffffffffffffff1673ffffffffffffffffffffffffffffffffffffffff16815260200191505060405180910390f35b34801561025f57600080fd5b506102686108dc565b005b34801561027657600080fd5b5061029560048036038101908080359060200190929190505050610a6d565b604051808260ff1660ff16815260200191505060405180910390f35b3480156102bd57600080fd5b506102c6610a8d565b604051808273ffffffffffffffffffffffffffffffffffffffff1673ffffffffffffffffffffffffffffffffffffffff16815260200191505060405180910390f35b34801561031457600080fd5b5061031d610ab2565b6040518082815260200191505060405180910390f35b34801561033f57600080fd5b5061039a600480360381019080803590602001908201803590602001908080601f0160208091040260200160405190810160405280939291908181526020018383808284378201915050505050509192919290505050610abf565b005b3480156103a857600080fd5b506103c760048036038101908080359060200190929190505050610be9565b005b3480156103d557600080fd5b506103f460048036038101908080359060200190929190505050610c9b565b005b34801561040257600080fd5b5061042160048036038101908080359060200190929190505050610e15565b60405180806020018581526020018460ff1660ff16815260200183151515158152602001828103825286818151815260200191508051906020019080838360005b8381101561047d578082015181840152602081019050610462565b50505050905090810190601f1680156104aa5780820380516001836020036101000a031916815260200191505b509550505050505060405180910390f35b3480156104c757600080fd5b506104fc600480360381019080803573ffffffffffffffffffffffffffffffffffffffff169060200190929190505050610f06565b005b34801561050a57600080fd5b5061052960048036038101908080359060200190929190505050610ffc565b6040518080602001848152602001838152602001828103825285818151815260200191508051906020019080838360005b8381101561057557808201518184015260208101905061055a565b50505050905090810190601f1680156105a25780820380516001836020036101000a031916815260200191505b5094505050505060405180910390f35b60026020528060005260406000206000915090505481565b600080823373ffffffffffffffffffffffffffffffffffffffff166008600083815260200190815260200160002060009054906101000a900473ffffffffffffffffffffffffffffffffffffffff1673ffffffffffffffffffffffffffffffffffffffff161415156106ca576040517f08c379a00000000000000000000000000000000000000000000000000000000081526004018080602001828103825260258152602001807f546865207365656420646f65736e27742062656c6f6e6720746f20746865207081526020017f6c6179657200000000000000000000000000000000000000000000000000000081525060400191505060405180910390fd5b6007848154811015156106d957fe5b9060005260206000209060030201925060008360020160009054906101000a900460ff1660ff1614156107e457600180600260003373ffffffffffffffffffffffffffffffffffffffff1673ffffffffffffffffffffffffffffffffffffffff168152602001908152602001600020540381548110151561075657fe5b9060005260206000209060040201915061076f84610848565b6003600061077c876107ea565b815260200190815260200160002060009054906101000a900460ff16018360020160006101000a81548160ff021916908360ff160217905550816001018490806001815401808255809150509060018203906000526020600020016000909192909190915055505b50505050565b60008060006007848154811015156107fe57fe5b906000526020600020906003020191506103e8826001015481151561081f57fe5b04905060648181151561082e57fe5b0690506004548181151561083e57fe5b0692505050919050565b600080600060078481548110151561085c57fe5b90600052602060002090600302019150620186a0826001015481151561087e57fe5b049050600a8181151561088d57fe5b069050600160038281151561089e57fe5b060392505050919050565b60086020528060005260406000206000915054906101000a900473ffffffffffffffffffffffffffffffffffffffff1681565b6000809054906101000a900473ffffffffffffffffffffffffffffffffffffffff1673ffffffffffffffffffffffffffffffffffffffff163373ffffffffffffffffffffffffffffffffffffffff161415156109c6576040517f08c379a00000000000000000000000000000000000000000000000000000000081526004018080602001828103825260278152602001807f4f6e6c7920746865206f776e65722063616e20706572666f726d20746869732081526020017f616374696f6e2e0000000000000000000000000000000000000000000000000081525060400191505060405180910390fd5b6000809054906101000a900473ffffffffffffffffffffffffffffffffffffffff1673ffffffffffffffffffffffffffffffffffffffff167ff8df31144d9c2f0f6b59d69b8b98abd5459d07f2742c4df920b25aae33c6482060405160405180910390a260008060006101000a81548173ffffffffffffffffffffffffffffffffffffffff021916908373ffffffffffffffffffffffffffffffffffffffff160217905550565b60036020528060005260406000206000915054906101000a900460ff1681565b6000809054906101000a900473ffffffffffffffffffffffffffffffffffffffff1681565b6000600780549050905090565b600060016080604051908101604052808481526020016000604051908082528060200260200182016040528015610b055781602001602082028038833980820191505090505b5081526020016001815260200143815250908060018154018082558091505090600182039060005260206000209060040201600090919290919091506000820151816000019080519060200190610b5d92919061185b565b506020820151816001019080519060200190610b7a9291906118db565b5060408201518160020155606082015181600301555050905080600260003373ffffffffffffffffffffffffffffffffffffffff1673ffffffffffffffffffffffffffffffffffffffff16815260200190815260200160002081905550610be5600780549050610be9565b5050565b6000610bf4826110cd565b90506000600780549050141515610c5757610c52610c4c6040805190810160405280600581526020017f536565642000000000000000000000000000000000000000000000000000000081525060078054905061116e565b8261140e565b610c97565b610c966040805190810160405280600681526020017f53656564203000000000000000000000000000000000000000000000000000008152508261140e565b5b5050565b6000813373ffffffffffffffffffffffffffffffffffffffff166008600083815260200190815260200160002060009054906101000a900473ffffffffffffffffffffffffffffffffffffffff1673ffffffffffffffffffffffffffffffffffffffff16141515610d9a576040517f08c379a00000000000000000000000000000000000000000000000000000000081526004018080602001828103825260258152602001807f546865207365656420646f65736e27742062656c6f6e6720746f20746865207081526020017f6c6179657200000000000000000000000000000000000000000000000000000081525060400191505060405180910390fd5b600783815481101515610da957fe5b906000526020600020906003020191508160020160019054906101000a900460ff16158015610ded575060008260020160009054906101000a900460ff1660ff1614155b15610e105760018260020160016101000a81548160ff0219169083151502179055505b505050565b600781815481101515610e2457fe5b9060005260206000209060030201600091509050806000018054600181600116156101000203166002900480601f016020809104026020016040519081016040528092919081815260200182805460018160011615610100020316600290048015610ed05780601f10610ea557610100808354040283529160200191610ed0565b820191906000526020600020905b815481529060010190602001808311610eb357829003601f168201915b5050505050908060010154908060020160009054906101000a900460ff16908060020160019054906101000a900460ff16905084565b6000809054906101000a900473ffffffffffffffffffffffffffffffffffffffff1673ffffffffffffffffffffffffffffffffffffffff163373ffffffffffffffffffffffffffffffffffffffff16141515610ff0576040517f08c379a00000000000000000000000000000000000000000000000000000000081526004018080602001828103825260278152602001807f4f6e6c7920746865206f776e65722063616e20706572666f726d20746869732081526020017f616374696f6e2e0000000000000000000000000000000000000000000000000081525060400191505060405180910390fd5b610ff98161166e565b50565b60018181548110151561100b57fe5b9060005260206000209060040201600091509050806000018054600181600116156101000203166002900480601f0160208091040260200160405190810160405280929190818152602001828054600181600116156101000203166002900480156110b75780601f1061108c576101008083540402835291602001916110b7565b820191906000526020600020905b81548152906001019060200180831161109a57829003601f168201915b5050505050908060020154908060030154905083565b60008082604051602001808281526020019150506040516020818303038152906040526040518082805190602001908083835b6020831015156111255780518252602082019150602081019050602083039250611100565b6001836020036101000a03801982511681845116808217855250505050505090500191505060405180910390206001900490506006548181151561116557fe5b06915050919050565b60606000806060600080606080600089975060649650866040519080825280601f01601f1916602001820160405280156111b75781602001602082028038833980820191505090505b509550600094505b60008814151561125657600a888115156111d557fe5b069350600a888115156111e457fe5b049750836030017f010000000000000000000000000000000000000000000000000000000000000002868680600101975081518110151561122157fe5b9060200101907effffffffffffffffffffffffffffffffffffffffffffffffffffffffffffff1916908160001a9053506111bf565b8a9250848351016040519080825280601f01601f19166020018201604052801561128f5781602001602082028038833980820191505090505b509150600090505b82518110156113445782818151811015156112ae57fe5b9060200101517f010000000000000000000000000000000000000000000000000000000000000090047f010000000000000000000000000000000000000000000000000000000000000002828281518110151561130757fe5b9060200101907effffffffffffffffffffffffffffffffffffffffffffffffffffffffffffff1916908160001a9053508080600101915050611297565b600090505b848110156113fd578581600187030381518110151561136457fe5b9060200101517f010000000000000000000000000000000000000000000000000000000000000090047f01000000000000000000000000000000000000000000000000000000000000000282845183018151811015156113c057fe5b9060200101907effffffffffffffffffffffffffffffffffffffffffffffffffffffffffffff1916908160001a9053508080600101915050611349565b819850505050505050505092915050565b600060016007608060405190810160405280868152602001858152602001600060ff1681526020016000151581525090806001815401808255809150509060018203906000526020600020906003020160009091929091909150600082015181600001908051906020019061148492919061185b565b506020820151816001015560408201518160020160006101000a81548160ff021916908360ff16021790555060608201518160020160016101000a81548160ff0219169083151502179055505050039050336008600083815260200190815260200160002060006101000a81548173ffffffffffffffffffffffffffffffffffffffff021916908373ffffffffffffffffffffffffffffffffffffffff16021790555061157a6001600960003373ffffffffffffffffffffffffffffffffffffffff1673ffffffffffffffffffffffffffffffffffffffff168152602001908152602001600020546117d190919063ffffffff16565b600960003373ffffffffffffffffffffffffffffffffffffffff1673ffffffffffffffffffffffffffffffffffffffff168152602001908152602001600020819055507fce48bf19e08859bf5b7fbde70faeb415663b4ea48c7c5cc270eeea608901f5238184846040518084815260200180602001838152602001828103825284818151815260200191508051906020019080838360005b8381101561162d578082015181840152602081019050611612565b50505050905090810190601f16801561165a5780820380516001836020036101000a031916815260200191505b5094505050505060405180910390a1505050565b600073ffffffffffffffffffffffffffffffffffffffff168173ffffffffffffffffffffffffffffffffffffffff1614151515611713576040517f08c379a00000000000000000000000000000000000000000000000000000000081526004018080602001828103825260198152602001807f54686520616464726573732063616e2774206265203078302e0000000000000081525060200191505060405180910390fd5b8073ffffffffffffffffffffffffffffffffffffffff166000809054906101000a900473ffffffffffffffffffffffffffffffffffffffff1673ffffffffffffffffffffffffffffffffffffffff167f8be0079c531659141344cd1fd0a4f28419497f9722a3daafe3b4186f6b6457e060405160405180910390a3806000806101000a81548173ffffffffffffffffffffffffffffffffffffffff021916908373ffffffffffffffffffffffffffffffffffffffff16021790555050565b6000808284019050838110151515611851576040517f08c379a00000000000000000000000000000000000000000000000000000000081526004018080602001828103825260088152602001807f4f766572666c6f7700000000000000000000000000000000000000000000000081525060200191505060405180910390fd5b8091505092915050565b828054600181600116156101000203166002900490600052602060002090601f016020900481019282601f1061189c57805160ff19168380011785556118ca565b828001600101855582156118ca579182015b828111156118c95782518255916020019190600101906118ae565b5b5090506118d79190611928565b5090565b828054828255906000526020600020908101928215611917579160200282015b828111156119165782518255916020019190600101906118fb565b5b5090506119249190611928565b5090565b61194a91905b8082111561194657600081600090555060010161192e565b5090565b905600a165627a7a723058202303ce58529621cf8d61b0829722dcf7aab1d45ef2c2b8af4b253f5ad9697ce80029",
  "source": "// solium-disable linebreak-style\r\npragma solidity ^0.4.24;\r\n\r\nimport \"./ESeed.sol\";\r\n\r\n\r\ncontract EWater is ESeed{\r\n\r\n    modifier onlyOwnerOf(uint _seedId){\r\n        require(seedOwner[_seedId] == msg.sender, \"The seed doesn't belong to the player\");\r\n        _;\r\n    }\r\n\r\n    mapping (address => uint) ownerSeedsPlanted;\r\n\r\n\r\n    function seedPlanting(uint _seedId) public onlyOwnerOf(_seedId){\r\n        Seed storage seed = seeds[_seedId];\r\n        if(seed.remainingDays == 0){\r\n            Player storage player = players[ownerPlayer[msg.sender] - 1];\r\n            seed.remainingDays = daysToHarvest[getType(_seedId)] + uint8(getBonus(_seedId));\r\n            //seed.lastWatered = player.currentDay;\r\n            player.seedsPlanted.push(_seedId);\r\n\r\n        }\r\n    }\r\n\r\n    function seedWatering(uint _seedId) public onlyOwnerOf(_seedId){\r\n        Seed storage seed = seeds[_seedId];\r\n        //Player storage player = players[ownerPlayer[msg.sender]];\r\n        if (!seed.isWatered && seed.remainingDays != 0){\r\n            seed.isWatered = true;\r\n            //seed.lastWatered = player.currentDay;\r\n            //--seed.remainingDays;\r\n        }\r\n    }\r\n}",
  "sourcePath": "D:\\Solidity\\EtherealLands\\contracts\\EWater.sol",
  "compiler": {
    "name": "solc",
    "version": "0.4.24+commit.e67f0147.Emscripten.clang"
  },
  "schemaVersion": "2.0.1",
  "updatedAt": "2018-08-24T08:50:26.799Z"
}