{
  "contractName": "EWater",
  "abi": [
    {
      "constant": true,
      "inputs": [
        {
          "name": "",
          "type": "address"
        }
      ],
      "name": "ownerToPlayer",
      "outputs": [
        {
          "name": "",
          "type": "uint256"
        }
      ],
      "payable": false,
      "stateMutability": "view",
      "type": "function"
    },
    {
      "constant": true,
      "inputs": [
        {
          "name": "_seedId",
          "type": "uint256"
        }
      ],
      "name": "getType",
      "outputs": [
        {
          "name": "",
          "type": "uint256"
        }
      ],
      "payable": false,
      "stateMutability": "view",
      "type": "function"
    },
    {
      "constant": true,
      "inputs": [
        {
          "name": "_seedId",
          "type": "uint256"
        }
      ],
      "name": "getBonus",
      "outputs": [
        {
          "name": "",
          "type": "uint256"
        }
      ],
      "payable": false,
      "stateMutability": "view",
      "type": "function"
    },
    {
      "constant": true,
      "inputs": [
        {
          "name": "",
          "type": "uint256"
        }
      ],
      "name": "seedOwner",
      "outputs": [
        {
          "name": "",
          "type": "address"
        }
      ],
      "payable": false,
      "stateMutability": "view",
      "type": "function"
    },
    {
      "constant": false,
      "inputs": [],
      "name": "renounceOwnership",
      "outputs": [],
      "payable": false,
      "stateMutability": "nonpayable",
      "type": "function"
    },
    {
      "constant": true,
      "inputs": [
        {
          "name": "",
          "type": "uint256"
        }
      ],
      "name": "daysToHarvest",
      "outputs": [
        {
          "name": "",
          "type": "uint8"
        }
      ],
      "payable": false,
      "stateMutability": "view",
      "type": "function"
    },
    {
      "constant": true,
      "inputs": [],
      "name": "owner",
      "outputs": [
        {
          "name": "",
          "type": "address"
        }
      ],
      "payable": false,
      "stateMutability": "view",
      "type": "function"
    },
    {
      "constant": true,
      "inputs": [],
      "name": "getTotalSeeds",
      "outputs": [
        {
          "name": "",
          "type": "uint256"
        }
      ],
      "payable": false,
      "stateMutability": "view",
      "type": "function"
    },
    {
      "constant": false,
      "inputs": [
        {
          "name": "_name",
          "type": "string"
        }
      ],
      "name": "createLand",
      "outputs": [],
      "payable": false,
      "stateMutability": "nonpayable",
      "type": "function"
    },
    {
      "constant": false,
      "inputs": [
        {
          "name": "_id",
          "type": "uint256"
        }
      ],
      "name": "createRandomSeed",
      "outputs": [],
      "payable": false,
      "stateMutability": "nonpayable",
      "type": "function"
    },
    {
      "constant": true,
      "inputs": [
        {
          "name": "",
          "type": "uint256"
        }
      ],
      "name": "seeds",
      "outputs": [
        {
          "name": "name",
          "type": "string"
        },
        {
          "name": "traits",
          "type": "uint256"
        },
        {
          "name": "remainingDays",
          "type": "uint8"
        },
        {
          "name": "isWatered",
          "type": "bool"
        }
      ],
      "payable": false,
      "stateMutability": "view",
      "type": "function"
    },
    {
      "constant": false,
      "inputs": [
        {
          "name": "_newOwner",
          "type": "address"
        }
      ],
      "name": "transferOwnership",
      "outputs": [],
      "payable": false,
      "stateMutability": "nonpayable",
      "type": "function"
    },
    {
      "anonymous": false,
      "inputs": [
        {
          "indexed": false,
          "name": "id",
          "type": "uint256"
        },
        {
          "indexed": false,
          "name": "name",
          "type": "string"
        },
        {
          "indexed": false,
          "name": "traits",
          "type": "uint256"
        }
      ],
      "name": "SeedCreated",
      "type": "event"
    },
    {
      "anonymous": false,
      "inputs": [
        {
          "indexed": true,
          "name": "previousOwner",
          "type": "address"
        }
      ],
      "name": "OwnershipRenounced",
      "type": "event"
    },
    {
      "anonymous": false,
      "inputs": [
        {
          "indexed": true,
          "name": "previousOwner",
          "type": "address"
        },
        {
          "indexed": true,
          "name": "newOwner",
          "type": "address"
        }
      ],
      "name": "OwnershipTransferred",
      "type": "event"
    },
    {
      "constant": false,
      "inputs": [
        {
          "name": "_seedId",
          "type": "uint256"
        }
      ],
      "name": "seedPlanting",
      "outputs": [],
      "payable": false,
      "stateMutability": "nonpayable",
      "type": "function"
    },
    {
      "constant": false,
      "inputs": [
        {
          "name": "_seedId",
          "type": "uint256"
        }
      ],
      "name": "seedWatering",
      "outputs": [],
      "payable": false,
      "stateMutability": "nonpayable",
      "type": "function"
    }
  ],
  "bytecode": "0x608060405260066004556006600555600554600a0a600655336000806101000a81548173ffffffffffffffffffffffffffffffffffffffff021916908373ffffffffffffffffffffffffffffffffffffffff16021790555060056003600080815260200190815260200160002060006101000a81548160ff021916908360ff1602179055506008600360006001815260200190815260200160002060006101000a81548160ff021916908360ff1602179055506008600360006002815260200190815260200160002060006101000a81548160ff021916908360ff160217905550600a600360006003815260200190815260200160002060006101000a81548160ff021916908360ff1602179055506008600360006004815260200190815260200160002060006101000a81548160ff021916908360ff160217905550600a600360006005815260200190815260200160002060006101000a81548160ff021916908360ff1602179055506117d9806101796000396000f3006080604052600436106100d0576000357c0100000000000000000000000000000000000000000000000000000000900463ffffffff16806310ff56ec146100d55780633ca7aac3146101025780634036ab78146101595780634aa66b281461019a5780635ebad701146101db578063715018a6146102485780637917ab051461025f5780638da5cb5b146102a65780639d30d063146102fd578063b5eddba314610328578063bdd6296514610391578063c57dcc83146103be578063f0503e80146103eb578063f2fde38b146104b0575b600080fd5b3480156100e157600080fd5b50610100600480360381019080803590602001909291905050506104f3565b005b34801561010e57600080fd5b50610143600480360381019080803573ffffffffffffffffffffffffffffffffffffffff169060200190929190505050610711565b6040518082815260200191505060405180910390f35b34801561016557600080fd5b5061018460048036038101908080359060200190929190505050610729565b6040518082815260200191505060405180910390f35b3480156101a657600080fd5b506101c560048036038101908080359060200190929190505050610787565b6040518082815260200191505060405180910390f35b3480156101e757600080fd5b50610206600480360381019080803590602001909291905050506107e8565b604051808273ffffffffffffffffffffffffffffffffffffffff1673ffffffffffffffffffffffffffffffffffffffff16815260200191505060405180910390f35b34801561025457600080fd5b5061025d61081b565b005b34801561026b57600080fd5b5061028a600480360381019080803590602001909291905050506109ac565b604051808260ff1660ff16815260200191505060405180910390f35b3480156102b257600080fd5b506102bb6109cc565b604051808273ffffffffffffffffffffffffffffffffffffffff1673ffffffffffffffffffffffffffffffffffffffff16815260200191505060405180910390f35b34801561030957600080fd5b506103126109f1565b6040518082815260200191505060405180910390f35b34801561033457600080fd5b5061038f600480360381019080803590602001908201803590602001908080601f01602080910402602001604051908101604052809392919081815260200183838082843782019150505050505091929192905050506109fe565b005b34801561039d57600080fd5b506103bc60048036038101908080359060200190929190505050610b1a565b005b3480156103ca57600080fd5b506103e960048036038101908080359060200190929190505050610bcc565b005b3480156103f757600080fd5b5061041660048036038101908080359060200190929190505050610d46565b60405180806020018581526020018460ff1660ff16815260200183151515158152602001828103825286818151815260200191508051906020019080838360005b83811015610472578082015181840152602081019050610457565b50505050905090810190601f16801561049f5780820380516001836020036101000a031916815260200191505b509550505050505060405180910390f35b3480156104bc57600080fd5b506104f1600480360381019080803573ffffffffffffffffffffffffffffffffffffffff169060200190929190505050610e37565b005b600080823373ffffffffffffffffffffffffffffffffffffffff166008600083815260200190815260200160002060009054906101000a900473ffffffffffffffffffffffffffffffffffffffff1673ffffffffffffffffffffffffffffffffffffffff161415156105f3576040517f08c379a00000000000000000000000000000000000000000000000000000000081526004018080602001828103825260258152602001807f546865207365656420646f65736e27742062656c6f6e6720746f20746865207081526020017f6c6179657200000000000000000000000000000000000000000000000000000081525060400191505060405180910390fd5b60078481548110151561060257fe5b9060005260206000209060030201925060008360020160009054906101000a900460ff1660ff16141561070b576001600260003373ffffffffffffffffffffffffffffffffffffffff1673ffffffffffffffffffffffffffffffffffffffff1681526020019081526020016000205481548110151561067d57fe5b9060005260206000209060040201915061069684610787565b600360006106a387610729565b815260200190815260200160002060009054906101000a900460ff16018360020160006101000a81548160ff021916908360ff160217905550816001018490806001815401808255809150509060018203906000526020600020016000909192909190915055505b50505050565b60026020528060005260406000206000915090505481565b600080600060078481548110151561073d57fe5b906000526020600020906003020191506103e8826001015481151561075e57fe5b04905060648181151561076d57fe5b0690506004548181151561077d57fe5b0692505050919050565b600080600060078481548110151561079b57fe5b90600052602060002090600302019150620186a082600101548115156107bd57fe5b049050600a818115156107cc57fe5b06905060016003828115156107dd57fe5b060392505050919050565b60086020528060005260406000206000915054906101000a900473ffffffffffffffffffffffffffffffffffffffff1681565b6000809054906101000a900473ffffffffffffffffffffffffffffffffffffffff1673ffffffffffffffffffffffffffffffffffffffff163373ffffffffffffffffffffffffffffffffffffffff16141515610905576040517f08c379a00000000000000000000000000000000000000000000000000000000081526004018080602001828103825260278152602001807f4f6e6c7920746865206f776e65722063616e20706572666f726d20746869732081526020017f616374696f6e2e0000000000000000000000000000000000000000000000000081525060400191505060405180910390fd5b6000809054906101000a900473ffffffffffffffffffffffffffffffffffffffff1673ffffffffffffffffffffffffffffffffffffffff167ff8df31144d9c2f0f6b59d69b8b98abd5459d07f2742c4df920b25aae33c6482060405160405180910390a260008060006101000a81548173ffffffffffffffffffffffffffffffffffffffff021916908373ffffffffffffffffffffffffffffffffffffffff160217905550565b60036020528060005260406000206000915054906101000a900460ff1681565b6000809054906101000a900473ffffffffffffffffffffffffffffffffffffffff1681565b6000600780549050905090565b600060016080604051908101604052808481526020016000604051908082528060200260200182016040528015610a445781602001602082028038833980820191505090505b5081526020016001815260200143815250908060018154018082558091505090600182039060005260206000209060040201600090919290919091506000820151816000019080519060200190610a9c9291906116bb565b506020820151816001019080519060200190610ab992919061173b565b5060408201518160020155606082015181600301555050905080600260003373ffffffffffffffffffffffffffffffffffffffff1673ffffffffffffffffffffffffffffffffffffffff168152602001908152602001600020819055505050565b6000610b2582610f2d565b90506000600780549050141515610b8857610b83610b7d6040805190810160405280600581526020017f5365656420000000000000000000000000000000000000000000000000000000815250600780549050610fce565b8261126e565b610bc8565b610bc76040805190810160405280600681526020017f53656564203000000000000000000000000000000000000000000000000000008152508261126e565b5b5050565b6000813373ffffffffffffffffffffffffffffffffffffffff166008600083815260200190815260200160002060009054906101000a900473ffffffffffffffffffffffffffffffffffffffff1673ffffffffffffffffffffffffffffffffffffffff16141515610ccb576040517f08c379a00000000000000000000000000000000000000000000000000000000081526004018080602001828103825260258152602001807f546865207365656420646f65736e27742062656c6f6e6720746f20746865207081526020017f6c6179657200000000000000000000000000000000000000000000000000000081525060400191505060405180910390fd5b600783815481101515610cda57fe5b906000526020600020906003020191508160020160019054906101000a900460ff16158015610d1e575060008260020160009054906101000a900460ff1660ff1614155b15610d415760018260020160016101000a81548160ff0219169083151502179055505b505050565b600781815481101515610d5557fe5b9060005260206000209060030201600091509050806000018054600181600116156101000203166002900480601f016020809104026020016040519081016040528092919081815260200182805460018160011615610100020316600290048015610e015780601f10610dd657610100808354040283529160200191610e01565b820191906000526020600020905b815481529060010190602001808311610de457829003601f168201915b5050505050908060010154908060020160009054906101000a900460ff16908060020160019054906101000a900460ff16905084565b6000809054906101000a900473ffffffffffffffffffffffffffffffffffffffff1673ffffffffffffffffffffffffffffffffffffffff163373ffffffffffffffffffffffffffffffffffffffff16141515610f21576040517f08c379a00000000000000000000000000000000000000000000000000000000081526004018080602001828103825260278152602001807f4f6e6c7920746865206f776e65722063616e20706572666f726d20746869732081526020017f616374696f6e2e0000000000000000000000000000000000000000000000000081525060400191505060405180910390fd5b610f2a816114ce565b50565b60008082604051602001808281526020019150506040516020818303038152906040526040518082805190602001908083835b602083101515610f855780518252602082019150602081019050602083039250610f60565b6001836020036101000a038019825116818451168082178552505050505050905001915050604051809103902060019004905060065481811515610fc557fe5b06915050919050565b60606000806060600080606080600089975060649650866040519080825280601f01601f1916602001820160405280156110175781602001602082028038833980820191505090505b509550600094505b6000881415156110b657600a8881151561103557fe5b069350600a8881151561104457fe5b049750836030017f010000000000000000000000000000000000000000000000000000000000000002868680600101975081518110151561108157fe5b9060200101907effffffffffffffffffffffffffffffffffffffffffffffffffffffffffffff1916908160001a90535061101f565b8a9250848351016040519080825280601f01601f1916602001820160405280156110ef5781602001602082028038833980820191505090505b509150600090505b82518110156111a457828181518110151561110e57fe5b9060200101517f010000000000000000000000000000000000000000000000000000000000000090047f010000000000000000000000000000000000000000000000000000000000000002828281518110151561116757fe5b9060200101907effffffffffffffffffffffffffffffffffffffffffffffffffffffffffffff1916908160001a90535080806001019150506110f7565b600090505b8481101561125d57858160018703038151811015156111c457fe5b9060200101517f010000000000000000000000000000000000000000000000000000000000000090047f010000000000000000000000000000000000000000000000000000000000000002828451830181518110151561122057fe5b9060200101907effffffffffffffffffffffffffffffffffffffffffffffffffffffffffffff1916908160001a90535080806001019150506111a9565b819850505050505050505092915050565b600060016007608060405190810160405280868152602001858152602001600060ff168152602001600015158152509080600181540180825580915050906001820390600052602060002090600302016000909192909190915060008201518160000190805190602001906112e49291906116bb565b506020820151816001015560408201518160020160006101000a81548160ff021916908360ff16021790555060608201518160020160016101000a81548160ff0219169083151502179055505050039050336008600083815260200190815260200160002060006101000a81548173ffffffffffffffffffffffffffffffffffffffff021916908373ffffffffffffffffffffffffffffffffffffffff1602179055506113da6001600960003373ffffffffffffffffffffffffffffffffffffffff1673ffffffffffffffffffffffffffffffffffffffff1681526020019081526020016000205461163190919063ffffffff16565b600960003373ffffffffffffffffffffffffffffffffffffffff1673ffffffffffffffffffffffffffffffffffffffff168152602001908152602001600020819055507fce48bf19e08859bf5b7fbde70faeb415663b4ea48c7c5cc270eeea608901f5238184846040518084815260200180602001838152602001828103825284818151815260200191508051906020019080838360005b8381101561148d578082015181840152602081019050611472565b50505050905090810190601f1680156114ba5780820380516001836020036101000a031916815260200191505b5094505050505060405180910390a1505050565b600073ffffffffffffffffffffffffffffffffffffffff168173ffffffffffffffffffffffffffffffffffffffff1614151515611573576040517f08c379a00000000000000000000000000000000000000000000000000000000081526004018080602001828103825260198152602001807f54686520616464726573732063616e2774206265203078302e0000000000000081525060200191505060405180910390fd5b8073ffffffffffffffffffffffffffffffffffffffff166000809054906101000a900473ffffffffffffffffffffffffffffffffffffffff1673ffffffffffffffffffffffffffffffffffffffff167f8be0079c531659141344cd1fd0a4f28419497f9722a3daafe3b4186f6b6457e060405160405180910390a3806000806101000a81548173ffffffffffffffffffffffffffffffffffffffff021916908373ffffffffffffffffffffffffffffffffffffffff16021790555050565b60008082840190508381101515156116b1576040517f08c379a00000000000000000000000000000000000000000000000000000000081526004018080602001828103825260088152602001807f4f766572666c6f7700000000000000000000000000000000000000000000000081525060200191505060405180910390fd5b8091505092915050565b828054600181600116156101000203166002900490600052602060002090601f016020900481019282601f106116fc57805160ff191683800117855561172a565b8280016001018555821561172a579182015b8281111561172957825182559160200191906001019061170e565b5b5090506117379190611788565b5090565b828054828255906000526020600020908101928215611777579160200282015b8281111561177657825182559160200191906001019061175b565b5b5090506117849190611788565b5090565b6117aa91905b808211156117a657600081600090555060010161178e565b5090565b905600a165627a7a7230582069f7f32a0f65f5afd9711830276a8df79ebf16d6a43554e61112b9bccaeac6bc0029",
  "source": "// solium-disable linebreak-style\r\npragma solidity ^0.4.24;\r\n\r\nimport \"./ESeed.sol\";\r\n\r\n\r\ncontract EWater is ESeed{\r\n\r\n    modifier onlyOwnerOf(uint _seedId){\r\n        require(seedOwner[_seedId] == msg.sender, \"The seed doesn't belong to the player\");\r\n        _;\r\n    }\r\n\r\n    mapping (address => uint) ownerSeedsPlanted;\r\n\r\n    \r\n\r\n    function seedPlanting(uint _seedId) public onlyOwnerOf(_seedId){\r\n        Seed storage seed = seeds[_seedId];\r\n        if(seed.remainingDays == 0){\r\n            Player storage player = players[ownerToPlayer[msg.sender]];\r\n            seed.remainingDays = daysToHarvest[getType(_seedId)] + uint8(getBonus(_seedId));\r\n            //seed.lastWatered = player.currentDay;\r\n            player.seedsPlanted.push(_seedId);\r\n\r\n        }\r\n    }\r\n\r\n    function seedWatering(uint _seedId) public onlyOwnerOf(_seedId){\r\n        Seed storage seed = seeds[_seedId];\r\n        //Player storage player = players[ownerToPlayer[msg.sender]];\r\n        if (!seed.isWatered && seed.remainingDays != 0){\r\n            seed.isWatered = true;\r\n            //seed.lastWatered = player.currentDay;\r\n            //--seed.remainingDays;\r\n        }\r\n    }\r\n}",
  "sourcePath": "C:\\Users\\elixs\\Documents\\GitHub\\EtherealLands\\contracts\\EWater.sol",
  "compiler": {
    "name": "solc",
    "version": "0.4.24+commit.e67f0147.Emscripten.clang"
  },
  "schemaVersion": "2.0.1",
  "updatedAt": "2018-08-23T18:03:18.455Z"
}